:020000040040BA
:10000000305700204D24400049244000492440003E
:1000100049244000492440004924400000000000D9
:10002000000000000000000000000000B5264000B5
:1000300049244000000000002D27400069274000AF
:1000400049244000492440004924400049244000FC
:100050004924400049244000492440000000000099
:10006000492440004924400000000000A122400033
:10007000B1224000000000003D1A4000491A400033
:100080000000000000000000492440006D184000FE
:100090007918400049244000492440004924400088
:1000A00049244000492440000000000000000000F6
:1000B0000000000049244000492440004924400039
:1000C00049244000492440004924400010B5054C13
:1000D000237833B9044B13B10448AFF300800123F4
:1000E000237010BD6804002000000000347D400033
:1000F000084B10B51BB108490848AFF30080084809
:10010000036803B910BD074B002BFBD0BDE81040BE
:10011000184700BF000000006C040020347D400040
:10012000347D40000000000010B586B0C2F3012409
:1001300001F0FC01214303939DF820308DF8141049
:100140008DF804200493012201A9044B02929847E0
:100150004AF26A70024B984706B010BD411C40003D
:100160000100002010B586B0C2F3012401F0FC01AB
:1001700021430393BDF820308DF814108DF804202E
:100180000493012201A9024B0292984706B010BDC8
:10019000A51B400010B586B068238DF814300023ED
:1001A0008DF804300123029303230C46049301A924
:1001B000074BCDF80CD098479DF8003023809DF870
:1001C000013063809DF80230A38006B010BD00BFEF
:1001D000A51B400010B586B068238DF814300323AA
:1001E0008DF804300123029304230C4604930DEB95
:1001F0000301094BCDF80CD098479DF800302380BF
:100200009DF8013063809DF80230A3809DF8033093
:10021000E38006B010BD00BFA51B400000B589B04B
:1002200068238DF81C3001238DF807208DF80C1001
:1002300004930DF10702069303A9034B0592984717
:1002400009B05DF804FB00BF411C40000A46014BA9
:10025000002118471D0240000A46014B01211847A2
:100260001D0240000A46014B022118471D024000B2
:100270000A46014B032118471D0240000A46014B64
:10028000042118471D0240000A46014B052118476A
:100290001D0240000A46014B062118471D0240007E
:1002A00070B5064686B0124DE9B168238DF814305A
:1002B0000B238DF80430012302930323802404933D
:1002C00001A90C4BCDF80CD08DF800408DF8014001
:1002D0008DF80240984706220E213046A847224654
:1002E0000F21304601E004220E21A84706B070BD60
:1002F0001D024000411C40007FB568238DF814307A
:1003000001238DF804100293049301A9024B039278
:10031000984707B05DF804FBA51B400000B589B005
:100320008DF8073001238DF81C108DF80C200493F4
:100330000DF10702069303A9024B0592984709B0F5
:100340005DF804FB411C400070B5002305460E46D5
:100350000F4C7F22A0473146284601230622A047A2
:100360003146284620237F22A047314628463123A4
:100370001422A0473146284600231022A0473146C8
:100380002846A4463F231122BDE87040604700BFC5
:100390001D0340007FB58DF814108DF804200393E1
:1003A000012201A9034B02920492984707B05DF81D
:1003B00004FB00BFA51B40002DE9F04100230546CA
:1003C0000E461746124C7F22A047124C7B1C31462A
:1003D00028462D22A0473B46314628462E22A047DC
:1003E000FB1C314628462F22A047BB1C314628461D
:1003F0003022A0477B1D314628463122A0473B1DB5
:1004000031462846A4463222BDE8F041604700BF8D
:100410001D0340009503400030B5054604464FF6E5
:10042000FF70631BDBB2994215D914F8013B082217
:10043000584010F0010F4FEA50031ABF9BB283F4EB
:10044000204098B202F1FF3318BF80F0010013F092
:10045000FF02EED1E5E730BD2DE9F0471C460B78F1
:10046000089E834207460D46904602D0002B40F07E
:10047000CF80A8F10201A844DFF8D0A1C9B2284674
:10048000D04718F8012C18F8023C43EA02238342B3
:10049000524640F0D4806978062942D010296DD0A8
:1004A000032940F0B18028796B7943EA00231BB21D
:1004B0001FFA83FE0EF1FF307C2800F2AC8095F825
:1004C00002C0E87840EA0C200EEB0005262D00F370
:1004D000A1805B00DFF870C12770A37061700023FA
:1004E0000F469E4507F1010507F102080ED903EBFF
:1004F0000009EDB23CF81910090AE15501333CF846
:10050000191061555FFA88F7DBB2EAE739462046F1
:100510009047EDB2E055000A605586F80080BDE8CE
:10052000F08795F80280EB7843EA08280FFA88F8FC
:100530001FFA88F0262870D82A796B79DFF808919D
:1005400043EA022329F8103027706170AB78A3705A
:10055000EB78E3702B7923716B7963712046D04778
:100560000823A071000AE0713370364B1B68002B22
:1005700065D001225FFA88F1484642E028796B791C
:1005800043EA0023581E7C284AD895F80280E87870
:1005900040EA08280FFA88F81FFA88F94B44262BFE
:1005A00040DC61702770AB78A370EB78E3702B7937
:1005B00023716B79637106212046D0470823A0710F
:1005C000000AE0713370A8791F4C0022073007231E
:1005D0001146984210D9DE0757BFEE5CE95C314303
:1005E00002EB090603F1010357BF0132090224F8A7
:1005F0001610D2B2DBB2ECE7124B13481B685FFA5D
:1006000088F1BDE8F047184741F0800301210BE075
:10061000002313E00221832306E00221862303E066
:10062000032100E0022190236370A1702770032151
:1006300020469047E070000A207105233370BDE822
:10064000F08700BF0C27002084040020190440001C
:100650000B280CD101290AD1054B1B8E3BB9054A49
:100660001378022B9FBF13780133DBB213707047EE
:1006700084040020D10400202DE9F04F91B0212303
:100680000093502107AB00229E489F4CA0479DF845
:100690003C309E49AB2B40F0AF809DF81C309DF85C
:1006A0001D909DF81FA09DF821C09DF823809DF806
:1006B00025709DF827E09DF829209DF82D509DF884
:1006C0002F6043EA09299DF81E30A1F8109043EAF3
:1006D0000A2A9DF82030A1F812A043EA0C2C9DF8BC
:1006E0002230A1F814C043EA08289DF82430A1F86C
:1006F000168043EA07279DF826300F8343EA0E2E23
:100700009DF82830A1F81AE043EA02230293BDF8CD
:1007100008308B879DF82B209DF82A3043EA02236E
:100720000393BDF80C30CB879DF82C3043EA0525A8
:10073000A1F840509DF82E309DF831209DF83500ED
:100740009DF8374043EA06269DF83030A1F8426014
:1007500043EA022B9DF833209DF83230A1F824B0F3
:1007600043EA02230493BDF81030CB849DF8343063
:100770009DF8392043EA00209DF83630A1F8440066
:1007800043EA04249DF83830A1F8464043EA0223A6
:100790000593BDF81430A1F848309DF83B209DF832
:1007A0003A3043EA0222A1F84A205949A1F802A0AE
:1007B000A1F800905749A1F80280A1F800C056495D
:1007C000A1F802E00F8055494E800D805449BDF8D4
:1007D0000C504D80BDF808500D805249BDF81050A6
:1007E0004D80A1F800B05049BDF814304C8008800D
:1007F0004E494A800B8081E0454B4D4ADFF814B1E9
:100800001A60DFF814A14B4ACBF80020DFF8108102
:10081000494ACAF80020DFF80491484AC8F8002085
:10082000404F4148414E464C4FF08042C9F80020AD
:10083000444A3A600022026044F28B124A824FF42A
:1008400080404BF688220A82A1F8420044F29C22A2
:1008500044F2A000CA82C8874EF2531244F22C2000
:100860008A82C88444F2B00270884A830425002238
:10087000A1F84A0030880A83A1F840208A878A8438
:10088000A1F84620A1F84420A1F8480050211D48B5
:100890000095A0475B462A4650211A480095A0477C
:1008A00053460822502117480095A0474B46102276
:1008B000502114480095A04743460C22502111486E
:1008C0000095A0473B46142250210E480095A047B2
:1008D000154B0C48009518225021A04733461C2286
:1008E000502108480095A047AB238DF81C30012308
:1008F0000093202207AB50210248A04711B0BDE869
:10090000F08F00BF0080014065014000840400209A
:10091000180000201C0000200C00002020000020F7
:1009200010000020140000201427002018270020A9
:1009300088BA8B4153E19C420000B0400000A040C7
:100940002901400000002C421FB50D4B01930D4BB7
:1009500002930D4C00238DF80C308DF80D301320D0
:100960000A4B984720460A4B984701A92046094B55
:100970009847094B98472220084B984704B010BD70
:10098000000E2707801A060000800140092440005D
:10099000A11A4000411B4000790640005F20400042
:1009A0002DE9F74F0746274DB0F90000264C0E46BB
:1009B000A8474FF06051A0470190B7F90200A8473F
:1009C0004FF06051A0478246B7F904001F4FA84777
:1009D0004FF06051A0471E4D8346A8478046894688
:1009E0005046A84742464B46DFF87890DFF87880BB
:1009F000C847B8471749A0471749C0475146306014
:100A00005046A047594682465846A047134B0146D8
:100A100050469847A847124B9847B8477060A84778
:100A2000019B82468B4603F10040A84752465B4635
:100A3000C847B8470749A0470749C047706003B097
:100A4000BDE8F08FE971400091724000D56F400021
:100A50007D69400000003443DB0F49408170400055
:100A6000DD404000D9404000F97340002DE9F04FCF
:100A700087B0002301AA824669213F483F4E019377
:100A8000ADF808303E4FDFF828813E4DDFF804B165
:100A9000B04703A901A8B84703995046C0470021B1
:100AA0000446A847A946384D20B12020D847212028
:100AB000A84703E02020A8472120D8474FF03F4116
:100AC0002046324B984790B14FF07C512046304B36
:100AD000984760B122202F4B98472F4BBDF80E202E
:100AE000DA83BDF80C209A8307B0BDE8F08F22208E
:100AF000A8474FF03F412046244B9847002833D168
:100B00000125002401AA69211B48B04703A901A8B7
:100B1000B84721460398C047204B8346284698474C
:100B20001F4B0146584698471E4B014620469847A2
:100B3000013504461C4B1D489847092DE2D121463A
:100B400003941B4B134DDFF840B0504698470021EB
:100B50000446C84720B12020A8472120D847C8E72D
:100B60002020D8472120C3E74FF07C512046084B76
:100B700098470028C4D0ADE700800140B903400089
:100B8000A10940000976400045204000F57540006D
:100B9000CD7540005F20400084040020E9714000D2
:100BA000F973400081704000010000204A3B0500BD
:100BB0007D704000000000002DE9F04F944ADFF8FE
:100BC000DCB291885389B2F80880DFF8D4A2DFF84C
:100BD000D492080900EB800001F00F0197B001EBFF
:100BE000400001B2059151881C09080903F00F0368
:100BF00000EB800004EB840401F00F0103EB4404DC
:100C000001EB40019389128824B209B2022C0691AB
:100C100003F00F074FEA12114FEA1313CCBF002560
:100C2000012501EB810107F5FA6702F00F0203EBE2
:100C3000830302EB410207EB4303C5F5965712B25B
:100C400007FA83F707923846724B984706460C20FE
:100C500000FB0544033C992060436E4B6E4D02300F
:100C600098476E49A84704464FEA181000EB8000E9
:100C700008F00F0808EB4000664B00B298470146A9
:100C80002046D847044640F26D10624B784398479F
:100C900001462046D847624C07464FF07A5130460D
:100CA000A04701463846D8475E4907463046A84720
:100CB0005D4B0146384698475C4907463046A84791
:100CC00001463846D8475A49574B9847059B064630
:100CD000A3F10C004F4B98475649A8474D4B074688
:100CE000069898475449A84701463846D847494B83
:100CF0000746079898475149A84701463846D847BC
:100D000001463046D847484B4D494E4F98474E49CB
:100D1000A8474E498046A0474D49D8474146A0477D
:100D20004C49D8474C4B98474FF4B47390FBF3F2BF
:100D300002FB1300374B9847484908904046A047AC
:100D4000394B0146464898474146A0474549D84750
:100D5000454906464046A0474449D8474146A04732
:100D6000314B014642489847424904903046A047DB
:100D70004149A8471090D047404B9847CDE9020120
:100D800031463046D8473B49A0473B49A847D04762
:100D90003A4B9847CDE9000139494046A0473949C7
:100DA000D8474146A047204B014637489847D0478F
:100DB000DDE90223C847354B9847D047CDE90A0102
:100DC00033494046A047184B014632489847D04720
:100DD000DDE90023C84702460B46DDE90A01B847B2
:100DE000CDE900012C493046A0472249A0472249BD
:100DF000A847D047214B984703A3D3E90023C8470E
:100E0000224B06460F464FE0000000809DF0323F27
:100E100084040020E9714000F97340000000A04004
:100E2000917240000000C8427D7040000000C8433D
:100E3000005AFA460000C0410000B44400C0A84770
:100E400064A1154AC166400000AD0E47D1F69E3937
:100E5000C5A00C47B53B8C431D764000882A21393C
:100E60000D9F0C47BAC3B243080B0834E350303827
:100E70008CE0883CDB0F494000003443953E400045
:100E80008BE16A37EDD79D3BAE11F53FD56F400042
:100E9000F6CFD3385CC8A33C0000404081704000CE
:100EA0007D694000256A4000DDE900019847D04790
:100EB00002460B46304639468F4EB047CDE90C010D
:100EC0008E494046A0478E4B01468E4898478E4932
:100ED000A0478E49A847D0478D4B06460F469847F6
:100EE0008C4BCDE90001304639469847CDE90A01DF
:100EF00089494046A047824B014688489847414669
:100F0000A0478749D8474146A0477D4B01468548C1
:100F100098478549A8478549D8478349A8478449C0
:100F2000D847D0476EA3D3E9002306460F46DDE934
:100F30000A01C84702460B46304639466E4EB04756
:100F40007C4B984770498046A0477049A847D047D6
:100F50006F4B9847774BCDE90A01DDE90C019847C3
:100F60000899D847664B74499847D0475EA3D3E9A0
:100F7000002306460F46DDE90001C84702460B463E
:100F8000304639466D4EB0476A4B98475E49A04798
:100F90005E49A847D0475E4B984702460B46DDE9BD
:100FA0000A01C847664B9847CDE90A014FF07C51CA
:100FB0004046A0475449DFF89881A0475349A847C5
:100FC000D047C04702460B46C8475A4B98474E4940
:100FD00000900898A0474D49A84701460E90D84771
:100FE000D0474B4B06460F4698474A4BCDE9080180
:100FF0003046394698470E9BCDE90C0118464FF014
:101000008141A047D047424B9847CDE90E01109946
:101010000846D847D0473E4B98474A4BCDE9100188
:1010200018683949A0473949A847D04702460B46B6
:10103000CDE91423374B98473E4BCDE91201DDE94A
:101040000A0198473149A0472F49A8472E49A04790
:101050002E49A847D0472F4BCDE90A019847DDE933
:10106000142306460F4610461946C047CDE9140121
:10107000DDE90A01C04732463B46CDE90A01DDE918
:101080001201C847304E02460B4619A1D1E90001B2
:10109000B047DDE90A2306460F46DDE91401C847DB
:1010A00002460B4630463946244EB047274B9847F8
:1010B000204B98471549A0471349A84780460098F8
:1010C000D047DDE90823C8470F460499064608467D
:1010D000D847D047DDE90223C84702460B4639E02E
:1010E00000000080B5F8643F000000803194733F39
:1010F000E519152021C68DBFC16640005AC4F144D0
:101100007D7040007B14FA42DB0F494000003443FD
:10111000953E4000013E40002FA2ED3A3BAA1A3A0C
:101120008F423B428195AB41000070420000D041AC
:101130000000B841D56F40002E73BA3BBD66400039
:101140002940400018000020796C4000793F4000A1
:101150001D3F400030463946464EB04706460F46D2
:1011600004984FF08141A0470099A047D047DDE99E
:101170000223C847DDE90C23C84702460B46304628
:1011800039463D4EB04706460F4600984FF07C5119
:10119000A0470099A047D047DDE90E23C847024683
:1011A0000B4630463946334EB04706460F46049844
:1011B0003249A0470499A047D047DDE91023C8472A
:1011C00002460B46304639462A4EB0472C4B9847CC
:1011D0002C49A0472C49A8474FF08141A047069BC6
:1011E000BDF81420C3EB031306469B004FF4616067
:1011F00012FB0030079B1844244B98472449A8470A
:101200002449A04701463046D847234B06464FF0B5
:1012100081411868A04701463046D8471F4B2049F6
:1012200006461868A0471F4B0146304698471E4B9C
:1012300098474FF4B46390FBF3F202FB1300134B97
:1012400098474FF07A51A0470021184B064698471F
:101250000C4910B13046D84702E03046114B984750
:10126000064641461248A8473146A04717B0BDE898
:10127000F08F00BFBD664000C16640000000A03F87
:10128000D56F400000003443DB0F4940E971400056
:1012900000C0A8470000B4441C0000200C0000203F
:1012A000000070427D7040001D764000CD7540000A
:1012B0000000B44270B51E4C1E481F4D1F4E86B034
:1012C0000023ADF80430ADF80630ADF80830214603
:1012D0001B4B9847A11D17481A4B984701AA692133
:1012E0001448194B984703A901A8184B9847BDF813
:1012F0000E30E383BDF80C30A383154B9847009064
:10130000BDF802306384BDF800302384638E202052
:101310001BB1A8472120B04702E0B0472120A847D1
:10132000A38E22200BB1B04700E0A84706B070BDE5
:1013300084040020008001405F20400045204000E0
:1013400095014000D5014000B9034000A1094000CB
:10135000B90B40002DE9F0472549264D264F274C73
:10136000DFF8D8800646A8472549264B9847264BE4
:1013700026499847B847264B9847A047254B1968F8
:10138000A847254B1968254B98474FF07E51824658
:10139000C047A94630B35046B847214B214F984724
:1013A000A0472149A847214904463046B84750B1D3
:1013B00000213046C04730B104F100404FF07C516D
:1013C000A847BDE8F08700213046B84768B1184902
:1013D000184B3046984740B14FF07C512046C847E3
:1013E000BDE8F0871448BDE8F0872046BDE8F087E7
:1013F000E7088F3C917240007D694000D56F400046
:101400009A99C93F817040007D704000577AED3C49
:10141000953E40001000002020000020F97340009D
:1014200029404000F5754000E62E65420000B4C238
:101430000000B442E17540000000C07FCD7540005F
:101440002DE9F3472C4D2D4B2D4F2E4E9847294615
:101450002D482E4B9847A91D2B482D4B98472D4BB7
:1014600098470190BDF806306B84BDF804302B849A
:10147000294D2B7804467BB93F6807F10041B047FE
:1014800040B139462046254B984718B12046244B99
:10149000984728E0012325E02249B047B0B1DFF8A2
:1014A0007C9021492046C84780B120461F4B984771
:1014B000D7F800A00AF100418046B04730B151464C
:1014C0004046C84710B14046154B98473F682046F4
:1014D00007F10041B04730B1394620460F4B9847DD
:1014E00008B100232B70124B00221A70114B02B06E
:1014F000BDE8F047184700BF84040020F5264000EF
:1015000014000020F5754000008001409501400066
:10151000D5014000B90B4000D0040020E175400027
:101520006D0A40000000B4C20000B44255134000F0
:10153000D104002015274000F7B500238DF80730AF
:1015400069211348134B144E144F9847012110483A
:10155000134B98470DF107020F210D48B0479DF836
:1015600007309B0703D500220F210948B8470D4BD0
:101570001D8E3DB90C4C2378022B05D90B4B984797
:10158000257001E00A4B984728200A4B9847E1E76D
:101590000080014049034000F90240001D02400064
:1015A000A102400084040020D10400204114400026
:1015B000B5124000E532400030B5114D0FCD87B077
:1015C0006C460FC495E8030084E803000D4C0E4BF5
:1015D0000F2098470D4A0E4B6946204698472046F3
:1015E0000C4B984720460C4B984720460B4B98478E
:1015F0000B4B40F2011118600A4B984707B030BD01
:101600004C7A40000080024009244000000E270769
:10161000791D4000991D4000A51D4000D11D4000CE
:101620001C270020811A4000044B83E80300194660
:10163000034B00221868034B184700BF20270020E7
:101640001C270020551A4000044B83E8030019466C
:10165000034B00221868034B184700BF20270020C7
:101660001C2700206B1A400008B5054B1868054B75
:101670009847C0F19600972828BF002008BD00BFFA
:101680001C2700209D1A400008B50348034B9847CB
:1016900000F0100008BD00BF00800240BD1D4000EA
:1016A0002DE9F04F4FEA0019DFF8BCA1654B5AF85D
:1016B000094085B006460025204603959847624BB1
:1016C00007462046984707EA000313F400580AEB40
:1016D000090B01933DD04FF40071DBF804005B4B24
:1016E00098474FF400512046594B9847236A5F07AB
:1016F00005D40135681CF9D14FF0010801E04FF025
:101700000008544A02232360F300D01852F8361020
:1017100042680A4412F8012C6263226AD10704D499
:1017200001356A1CF9D14FF001084B4A1344934626
:10173000586820B1002303AA1946484FB84701351D
:1017400007D05BF8360020B1002303AA1946434DA9
:10175000A847019BDB0447D50AEB0903022158681F
:101760003A4B98474FF480512046394B9847002513
:10177000236A9F0702D40135681CF9D10223354939
:101780002360F30051F8360019444A68216B024483
:1017900002F8021C216A890703D401356F1CF9D1B4
:1017A0000DE0681C0BD0216B02F8011C0025226A99
:1017B000D10704D401356A1CF9D14FF00108264A3B
:1017C0001344586828B1002303AA1946DFF88CB0E7
:1017D000D847013508D0224B53F8360020B10023FA
:1017E00003AA19461D4DA847019B13F4507F02D14F
:1017F000B8F1000F1ED0D14440F20221D9F8040004
:10180000124B134D9847019BDB055CBF02232360FD
:101810004FF400512046A84720464FF48051A84776
:101820000D4B03EBC606706820B1002303AA1946CE
:101830000A4CA047039B0BB10A4B984705B0BDE883
:10184000F08F00BFB31C4000B71C40008D1A400051
:10185000AD1C4000E4040020F40400201D2C4000D6
:10186000D4040020D5264000647A40000020014BBB
:10187000184700BFA11640000120014B184700BFC8
:10188000A116400070B51C4C1C2303FB00439D694E
:101890009A68954201D121B905E002D9AD1ADD60FF
:1018A00002E05968891AD9601C2141436318DE6837
:1018B0005B6832449A4203D9104B984700BFFDE75A
:1018C0000F4D04018EB12B1908315E680A4B0022BE
:1018D000194430460B4B9847012130460A4B984734
:1018E0004FF484712859094B03E02859084B4FF4F1
:1018F0008471BDE87040184704050020E5264000CB
:10190000847A40006B1A4000811A4000B11D4000EB
:10191000B51D40002DE9F34103013C4AD6583C4B2C
:1019200004464FF000083046CDF804809847394B04
:101930000546304698470540E90617D53046364BF0
:1019400010219847354B03EBC4021F46506828B15D
:101950004346414601AADFF8C880C04757F8340023
:1019600020B1002301AA19462D4FB8472A0726D5D2
:101970002C4F1C226243BB18996919B92A4B98470E
:1019800000BFFDE7012903D1274B984700BFFDE7C2
:101990009868D968014458689960814224BFBA5850
:1019A0009A602046214B002198471C2303FB0477B3
:1019B000386920B1002301AA1946194FB847EB0531
:1019C0000DD530461A4B9847164A1C2303FB0423B7
:1019D000186920B1002301AA1946114FB84715F024
:1019E000E00F0CD03046134B98470C4B03EBC4046C
:1019F000606820B1002301AA1946094CA047019B49
:101A00000BB10D4B984702B0BDE8F081847A4000DD
:101A1000BD1D4000B91D4000B51D40003C05002023
:101A20001D2C400004050020E526400085184000DC
:101A3000C91D4000C11D4000D52640000020014BBB
:101A4000184700BF151940000120014B184700BF7F
:101A50001519400019B10B6883604B68C3601AB157
:101A6000136883615368C361704719B10B680360E1
:101A70004B6843601AB11368036153684361704750
:101A800021F0FE01C905C90D0162704721F4FE7104
:101A900021F001018905890D016270474068704796
:101AA00008230360202303600423036070470000C1
:101AB000204B994210B53BD8A3F57A53994220D9CF
:101AC0001D4B1E4CB2FBF4F40B449B00043CB2FBD8
:101AD000F3F20023043AFF2C08D9072B06D0013378
:101AE0006408F8E7072B03D001335208FF2AF9D81E
:101AF00012021B0492B203F4E0231A43E4B222431D
:101B000013E049000023B2FBF1F2043AFF2A04D9A2
:101B1000072B02D001335208F8E711021B0489B2E7
:101B200003F4E0230B43D2B21A430261002010BD3C
:101B3000012010BD801A06000012FD3F00B80B0006
:101B400038B54FF0FF338362036A80230360036B71
:101B50000823036020230360042303600D460A6802
:101B6000064B496804469847431E584258416B7AD1
:101B7000012B04BF4023236038BD00BFB11A4000D1
:101B800059B1012903780ADD4278022942EA032388
:101B900005D0807840EA0320704708467047184611
:101BA00070470000F8B5CD6804460846002D3ED0C9
:101BB00000268F6866604B681B0203F4407343F491
:101BC00080520B7C1B0403F4FE0313436360E66046
:101BD00049681A4B9847012DE06006D10323236022
:101BE0002B4647F23052022613E00123236033468E
:101BF000F7E702B3012D11D0890743BF226B3A707A
:101C000005F1FF3502F1FF3244BF013747F2305290
:101C100045B1216A11F48070EBD00AE003B9266067
:101C20002B46E9E7236ADB07FCD5236AF8BD0120D0
:101C3000F8BD0520F8BD0920F8BD00BF811B40009C
:101C400070B5CE68044608464EB38D6800216160C9
:101C5000037C1B0403F4FE0243681B0203F440737D
:101C600013436360E16041680F4B98472E44E06086
:101C7000AE4208D0236AD80513D4590744BF15F8DB
:101C8000013B6363F4E7236A13F4807009D15A07B8
:101C9000F9D502232360236ADB07FCD570BD012040
:101CA00070BD052070BD00BF811B40008162036ACA
:101CB0007047006A7047C06A7047B2EB011F30B5C9
:101CC0002CBF1024082461434B0803EBC202B2FB73
:101CD000F1F2D3085D1E4FF6FE718D4210D8082C2C
:101CE00008BF41684FEA024202F4E02208BF41F413
:101CF000002142EA030208BF41600262002030BDB9
:101D0000012030BD0A4BC0F8E43000234360436239
:101D1000836288230360242303604FF4807303608D
:101D20004FF4002303604FF400330360704700BF9B
:101D30000041535570B50D4B0D4E05460C46984766
:101D40000023336009B9012070BD0968094B984729
:101D50000028F8D1A36862681A4323691A43E3682C
:101D600013436A68336013436B6070BD051D400008
:101D70004C050020BB1C400010B5064B044698479C
:101D800030B9636823F00F0343F00103636010BDB3
:101D9000012010BD351D40004023036070478023A3
:101DA000036070471023036070472023036070476F
:101DB00081607047C1607047006970474069704733
:101DC0004FF48073036070474FF400630360704703
:101DD000064B984207D0064A03F5824390420CBF57
:101DE0001846002070470348704700BF004002407B
:101DF00000800240004102402A4B37B54FF40042B8
:101E00005A60294C294D0B20A0470C20A047284C94
:101E10004FF0006260212046A8474FF000624FF06B
:101E2000B0712046A8474FF000624FF4C0612046D1
:101E3000A8474FF0006218212046A8471D4D4FF0DB
:101E400040512020A8474FF040512120A8474FF093
:101E500040512220A84718492320A8474FF040515D
:101E60001020A8474FF040510120A8474FF02051C3
:101E70000020A847114B0093012254230B21204638
:101E80000F4DA8470F4B4FF400621A6020460F22F7
:101E90000B210D4B98470D4B0121204603B0BDE8A7
:101EA0003040184750140E40092440002D214000B6
:101EB000000E0E407920400004000028510640002A
:101EC0003522400000E100E0C12240000520400032
:101ED00070B50F480F4C104DA0473E2100200F4B0E
:101EE0009847A8470028FCD00D4B0E4D98470E4B45
:101EF0000E4A9A62A8470028FCD00D4B1020984744
:101F00000C4B984723460248BDE87040184700BF75
:101F1000000E270795254000D92340008923400063
:101F2000E9234000F923400000040E40013F132044
:101F300045234000C9244000B1F1C05F10B54264A0
:101F40002DD007D8B1F1006F15D0B1F1805F1DD051
:101F500071BB10BDB1F1205F2BD005D8B1F1005F8E
:101F600026D1036F13431FE0B1F1405F21D0B1F1DF
:101F7000605F1ED01CE0046F016FD3432140194005
:101F80000167446F416F21400B4010E0036F134322
:101F90000367416F436F0B4023EA020307E0016FC1
:101FA000036F0B4023EA02030367436F1343436746
:101FB000426010BDD30741644CBF4166016612F018
:101FC0000A0F14BF01624162930702D5C0F8801066
:101FD00003E0130748BFC0F88410416101607047F7
:101FE00010B5029C41640CB1416600E001660BB182
:101FF000016500E041650AB1016300E041630161F0
:10200000016010BD0164704741647047C06C704747
:10201000806C7047D3060ED59306C0F8B0104CBF45
:10202000C0F8D410C0F8D01053064CBFC0F8C01090
:10203000C0F8C4107047C0F8B4107047004B184780
:1020400015204000430903F5001303F207735B02F8
:1020500000F01F00012202FA00F0186370474309E4
:1020600003F5001303F207735B0200F01F00012267
:1020700002FA00F058637047F7B545090E4605F5BA
:10208000001501F0F04105F20775B1F1005F4FEA6C
:1020900045251DD009D8B1F1805F19D0B1F1C05FDD
:1020A00016D0B1F1006F38D112E0B1F1405F1FD00E
:1020B000B1F1605F1CD0B1F1205F2ED100F01F01A3
:1020C0000124324604FA01F12846154B984722E0D4
:1020D00000F01F04012707FA04F422462846114B9A
:1020E0009847F60702D42C66384617E06C66FBE783
:1020F00006F0605200F01F01012402F1484006EA98
:102100000403424200934241C6F38003284604FA86
:1021100001F1054DA847204600E0002003B0F0BDC6
:10212000B51F4000391F4000E11F4000F7B502F025
:10213000F045B5F1005F06460C46174617D009D8A2
:10214000B5F1805F13D0B5F1C05F10D0B5F1006F6D
:1021500027D10CE0B5F1405F13D0B5F1605F10D02E
:10216000B5F1205F1DD1104B984701201AE022469F
:1021700029460E4B9847F80701D43466F5E7746694
:10218000F3E707F0605202F1484107F001034A42C9
:1021900000934A41C7F3800321463046044CA047D0
:1021A000E3E7002003B0F0BDB51F4000391F400039
:1021B000E11F40002DE9F041194B0646884698473B
:1021C000184B054630469847054004D1164B1B680E
:1021D000CBB9BDE8F081154C04F1600754F80C3C14
:1021E000434517D154F8081C294213D023684046B0
:1021F000984754F8083CA74225EA0305E6D0103476
:10220000002DE3D0EAE70A4B1B683BB13046BDE83E
:10221000F0411847A742D9D01034DFE7BDE8F0817C
:102220000D204000112040002827002064050020D8
:10223000540500202DE9F843164E3468062C8946D3
:10224000B446114623D8144F00265FFA86F8444559
:102250000CD34FEA081E07EB0E0557F80E204A452F
:1022600002D16A688A4201D00136EEE7089AAB6073
:102270000134EA6044451A46C5F800906960074B8E
:1022800008BFCCF8008098470020BDE8F883012003
:10229000BDE8F88350050020580500203D2040008F
:1022A0000B210148014B1847000E0E40B52140009C
:1022B0000C210148014B184700100E40B521400089
:1022C0002DE9F0411A4B0C460646154698474FF04B
:1022D000FF310746174B304698473046164B984714
:1022E000E0B200F01F030121994063099B00002C1C
:1022F00003F160434FEA051203F56143AEBF04F1F9
:10230000604400F00F000D4CC3F88010ACBF04F522
:102310006144D2B2C3F88011AABFD2B2225484F869
:102320000023196030463946054BBDE8F041184797
:1023300011204000092040000D20400014ED00E075
:10234000052040000F4B1A6B22F0700210431863F7
:1023500040F60102986E0B49000703D4013AF9D107
:10236000012070470A6B22F0030242F002020A6366
:1023700040F60102996E090702D4013AFAD1EFE75B
:102380000020704700040E4010B5104C30B1236A95
:102390000F4A1A400F4B1343236210BD226A22F4E6
:1023A0005C1323F00303090243F45C1389B243F086
:1023B00001030B432362A36E044ADB07FBD5136AB8
:1023C00043F09B7343F48033136210BD00040E404E
:1023D000FCFFC8FE02003701024B986E00F480300B
:1023E000704700BF00040E40024B4FF000529A624B
:1023F000704700BF00040E40024B986E00F00200D0
:10240000704700BF00040E40222817D81F280D4A2D
:102410004FF0010307D8916903FA00F030EA010395
:102420000ED010610CE02038D2F8081103FA00F049
:1024300030EA010304D0C2F8000101E00120704736
:102440000020704700040E40FEE7000008B5154A62
:10245000154B9A420DD91549043A8B4204D252F8D1
:10246000040F43F8040BF8E700BF114B114A002199
:102470000BE0F9D20D49043ACB1A1344C91A93421E
:10248000F2D053F804095850F9E7934202D243F8C6
:10249000041BFAE7084B094A9A60094B9847094B15
:1024A0009847FEE7347D40000000002064040020CF
:1024B000680400202C27002000ED00E00000400010
:1024C00075764000813D400010B52C4A136B03F037
:1024D0000303012B2A4B0DD003D3116ACC011AD56B
:1024E00025E02849496908064CBF4FF400414FF4E4
:1024F000FA4130E0116AC9010BD423491960116A0D
:1025000001F07001102902D0202902D024E01F49D7
:1025100021E01F491FE01C491960116A01F0700198
:10252000102902D0202902D003E0184900E0184900
:102530001960116B114801F0030102290BBF816A78
:10254000C16A806AC06AC1F30A441968C0B204FB58
:102550000111B1FBF0F11960126B02F07002702AE8
:1025600017BF064A1A68126BC2F3021119BF1A6824
:10257000CA400321B2FBF1F21A6010BD00040E4004
:102580002400002010140E4000093D0000127A00C3
:10259000001BB7000E4B98420E4B02D84FF08062E2
:1025A00014E00D4A904201D80C4A0FE00C4A9042C8
:1025B00001D80C4A0AE00C4A904201D80B4A05E0C7
:1025C0000B4A90428CBF0B4A4FF004221A607047AE
:1025D000FF2C3101000A0E40FF5962020001000485
:1025E000FF86930300020004FFB3C4040003000449
:1025F000FFE0F5050005000400F108034FF0FF328D
:1026000082604360C360036100230360704700235E
:102610000361704743685A684A6042688A605A6832
:10262000916059604160086103680133036070473D
:102630000A68531C10B501D1036907E000F10803D3
:102640005C682468A24201D35B68F9E75A684A6073
:1026500091608B605960086103680133036010BDAD
:10266000436882689A60836842685A6003695A685E
:10267000904204BF82685A60002202611A68013ADF
:102680001A6018687047000003480068006880F30B
:10269000088862B600DF00BF08ED00E04FF08073ED
:1026A00000E90A00002340F80C3C40F8202C403898
:1026B00070470000064B19680868B0E8F00F80F317
:1026C00009884FF0000080F311884EF00D0E70471E
:1026D0008C260020024B4FF080521A60704700BFDA
:1026E00004ED00E0EFF311804FF0A00181F31188B9
:1026F0007047002008B5034B9847034A136801331D
:10270000136008BDE52640002800002080F31188F2
:1027100070470000034B18680138186008B9024B75
:1027200018477047280000200D274000EFF309806C
:102730000C4B1A6820E9F00F10602DE908404FF0AB
:10274000A00080F3118800F02DFE4FF0000080F310
:102750001188BDE8084019680868B0E8F00F80F3F8
:10276000098870478C26002010B5064B4FF0805228
:102770001A60054B9847054B98470020044BBDE86D
:102780001040184704ED00E0E5264000FD30400011
:102790000D274000034B044A1A60072243F8042C1B
:1027A000704700BF14E000E0BF27090008B5084BE0
:1027B0001A6842F470021A601A6842F070421A6095
:1027C000044B9847044B00201860044B984708BD01
:1027D00020ED00E0952740002800002089264000D9
:1027E00010B5104B1A68824201D21346FAE75968B5
:1027F0005C18A04201BF406809181846596041683A
:102800004418A24208D1084C2468A24204D052685D
:10281000114441601A6812680260984218BF18603B
:1028200010BD00BFCC250020C825002070B5274B67
:1028300004469847264A116889B9264B264841F62E
:10284000F07541F6F476036041609951234859517F
:102850002349106083E821000B68103B0B602CB10A
:10286000103463071CBF24F007040834611E41F6CE
:10287000FE73994222D8184B1D6869688C4203D8B0
:102880001268954206D119E029680029F8D02B4634
:102890000D46F2E72A681E681A606B681B1B202B26
:1028A00006F1100604D9281943606C600D4B984757
:1028B0000B4A696813685B1A136000E000260A4B34
:1028C00098470EB9094B9847304670BDCD3040004F
:1028D000C8250020C8050020CC250020B8250020F0
:1028E0002C000020E1274000F5314000353D40003C
:1028F00010B5044678B1084B9847084A54F80C1CA8
:1029000013680B441360A4F11000054B9847054B66
:10291000BDE81040184710BDCD3040002C0000200D
:10292000E1274000F531400038B504461046226CDE
:1029300032B92568FDB96068114B984765601AE0A7
:10294000104B58B9A0689847A268236C134462687A
:10295000A36093420FD32368A3600CE0E06898471C
:10296000236CE26821685B421A448A42E2603EBFFF
:1029700062689B18E360A36B0133A36338BD00BF9B
:10298000C13640002977400030B4034608461C6831
:102990005CB1D9681A6C5D681144A942D96028BF3E
:1029A000DC60D968024B30BC184730BC704700BFB0
:1029B000297740002DE9F0411A4D1B4FDFF8708058
:1029C00004462E46A84704F12405A36C002B09DD1C
:1029D000636A3BB12846B84700B1C047A36C013BCE
:1029E000A364F2E74FF0FF33A364104D0E4FDFF8FE
:1029F0004080A847B04704F11006636C002B09DD46
:102A000023693BB13046B84700B1C047636C013B16
:102A10006364F2E74FF0FF3363642B46BDE8F04197
:102A2000184700BFF526400001354000152740003B
:102A30001936400038B50D46044618B9164B98476C
:102A400000BFFDE7154B9847206CE36B2268A2603E
:102A50004343D1181B1A13446160E36000214FF017
:102A6000FF33A1636364A36455B923697BB104F1A7
:102A700010000B4B9847012809D10A4B984706E0F4
:102A800004F11000084DA84704F12400A847074BA3
:102A90009847012038BD00BFE5264000F5264000DC
:102AA00001354000D5264000F9254000152740009B
:102AB000F8B50E46054668B14C200C4FB8470446A1
:102AC00040B106FB05F00130B847206030B9204620
:102AD000074B9847074B984700BFFDE7E56326641F
:102AE00001212046044B98472046F8BD2D28400080
:102AF000F1284000E5264000352A40002DE9F04F3E
:102B000087B00E4603929A46044618B9374B984749
:102B100000BFFDE711B9036C002B60D1DFF8F48032
:102B2000334F0023C1460193C047A16BE26BDFF82E
:102B3000C0B0019B914211D22E4B524631462046E5
:102B40009847636A3BB104F124002B4B9847012856
:102B500001D12A4B9847D847012044E0039D15B97D
:102B6000D84728463FE013B904A8254B9847B847F3
:102B7000244BDFF8A4B0244D9847C847636C013359
:102B800004BF00236364A36C013304BF0023A36468
:102B9000B84703A904A81D4B9847D8B9C847A26BEA
:102BA000E36B02920193B847019B029A9A420DD1BE
:102BB0000399174B04F1100098472046D847A847BF
:102BC00008B10123AFE70D4B9847FAE72046D847F5
:102BD000A847F6E72046D847A847002003E0034B64
:102BE000984700BFFDE707B0BDE8F08FE52640003D
:102BF000152740002929400001354000D526400016
:102C000079354000CD304000F5314000A13540001D
:102C100059344000F5264000B52940002DE9F04127
:102C200004460D4616469846174814B9804700BF1B
:102C3000FDE721B9236C13B1804700BFFDE7804752
:102C4000E16B0746A06B884217D2104B42462946DB
:102C500020469847A36C01330AD1636A5BB104F143
:102C600024000B4B984730B12EB10124346005E0AD
:102C7000A36C0133A364012400E000243846054B13
:102C800098472046BDE8F081E5264000292940000C
:102C9000013540000D2740002DE9F04F85B00F466B
:102CA00001929A46044618B9424B984700BFFDE787
:102CB00011B9036C002B76D1DFF828813E4E00233A
:102CC000C1460093C047A26BDFF8ECB0009B32B363
:102CD00039462046394BE5689847BAF1000F12D1C2
:102CE000A36B013BA363236813B9354B984760601E
:102CF00023698BB104F11000324B984701280BD1A6
:102D0000314B984708E0636AE5602BB104F1240079
:102D10002C4B98470028F3D1D847012047E0019D6C
:102D200015B9D847284642E013B902A8274B98475F
:102D3000B047274BDFF8B0B0264D9847C847636CC3
:102D4000013304BF00236364A36C013304BF002379
:102D5000A364B04701A902A81F4B9847F0B9C84720
:102D6000A36B0093B047009BA3B9236823B9C04766
:102D700060681A4B9847B0470199194B04F1240039
:102D800098472046D847A84708B1012399E70E4B3A
:102D90009847FAE72046D847A847F6E72046D8479D
:102DA000A847002003E0034B984700BFFDE705B0AC
:102DB000BDE8F08FE5264000152740008929400036
:102DC0002536400001354000D526400079354000C9
:102DD000CD304000F5314000A13540004D36400077
:102DE00059344000F5264000B529400070B504462E
:102DF0000D4B0D469847636C013304BF0023636499
:102E0000A36C013304BF0023A364084B9847A36B52
:102E100023B9294604F12400054B98472046054B69
:102E2000BDE87040184700BFF52640001527400058
:102E3000B9344000B529400010B50D4B1A685060F8
:102E40000C4A1268904204460B4A06D20B490868A5
:102E50001968BDE81040043110470949086819682D
:102E600004319047074B1A68944238BF1C6010BD6C
:102E70008C260020A426002031264000A826002011
:102E8000EC250020300000202DE9F84F0A9EDDF8E7
:102E900030B08A4615469946804618B9554B984732
:102EA00000BFFDE7042E03D9524B984700BFFDE752
:102EB0004420514FB8470446002800F09680BBF1EB
:102EC000000F02D1A800B84700E05846206318B9A7
:102ED00020464A4B984788E0AD002A46A521484B3A
:102EE000DFF868B19847236B043D51460C221D441E
:102EF00004F13400434B984704F1040A002384F89A
:102F00003F305046E6622664D84704F11800D8479F
:102F100025F00705C6F10503A36124613A4B6462FD
:102F20004A464146284698474307206003D0314B24
:102F3000984700BFFDE70B9B03B11C60334B344D3A
:102F4000DFF80C819847334B1A6801321A602F68FA
:102F500007BB2C601B68012B24D1DFF8F8B0DFF829
:102F6000F49008EB07001437D847642FF7D1DFF847
:102F7000E8B0294F5846C8473846C8472748C84789
:102F80002748C8472748C847274BC3F800B0274BF6
:102F90001F6007E0264B1B6823B92B68DB6A9E4243
:102FA00028BF2C60234AE36A11688B42224988BFFC
:102FB00013600A6801320A60204A116814208B42AB
:102FC00088BF136000FB038051461D4B98471D4B83
:102FD0009847174B1B682BB12B68DB6A9E4201D9BF
:102FE000194B98470120BDE8F88F4FF0FF30BDE83E
:102FF000F88F00BFE52640002D284000F128400052
:103000005D784000F97840009D264000F52640009C
:103010008C260020CC2600200C26002090260020A4
:10302000F8250020D8250020EC250020A826002027
:10303000F0250020D0260020B0260020AC2600205D
:103040001526400015274000D52640000F264000D9
:1030500020260020F9254000B426002030B585B098
:103060000024124D03940294019400942346642298
:103070000F491048A847012805460FD10E4B984725
:10308000012805460AD10D4B98470D4B1D600D4B8D
:103090001C600D4B05B0BDE8304018471DB9074B0B
:1030A000984700BFFDE705B030BD00BF892E400046
:1030B000B87A400031334000B1374000E526400087
:1030C000F0250020A4260020AD274000024A136806
:1030D00001331360704700BF8426002010B5044BF5
:1030E0009847044B1C68044B9847204610BD00BF0E
:1030F000F5264000A4260020152740002DE9F047C2
:10310000304B1B68002B57D12F4B1A6801321A60C5
:103110001A681E46E2B92D4B1A6812681AB12C4B78
:10312000984700BFFDE72B4A1968106818601160C6
:1031300029490A6801320A601A681168274A11B9D8
:103140004FF0FF3303E01B68DB68DB685B681360EC
:10315000224C326823689A4232D3DFF87080DFF85D
:103160008C90DFF88CA0D8F800301B6813B94FF0B2
:10317000FF3307E0D8F80030DB68DD6832686B6841
:10318000934202D92360BDE8F0872F1D3846C84717
:10319000AB6A13B105F11800C847EB6ADAF80020F2
:1031A00093420F4A88BFCAF80030142000FB032066
:1031B00039460C4B9847D6E70B4A13680133136026
:1031C000BDE8F08784260020A4260020EC250020FE
:1031D000E5264000A8260020882600203000002098
:1031E0002026002015264000D4250020612640001E
:1031F000AC2600202DE9F8432B4C23681BB92B4B40
:10320000984700BFFDE72A4B98472368013B23609E
:1032100024680CB1002442E0264B1B68002BF9D037
:10322000254E264FDFF8B8803368F3B1F368DD68C8
:1032300005F1040905F11800B8474846B847EB6A9C
:10324000D8F8002093421E4A88BFC8F800301420E6
:1032500000FB032049461B4B98471B4BEA6A1B683F
:10326000DB6A9A4228BF0124DEE7184D2B6843B180
:10327000174E2C462B6833B1B0472368013B2360BF
:10328000F8E7012C06D1134B00221A60124B984725
:10329000012404E00F4B1B68012BBBD1F3E70F4B5C
:1032A00098472046BDE8F88384260020E5264000A4
:1032B000F5264000CC260020902600206126400004
:1032C00020260020152640008C260020D425002032
:1032D000FD304000C8260020D526400015274000BC
:1032E000AC26002010B518B90A4BBDE810401847AD
:1032F000094B9847094B1B68C418094B1868094BC0
:1033000004309847084B20469847084B98470028B8
:10331000EAD010BDD5264000CD304000A4260020C4
:103320008C26002061264000392E4000F5314000F7
:1033300080B5134D2E46134F134C2B68002BFAD03B
:10334000B847D4F80080114B9847B8F1000FF4D07B
:103350000F4BDFF84C8098470B4BDB68DC680D4B5C
:10336000201D98470C4A1368013B13603368013BEA
:1033700033600A4B9847206BC0472046C047DBE7C5
:10338000F4250020CD304000F8250020F531400024
:10339000F526400061264000CC260020152740007D
:1033A000F128400038B5234B1B681BB1224B01228A
:1033B0001A6038BD214C2268236812681B6B9A4240
:1033C00004D8206821681E4B3431984723681D4972
:1033D000186B1D4B194D1422984720B12868296895
:1033E000174B34319847194B194814251A68184956
:1033F0006A4382584AB91A681AB9164B984700BFEF
:10340000FDE71A68013A1A60F0E7104B1A681423B6
:103410005343C818083345686D6845600B449D42A6
:1034200004BF6B684360142303FB02125368DB681C
:10343000236038BD84260020C82600208C2600206A
:10344000293D4000A47A4000C5764000AC2600200B
:1034500020260020E526400070B50D4618B90E4B19
:10346000984700BFFDE70D4C0D4B21681831984778
:1034700020680C4B043098476B1C06D121680A4821
:103480000A4B0431BDE870401847094B1868094BD6
:103490002844BDE870401847E52640008C260020EF
:1034A0003126400061264000D82500201526400026
:1034B000A4260020392E400070B50D4618B90A4BDD
:1034C000984700BFFDE7094C094B21681831984720
:1034D0002068084B04309847074B1868074B28446E
:1034E000BDE87040184700BFE52640008C2600204C
:1034F0001526400061264000A4260020392E4000F9
:10350000F8B5C368DC681CB9134B984700BFFDE7EA
:1035100004F118063046114F114DB847114B1B6886
:1035200073B9261D3046B8470F4AE36A11688B42CB
:1035300088BF13600D4A1420314600FB032001E0D0
:103540000B483146A8470B4BE06A1B68DB6A984280
:1035500034BF00200120F8BDE52640006126400070
:103560001526400084260020AC26002020260020BE
:10357000902600208C26002008B518B9054B9847E6
:1035800000BFFDE7044B1B680360044B1B684360EE
:1035900008BD00BFE526400088260020A4260020A4
:1035A00038B50D46044618B9154B984700BFFDE7DE
:1035B00019B9134B984700BFFDE7124B98472B688A
:1035C0005A1C15D0104A2168126891420F4A61684E
:1035D00002D0106881420DD91268521A934209D95B
:1035E0000A4A1268521A9B1A2B602046084B9847C9
:1035F000002400E00124074B9847204638BD00BF57
:10360000E5264000F526400088260020A42600205C
:103610007935400015274000014B01221A607047A0
:10362000C8260020014B1868704700BF8C26002078
:10363000044B186828B1044B1B68002B0CBF0120F9
:1036400002207047F0250020842600202DE9F0415B
:10365000044648B3154DC36A2A68D26A934223D2FE
:103660002A68D26AC2F1050282611148142202FB63
:10367000030362699A42064613D1271D38460D4B53
:1036800098472B680C4ADB6A1168E3628B4288BF5B
:103690001360142000FB03603946084BBDE8F0417D
:1036A00018472B68DB6AE362BDE8F0818C260020B6
:1036B0002026002061264000AC2600201526400070
:1036C00070B50446D0B1C26A036C9A4216D0051D8B
:1036D00028460B4B9847236CE362C3F10502A261B5
:1036E000084A11688B4288BF1360074A1420294694
:1036F00000FB0320BDE87040044B184770BD00BFBD
:1037000061264000AC26002020260020152640001F
:103710002DE9F0410D4C0E4B984725688DB90D4FA2
:103720000D4EDFF848803846C0473046C0470B4B47
:103730001F600B4B2A461E600C210520094B984741
:103740002060094BBDE8F041184700BF0427002066
:10375000F5264000D8260020EC260020D4260020A4
:1037600008270020B12A400015274000F925400015
:10377000914208B54160006106D8D21A83699A4225
:103780000DD2011D074B05E09A4201D2994206D2A3
:10379000054B011D1868054B9847002008BD012006
:1037A00008BD00BF08270020D42600203126400095
:1037B0001FB50C4B98470C4B1B6813B90B4B984724
:1037C0000EE0002304220092039302930193C82287
:1037D00007490848084CA0470028EFD004B010BDA6
:1037E00000BFFDE71137400004270020E526400018
:1037F000BD7A4000D1384000892E40007FB50E4D83
:10380000064628681C46A8B101910292039663B946
:103810000A4B0B4E98470128234608BF089A286890
:1038200018BF224601A9B04704E02246002301A99F
:10383000044CA04704B070BD04270020313640007E
:10384000FD2A40001D2C40002DE9F7431A4E1B4F66
:10385000B04633681A6832B3DA681568DB68DC682A
:1038600004F104094846B847636A20469847E3696B
:10387000012BEED1A3692B449D4207D263602461E2
:103880004946D8F800000E4B9847E2E7002320464F
:1038900000932A4619460B4CA0470028D9D10A4B61
:1038A000984700BFFDE7094A0349106808601360A4
:1038B00003B0BDE8F08300BFD4260020612640009D
:1038C00031264000FD374000E52640000827002053
:1038D0002DE9F04FDFF88C8189B0DFF88CB1DBF88F
:1038E0000020D2F80090B9F1000F02D0D26815681C
:1038F00000E04D464E4A4F4C4F4F9047A0473A6824
:1039000003949042064604D24C4A90474FF0010A75
:1039100001E04FF0000A3E60494CBAF1000F33D18C
:10392000B9F1000F26D0AE4224D3A047DBF8003017
:10393000DB68DC68434B201D9847E369012B15D1F8
:10394000A16932462B46294420463F4EB047012804
:103950000CD12A46CDF800A05346514620463B4D97
:10396000A84718B93A4B984700BFFDE7636A20465D
:1039700098470AE0A91BD8F80000364B9847A047A3
:1039800018B9354B984700E0A047039B98473B6820
:103990009842054601D2294B98473D602F4FDFF8EA
:1039A000A490D8F8000000231A4605A9B8470028BB
:1039B00093D0079C1CB163690BB1201DC847059EBD
:1039C000022E22D0032E2ED0002EEAD1A169069B12
:1039D000DFF874902A4619442046C8470128DED1F2
:1039E000636A20469847E369012BD8D1A2690699FA
:1039F00000960A44204633463146144CA04700281E
:103A0000CDD1134B984700BFFDE70699A16119B9C5
:103A10000F4B984700BFFDE72B462A462944204616
:103A2000094CA047BBE720460D4B9847B7E700BFBE
:103A3000CD304000DD3040000027002049384000F4
:103A4000F53140006126400071374000FD374000ED
:103A5000E5264000ED2D4000D5264000992C400081
:103A6000F128400004270020D42600202DE9F34748
:103A70000A44444CDFF84891DFF8488106460D4679
:103A8000D7B2BD427AD0212D75D8DFE805F01115E7
:103A90001A1E22262A74742E7437743F7474747438
:103AA0007448747474746A74747474747451745A49
:103AB00031783548354B02E0B1783348344B98477C
:103AC00059E031793048334BF9E7B1792E48324B20
:103AD000F5E7317A2C48314BF1E7B17A2A48304B7F
:103AE000EDE7317B28482F4BE9E72F4B628A5A805C
:103AF000228A1A800422009200222CE02B4BE28AB8
:103B00005A80A28A1A800422009224E0284B628BF9
:103B10005A80228B1A800422009208221BE0254B37
:103B2000E28C5A80A28C1A8004220092142212E0A5
:103B3000214BE28F5A80A28F1A80042200920C221D
:103B400009E01E4BB4F842205A80B4F840201A8095
:103B500004220092102250210B48DFF86CA0D047BD
:103B600009E000232220A38689F80030C0472020E6
:103B7000C0472120C0470135EDB282E702B0BDE861
:103B8000F08700BF84040020008001404D02400007
:103B90005902400065024000710240007D02400071
:103BA0008902400095024000180000201C000020FF
:103BB0000C00002014000020100000202000002035
:103BC000D10400205F20400029014000004B18472D
:103BD000B915400070B50A4B04460D460948984790
:103BE00029462046084B094C094D9847A04710B973
:103BF0000220A847FAE70348064BBDE87040184783
:103C0000991D40000080024029164000891640009E
:103C1000E53240009F1D40002DE9F04F284B294A16
:103C20001A60D1B00DF10F07274B2848284E294DB7
:103C3000DFF8C490DFF8C4B000243C7098472348F4
:103C4000B047962104A8A847CA460820D847224B67
:103C50009847C0B22CB9002816BF80460024012422
:103C6000F3E7804501D08046EFE718481B4B9847A3
:103C70002146D9F800001A4B1A4C98471A4B04A950
:103C8000187800972AAB4246A047397811B12AA884
:103C9000164B9847164C9622002104A8A04796225E
:103CA00000212AA8A047002408483C70B047DAF851
:103CB0000000104B01219847962104A8A847C4E7AB
:103CC0000C2700206D3A40009F1D400000800240FC
:103CD000A51D40004916400069164000AB1D40007C
:103CE0008D1A40005904400034000020D53B4000AC
:103CF0005D784000811A40001C270020E53240001A
:103D000008B5064D064C1020A8476420A047102097
:103D1000044B98476420A047F4E700BF45204000CB
:103D2000E53240005F20400008B5014B9847FEE7B0
:103D3000E526400008B5014B9847FEE7E526400020
:103D400010B5084B084C012098470848A047084B7D
:103D5000012098470748A047074B9847074BBDE805
:103D6000104018475F20400001000020136541000B
:103D70004520400025CA820049094000CD3B400053
:103D80001FB5144B144D9847144B00249847012637
:103D9000134B984723464FF49672124903940294AA
:103DA000019400961048A84723464FF400720F492B
:103DB00003940294019400960D48A8472346039467
:103DC00002940194009664220A490B48A8470B4BC1
:103DD0009847FEE7D11E4000892E4000F91D4000A3
:103DE000413D4000C57A400039154000C87A400086
:103DF000193C4000CD7A4000013D40005D3040005C
:103E000030B5224A21F00043934287B01BDD204A9F
:103E1000934205DD02460B4602F050FC07B030BD70
:103E200002AA00F009FF00F00303012B1AD0022BB5
:103E30000FD01BB30124DDE90423DDE90201009466
:103E400001F0FEFEEAE70022002301F0D9F907B0F5
:103E500030BDDDE90423DDE9020101F0D1F901F112
:103E60000041DBE7DDE904450093DDE9020122467C
:103E70002B4601F0E5FE01F10041CFE7DDE9042327
:103E8000DDE9020101F0BCF9C8E700BFFB21E93F11
:103E9000FFFFEF7F30B51F4A21F00043934287B008
:103EA0001BDD1D4A934205DD02460B4602F006FC6F
:103EB00007B030BD02AA00F0BFFE00F003000128E9
:103EC000DDE904231AD002280FD0E0B1DDE90201B8
:103ED00001F096F901F10041EAE700230093002286
:103EE000002301F0ADFE07B030BD0124DDE9020181
:103EF000009401F0A5FE01F10041D9E7DDE90201DE
:103F000001F07EF9D4E70124DDE90201009401F01B
:103F100097FECDE7FB21E93FFFFFEF7F30B5144A65
:103F200021F00043934287B019DD124A934205DD28
:103F300002460B4602F0C2FB07B030BD02AA00F0F9
:103F40007BFE440004F00204C4F10104DDE9042313
:103F5000DDE90201009401F02BFF07B030BD012321
:103F600000930022002301F023FF07B030BD00BF03
:103F7000FB21E93FFFFFEF7F2DE9F043DFF8A4804D
:103F80008BB004460D4600F007F998F90030013374
:103F900006460F462ED022462B462046294602F0E2
:103FA000DBFF814630BB2046294602F067FA00223B
:103FB000194B02F0C7FFE8B1184B1948CDF8209013
:103FC00001228DE80C00CDE90445CDE9024502F05F
:103FD000E5FA98F90030022BCDE906010FD06846CA
:103FE00002F0DAFA58B1089B83B9DDE906010BB09B
:103FF000BDE8F083304639460BB0BDE8F08303F0EE
:1040000033FB21230360089B002BEED003F02CFB35
:10401000089B0360E9E700BF0000F03FD47A40004E
:10402000E07A4000350000202DE9F043DFF8A4805D
:104030008BB004460D4600F003FB98F900300133C5
:1040400006460F462ED022462B462046294602F031
:1040500083FF814630BB2046294602F00FFA00223A
:10406000194B02F06FFFE8B1184B1948CDF82090BA
:1040700001228DE80C00CDE90445CDE9024502F0AE
:104080008DFA98F90030022BCDE906010FD0684671
:1040900002F082FA58B1089B83B9DDE906010BB042
:1040A000BDE8F083304639460BB0BDE8F08303F03D
:1040B000DBFA21230360089B002BEED003F0D4FA37
:1040C000089B0360E9E700BF0000F03FDC7A400096
:1040D000E07A40003500002000F0E2BC2DE9F04F0E
:1040E0008BB004460D4600F0C9FF284B93F900A0A1
:1040F000BAF1FF3F06460F4612D022462B46204615
:10410000294602F029FF834650B94FF000084FF0CE
:10411000000942464B462046294602F0F5FE20B9EA
:10412000304639460BB0BDE8F08F194BCDF820B0C2
:104130000122CDE90445CDE902458DE80C00BAF134
:10414000000F15D042464B464046494602F094FDCA
:10415000BAF1020FCDE906010CD103F085FA212353
:104160000360089B63B9DDE906010BB0BDE8F08F81
:10417000CDE90689684602F00FFA0028F1D1ECE794
:1041800003F072FA089B0360EDE700BF35000020E2
:10419000E47A4000000000002DE9F84FC44E21F001
:1041A0000043B3420C4605460DDD03F1404303F5E1
:1041B0008013034340F0B980002940F34081002080
:1041C0000021BDE8F88FBB4EB34240F3A680002922
:1041D000C0F2788102460B460020B74902F06EFA21
:1041E0000022B64B02F01EFC04460D4600F046FFCE
:1041F00095A3D3E90023894680462946204602F04C
:1042000011FC93A3D3E9002302F05AFA22462B466D
:1042100002F008FC90A3D3E9002302F04FFA2246F3
:104220002B4602F0FFFB8EA3D3E9002302F048FAED
:1042300022462B4602F0F6FB8BA3D3E9002302F0C3
:104240003DFA22462B4602F0EDFB89A3D3E9002379
:1042500002F036FA22462B4602F0E4FB86A3D3E9AD
:10426000002382468B462046294602F0DBFB84A3CE
:10427000D3E9002302F022FA22462B4602F0D2FBB9
:1042800081A3D3E9002302F01BFA22462B4602F059
:10429000C9FB7FA3D3E9002302F010FA22462B4684
:1042A00002F0C0FB0022844B02F00AFA02460B46E1
:1042B0005046594602F0E0FC42464B4602F0B2FB43
:1042C000002682468B4632464B463046494602F02F
:1042D000A9FB02460B462046294602F0EFF932467A
:1042E00004460D464B464046494602F0E9F902466F
:1042F0000B462046294602F0BFFC02460B465046BC
:10430000594602F0DDF932464B4602F0D9F9024631
:104310000B4602F0D5F9BDE8F88F694A93420EDCEE
:104320005DA1D1E90001BDE8F88F02460B4602F01D
:10433000C5F902460B4602F09FFCBDE8F88F024625
:104340000B4602F06FFB40A3D3E9002306460F465D
:1043500002F068FB3EA3D3E9002302F0B1F9324634
:104360003B4602F05FFB3CA3D3E9002302F0A6F931
:1043700032463B4602F056FB39A3D3E9002302F054
:104380009FF932463B4602F04DFB37A3D3E90023A9
:1043900002F094F932463B4602F044FB34A3D3E9E1
:1043A000002302F08DF932463B4602F03BFB32A37C
:1043B000D3E90023804689463046394602F032FB75
:1043C0002FA3D3E9002302F079F932463B4602F0ED
:1043D00029FB2DA3D3E9002302F072F932463B46B4
:1043E00002F020FB2AA3D3E9002302F067F932464A
:1043F0003B4602F017FB00222F4B02F061F9024608
:104400000B464046494602F037FC2A46234602F056
:1044100009FB02460B4622A1D1E9000102F04EF948
:1044200002460B462846214602F048F902460B4652
:1044300019A1D1E9000102F041F9BDE8F88F1AA1F4
:10444000D1E90001BDE8F88F09F7FD0DE13D023F1C
:1044500088B20175E0EF493F3B8F68B52882A43FE1
:104460005544880E55C1C93F7D6FEB0312D6D43F2A
:10447000555555555555C53F82922EB1C5B8B33FD8
:1044800059018D1B6C06E63FC88A599CE52A0040FD
:104490004B2D8A1C273A0340182D4454FB21F93F29
:1044A000075C143326A6913C182D4454FB21094087
:1044B000FFFFEF3FFFFFDF3F0000F03F0000E03F66
:1044C0000000603C00225C4B02F0FAF800225B4BDB
:1044D00002F0A8FA40A3D3E9002304460D4602F0F7
:1044E000A1FA3FA3D3E9002302F0EAF822462B46C3
:1044F00002F098FA3CA3D3E9002302F0DFF8224649
:104500002B4602F08FFA3AA3D3E9002302F0D8F841
:1045100022462B4602F086FA37A3D3E9002302F0A5
:10452000CDF822462B4602F07DFA35A3D3E90023CD
:1045300002F0C6F822462B4602F074FA80468946FD
:104540002046294600F09AFD2FA3D3E90023064612
:104550000F462046294602F065FA2DA3D3E9002331
:1045600002F0ACF822462B4602F05CFA2AA3D3E90B
:10457000002302F0A5F822462B4602F053FA28A3A6
:10458000D3E9002302F09AF822462B4602F04AFAB9
:104590000022294B02F094F802460B464046494659
:1045A00002F06AFB32463B4602F03CFA1EA3D3E916
:1045B000002302F083F832463B4602F081F80246BF
:1045C0000B4602F07DF802460B4619A1D1E9000125
:1045D00002F074F8BDE8F88F09F7FD0DE13D023FE8
:1045E00088B20175E0EF493F3B8F68B52882A43F50
:1045F0005544880E55C1C93F7D6FEB0312D6D43F99
:10460000555555555555C53F82922EB1C5B8B33F46
:1046100059018D1B6C06E63FC88A599CE52A00406B
:104620004B2D8A1C273A0340075C143326A6913C85
:10463000182D4454FB2109400000F03F0000E03FEA
:104640002DE9F047C04B21F00048984584B00D4655
:10465000044614DD08F1404808F58018034658EA7E
:10466000030323D002460B4602F028F802460B460D
:1046700002F002FB0446204604B0BDE8F087B34BCD
:1046800098458A462BDCB8F1795F80F2678192A366
:10469000D3E9002302F014F80022AD4B02F052FCE3
:1046A000E8B12946204604B0BDE8F0878CA3D3E9E1
:1046B000002302F0B7F98CA3D3E9002306460F4686
:1046C0002046294602F0AEF902460B4630463946EE
:1046D00001F0F6FF0446204604B0BDE8F08720460E
:1046E000294601F0CBFE02460B460020984901F016
:1046F000E5FF0022974B02F095F97DA3D3E9002353
:1047000004460D4602F08EF97BA3D3E9002301F0A5
:10471000D7FF22462B4602F085F979A3D3E900237F
:1047200001F0CCFF22462B4602F07CF976A3D3E9B8
:10473000002301F0C5FF22462B4602F073F974A353
:10474000D3E9002301F0BAFF22462B4602F06AF9B2
:1047500071A3D3E9002301F0B3FF22462B4602F0F8
:1047600061F96FA3D3E90023CDE900012046294672
:1047700002F058F96CA3D3E9002301F09FFF224611
:104780002B4602F04FF96AA3D3E9002301F098FF0A
:1047900022462B4602F046F967A3D3E9002301F035
:1047A0008DFF22462B4602F03DF9694B002201F0B5
:1047B00087FFCDE902012046294600F05FFC664BE9
:1047C000984506460F4666DCDDE90223DDE9000177
:1047D00002F052FA3246CDE900013B4630463946F6
:1047E00001F06EFF02460B46DDE9000102F01AF906
:1047F0004FF00008CDE9000142463B4640463946AD
:1048000002F010F902460B462046294601F056FFF9
:10481000424604460D463B463046394601F050FFBD
:1048200002460B462046294602F026FA02460B466F
:1048300001F046FF02460B462BA1D1E9000101F031
:104840003DFF02460B46DDE9000101F037FF42461D
:1048500004460D463B464046394601F031FF0246CC
:104860000B4637A1D1E9000101F028FF02460B46B3
:104870002046294601F022FF02460B4630A1D1E92D
:10488000000101F01BFF0446BAF1000F3FF7F3AE41
:1048900001F10041EFE6DDE90223DDE9000102F06C
:1048A000EBF932463B4602F0BDF832463B4601F09A
:1048B00007FF02460B4601F003FF0BA3D3E90023D9
:1048C00001F0FCFE02460B4605A1D1E9000101F012
:1048D000F5FE0446D8E700BF9C7500883CE4377EAF
:1048E000182D4454FB21F93F075C143326A6913C54
:1048F00009F7FD0DE13D023F88B20175E0EF493F48
:104900003B8F68B52882A43F5544880E55C1C93FE6
:104910007D6FEB0312D6D43F555555555555C53FC0
:1049200082922EB1C5B8B33F59018D1B6C06E63F8C
:10493000C88A599CE52A00404B2D8A1C273A03401F
:10494000182D4454FB21E93FFFFFEF3FFFFFDF3FFE
:104950000000F03F0000E03F3233EF3F02460B46DD
:1049600002F060F838A3D3E9002306460F4602F0B0
:1049700059F837A3D3E9002301F0A2FE32463B46A3
:1049800002F050F834A3D3E9002301F097FE324639
:104990003B4602F047F832A3D3E9002301F090FE32
:1049A00032463B4602F03EF82FA3D3E9002301F044
:1049B00085FE32463B4602F035F82DA3D3E90023AD
:1049C00001F07EFE32463B4602F02CF82AA3D3E9E2
:1049D0000023804689463046394602F023F828A352
:1049E000D3E9002301F06AFE32463B4602F01AF892
:1049F00025A3D3E9002301F063FE32463B4602F0D3
:104A000011F823A3D3E9002301F058FE32463B46B8
:104A100002F008F80022204B01F052FE02460B463D
:104A20004046494602F028F922462B4601F0FAFF9B
:104A300022462B4601F044FE0446204604B0BDE861
:104A4000F08700BFAFF3008009F7FD0DE13D023FA5
:104A500088B20175E0EF493F3B8F68B52882A43FDB
:104A60005544880E55C1C93F7D6FEB0312D6D43F24
:104A7000555555555555C53F82922EB1C5B8B33FD2
:104A800059018D1B6C06E63FC88A599CE52A0040F7
:104A90004B2D8A1C273A03400000F03F0000000025
:104AA0002DE9F84F5442144323F00049DFF880E128
:104AB00049EAD474744506460D463ED84442044340
:104AC00021F0004B4BEAD47474458A4635D803F183
:104AD000404404F58014144344D09C1704F00204AD
:104AE00044EAD17450EA0B012FD052EA090133D0C5
:104AF000F14546D0F3452FD0C9EB0B094FEA2959B0
:104B0000B9F13C0F34DC002B57DB3046294602F06C
:104B1000B3F801F0B3FC01F013FB012C4AD0022CD6
:104B20003BD084B132A3D3E9002301F0C7FD32A307
:104B3000D3E9002301F0C2FD05E0104619463246D4
:104B40002B4601F0BDFDBDE8F88F022C14D0032CDC
:104B50000CD12D482D49F6E7BAF1000F2A480EDB9B
:104B60002B49F0E7BDE8F84F01F0EABA2946EAE739
:104B700023A1D1E90001D0E723482649E3E72649EC
:104B8000E1E7CB451FD0022CF6D0032CE1D0012C5D
:104B90004FF0000020D00146D5E715A3D3E900234C
:104BA00001F08CFD02460B4613A1D1E9000101F092
:104BB00085FDC8E701F10041C5E719F13C0FA4DA12
:104BC00000200021A9E7022C0ED0032C09D0012CD3
:104BD0000D4804D01149B6E74FF00041B3E7104942
:104BE000B1E710481049AEE70E481049ABE700BFE7
:104BF000075C143326A6A13C182D4454FB21094020
:104C0000182D4454FB21F93F182D4454FB2109C0B1
:104C1000FB21F93FFB210940FB21F9BFFB21E93FC3
:104C2000FB21E9BFD221337F7CD902C07CD902406D
:104C30000000F07F000000002DE9F04F944E21F0BD
:104C40000047B74291B040F382809246914A974222
:104C50000C4626DC002984A3D3E9002340F3A88175
:104C600001F02CFD8C4B9F4204460D4600F08480E1
:104C70007FA3D3E9002301F021FD02460B46CAE9D8
:104C800000232046294601F019FD79A3D3E900232A
:104C900001F014FD0125CAE90201284611B0BDE862
:104CA000F08F7E4A974240F384807D4A974259DCD8
:104CB0003D15A5F21645A7EB055319461F460646B6
:104CC00002F060F901F048FE8046894602460B4634
:104CD00030463946CDE90A8901F0F0FC0022714BDB
:104CE00001F0A0FE8946804602F04CF901F034FE46
:104CF00002460B4606460F4640464946CDE90C673C
:104D000001F0DCFC0022674B01F08CFE0022002346
:104D1000CDE90E0102F0EEF8002800F075810023C5
:104D200030463946002202F0E5F8002814BF01237E
:104D300002235D4A0192022100912A4651460AA8A7
:104D400000F082FB002CC0F25181054606E0C2E96A
:104D5000000100250024C2E902450025284611B0C3
:104D6000BDE8F08F02460B4601F0A8FC0025CAE919
:104D70000201CAE90001F1E73FA3D3E9002301F0F2
:104D80009DFC3FA3D3E900230D46044601F096FCA9
:104D900002460B46CAE900232946204601F08EFC54
:104DA00037A3D3E9002301F089FC0125CAE90201F8
:104DB000D4E701F063FB34A3D3E90023804689469E
:104DC00001F030FE0022394B01F07AFC02F0DAF8F3
:104DD000054601F0C1FD24A3D3E90023CDE9040178
:104DE00001F020FE02460B464046494601F066FCB3
:104DF0001FA3D3E9002380468946DDE9040101F0C1
:104E000011FE1F2DCDE9020154DC294B6A1E53F817
:104E100022309F424ED002460B464046494601F0A2
:104E20004DFC02460B46CAE9002383460E465A460D
:104E300033464046494601F041FCDDE9022301F0DA
:104E40003DFC002C02460B46CAE9022386DA5B468B
:104E500006F1004601F100418AE84800CAF80C104A
:104E6000CAF808006D4279E700004054FB21F93F81
:104E70003163621A61B4D03D0000601A61B4D03D64
:104E80007370032E8A19A33B83C8C96D305FE43F5A
:104E9000FB21E93F7BD90240FB21F93FFB2139414E
:104EA000FFFFEF7F000070416C7B40000000E03F9F
:104EB000EC7A4000DDE902234046494601F0FEFB62
:104EC0003A15C1F30A53D31A102B83460E460992A2
:104ED000CAE90001ABDD5EA3D3E90023DDE90401EB
:104EE00001F0A0FD06460F4602460B4640464946E5
:104EF00001F0E4FBCDE9060102460B464046494677
:104F000001F0DCFB32463B4601F0D8FB52A3D3E96B
:104F1000002306460F46DDE9040101F083FD324619
:104F20003B4601F0CBFBDDE90689CDE902010246F3
:104F30000B464046494601F0C1FB0B46C1F30A57F8
:104F40000E460999CF1B0246312F8346CAE900233A
:104F50007ADD43A3D3E90023DDE9040101F062FD1A
:104F600006460F4602460B4640464946CDE90689AD
:104F700001F0A4FB02460B4680468946DDE90601A6
:104F800001F09CFB32463B4601F098FB36A3D3E987
:104F9000002306460F46DDE9040101F043FD3246D9
:104FA0003B4601F08BFB02460B46CDE9022334E77A
:104FB00001F086FB304B9F4204460D4626D02CA3C1
:104FC000D3E9002301F07CFB02460B46CAE900232B
:104FD0002946204601F072FB25A3D3E9002301F006
:104FE0006FFB4FF0FF35CAE90201B7E6DAF804209B
:104FF000DAF80C3002F1004203F100434542CAF8EE
:105000000420CAF80C30A9E6032392E610A3D3E9E2
:10501000002301F055FB10A3D3E900230D460446FD
:1050200001F04EFB02460B46CAE900232946204602
:1050300001F044FB08A3D3E9002301F041FB4FF04A
:10504000FF35CAE9020189E6DDE90689EFE600BF1E
:105050000000601A61B4D03D7370032E8A19A33B1F
:105060000000002E8A19A33BC14920259A837B3971
:105070003163621A61B4D03DFB21F93F2DE9F84359
:105080005D4EB6460E4076450C46054600F09580CE
:1050900000290B46024673DD0F157ED0A7F2FF37BD
:1050A000C3F31303F80743F4801364D403EBD27102
:1050B00000260B447F105200B64616204FF4001114
:1050C0000EEB01049C424FEAD2754FEA420203DC28
:1050D0001B1B04EB010E0E44013805EB43034FEAA2
:1050E0005101EDD1844620244FF0004109E020D049
:1050F00003EBD275013C4FEA51012B444FEA4202C7
:1051000020D09E4501EB0C05F1DA002D05EB010CDA
:1051100009DBF0469542CEEB030300D9013B521B5D
:105120000844C646E4E7BCF1000FF2DB0EF10108CB
:10513000F0E7954217D8002D05EB010C47DB9846A8
:105140000023ECE7134310D14008731003F17F53A1
:1051500003F50013F20703EB075948BF40F0004086
:105160004946BDE8F8837346C2E7411C33D000F0DE
:1051700001031844E8E75B0003EBD273520095E7A4
:1051800021F000460643ECD069BB0F46D30A153F19
:105190005205002BFAD0DD0220D4002100E00146A8
:1051A0005B00DC0201F10100F9D5C0F1200422FA14
:1051B00004F423437F1A824070E702460B4601F055
:1051C00031FC2A46234601F07BFABDE8F883BCF1A6
:1051D000000FABDAB3E701362046B6E720244FF0E4
:1051E000FF310020E3E702460B4601F067FA024672
:1051F0000B4601F041FDB4E70000F07F0000000025
:105200002DE9F04F21F00046B6F1795F85B00C46EC
:1052100092469B4605466BDA01F0B4FE002800F08A
:10522000E8802A4623462846214601F0FBFB74A36A
:10523000D3E900238046894601F0F4FB72A3D3E949
:10524000002301F03DFA42464B4601F0EBFB70A310
:10525000D3E9002301F032FA42464B4601F0E2FB6B
:105260006DA3D3E9002301F02BFA42464B4601F02F
:10527000D9FB6BA3D3E9002301F020FA42464B4649
:1052800001F0D0FB68A3D3E9002301F019FA4246EC
:105290004B4601F0C7FBCDE900010022644B4046BC
:1052A000494601F0BFFBDDE9002306460F464046B4
:1052B000494601F0B7FB5246804689465B46284680
:1052C000214601F0AFFB02460B464046494601F03D
:1052D000F5F902460B463046394601F0EFF9024631
:1052E0000B460020534901F0E9F905B0BDE8F08F05
:1052F00002460B4601F096FB41A3D3E9002380460A
:10530000894601F08FFB40A3D3E9002301F0D8F9CF
:1053100042464B4601F086FB3DA3D3E9002301F052
:10532000CDF942464B4601F07DFB3BA3D3E9002378
:1053300001F0C6F942464B4601F074FB38A3D3E9AD
:10534000002301F0BBF942464B4601F06BFB36A34C
:10535000D3E9002301F0B4F94B46424601F062FB69
:10536000354B9E42CDE9000197DD344B9E424FF014
:10537000000238DCA6F5001300202E4916461F4611
:1053800001F09CF9CDE902010022294B4046494633
:1053900001F048FB32463B4601F090F9DDE900237D
:1053A00006460F464046494601F03CFB52468046C1
:1053B00089465B462846214601F034FB02460B46EF
:1053C0004046494601F07AF902460B4630463946D6
:1053D00001F074F902460B46DDE9020101F06EF9B5
:1053E00005B0BDE8F08F164B164FCDE9022300261D
:1053F000CAE71049002005B0BDE8F08FAFF3008088
:10540000D43888BEE9FAA8BDC4B1B4BD9EEE213E31
:10541000AD529C804F7E923E9015CB19A001FA3E72
:105420007751C1166CC1563F4C5555555555A53F42
:105430000000E03F0000F03F3233D33F0000E93F7F
:105440000000E73F0000D23F2DE9F04FADF51D7D94
:10545000794CA69E794D54F8264009942646D41ED0
:1054600085FB0475E417C4EBA50424EAE4741D4627
:105470000C93631CA3EB8303013D02EBC30308936E
:105480002B460D940295651BF41804900A9116D4CE
:105490002C44013422AEA79F08E057F8250001F004
:1054A0005BFA0135A542E6E9020108D0002DF4DAE5
:1054B000013500200021A542E6E90201F6D1099B51
:1054C000002B31DB099A0C9B74A901EBC20BC3EBD7
:1054D0004373029A24A9DB0001EBC20901930DF585
:1054E000E47A029B002BC0F29081049BA3F1080593
:1054F000019B4C4609EB030800260027F5E902232F
:1055000074E8020101F08EFA02460B463046394635
:1055100001F0D6F8444506460F46EFD1EAE90267A6
:10552000DA4509F10809DCD1099D05F18043023B08
:105530009B001A1D10A90A440B440F920E939CABBA
:1055400003EBC503002D53E928672BDD9CAB03EB70
:10555000C504A83C0DF13C0A0DF5E47B0022384B54
:105560003046394601F05EFA01F00CFD01F0F4F925
:105570000022344B8046894601F054FA02460B461D
:105580003046394601F09AF801F0FCFC74E8022339
:105590004AF8040F4946404601F092F85C45064639
:1055A0000F46DBD1089C30463946224600F0FCFF0E
:1055B00000224FF07F5306460F4601F033FA00F009
:1055C00063FF0022204B01F02DFA02460B463046C5
:1055D000394601F073F80F46064601F0D3FC8146C8
:1055E00001F0BAF902460B463046394601F066F83A
:1055F000002C06460F4640F3EF80691E10AAC4F146
:10560000180352F8212042FA03F000FA03F3D31AE8
:1056100010AAC4F1170842F82130814443FA08F86F
:10562000B8F1000F3DDD002D09F1010940F3D682EC
:10563000002214460FA911E0747C4000ABAAAA2AEC
:105640000000703E0000704100002040C3F18070F7
:105650000BB108600124013295420DDD51F8043F81
:10566000002CF3D0C3F1FF13013203F57F439542C1
:105670000B604FF00104F1DC089B002B0DDD012BCA
:1056800000F0B280022B08D16A1E10AB10A953F8AB
:105690002230C3F3150341F82230B8F1020F00F0B5
:1056A0008280002200233046394601F023FC002886
:1056B00000F05E82099B05F1FF3B5B4510DC05F1C4
:1056C000804310AA013B0F9802EB8303002253F89A
:1056D0000419834242EA0102F9D1002A40F0B28063
:1056E000099B10AA013B52F82330002B40F0748232
:1056F0000E9A012352F8041901330029FAD0E9184F
:105700006A1C8A420B9149DC0D990C985118DB00F8
:1057100001F180410593A79B05440139E80003EBA3
:10572000810A24ABD20003EB000B74AB134401934A
:10573000A2F10803069007934FF000095AF8040FEE
:1057400001F00AF9029B002BEBE8020128DB069B23
:1057500003EB0904079B09EB030824AB1C449844A2
:10576000049B0026A3F108050027F5E9022374E84D
:10577000020101F057F902460B463046394600F067
:105780009FFF444506460F46EFD1019BE3E80267C1
:105790000193059B09F108099945CFD10B9DCEE6F0
:1057A00000260027F1E732463B460020B04900F0D2
:1057B00085FF06460F46002C3FF473AF089AAC49AC
:1057C000002000F0F1FE02460B463046394600F05C
:1057D00075FF06460F4664E710D16B1E10AA52F8FB
:1057E00023304FEAE3581BE76A1E10AB10A953F8A9
:1057F0002230C3F3160341F822304EE700229D4BBE
:1058000001F096FB58B980464BE700260027EAE9ED
:105810000267DA4509F108097FF463AE84E6002DDA
:1058200009F10109C8BF4FF002083FF701AF324646
:105830003B4600208E4900F041FF4FF0020806462B
:105840000F462EE710AB089A53F82B30CDF8149082
:10585000183ACDF8048008926BB90BF18043013BF4
:1058600010A901EB830353F804190BF1FF3B183A1D
:105870000029F8D00892089A7D49002000F094FE93
:10588000BBF1000F04460D46C0F2B8814FEACB03CE
:105890000DF5E87810AA02EB8B0608EB03090493D8
:1058A000043609F1080756F8040D01F055F82246B0
:1058B0002B4601F0B7F8002267E902016E4B204643
:1058C000294601F0AFF8B84504460D46EBD10DF579
:1058D000987A4B46CDF808A0DDF824A0CDF818B092
:1058E0004FF000099B46BAF1000FC0F22A81DFF8A1
:1058F0008C815D465CA3D3E90023002600270024A9
:1059000003E0A14510DBF8E90223F5E8020101F00C
:1059100089F802460B463046394600F0D1FE013484
:10592000A24506460F46ECDA029B03EBC903ABF136
:10593000080BC3E9006772AB5B4509F10109D2D1DD
:10594000A69BDDF818B0DDF808A0032B00F28380D9
:10595000DFE813F0D500960096000400BBF1000FBD
:1059600040F35681049BCDF808B00AEB0308D8E950
:105970000067D34658E9029A32463B4648465146AC
:1059800000F09EFE04460D4602460B464846514630
:1059900000F094FE32463B4600F092FEC8E900015A
:1059A00068E90245C34526462F46E3D1DA46DDF8CD
:1059B00008B0BBF1010F40F32B81049B5344D3E9A2
:1059C0000067984699460DF59C7B59E902343046AC
:1059D000CDE902341A463946234600F071FE0446EA
:1059E0000D4602460B46DDE9020100F067FE324635
:1059F0003B4600F065FEC9E9000169E90245CB4577
:105A000026462F46E1D1002308F108081D4650AC78
:105A10001846294678E9022300F052FE4445034621
:105A20000D46F5D1019A002A00F0DA800A9FDAF8D3
:105A30000440DAF80C20DAF80010DAF808003B61CC
:105A400005F1004504F1004402F100437D617C60F2
:105A5000FB603960B860059B03F007000DF51D7D04
:105A6000BDE8F08FAFF3008000000040FB21F93F5C
:105A70000000F03F0000E03F0000703E887C4000E6
:105A8000049C00260834544433463046194674E9D1
:105A9000022300F015FE544506460B46F5D1019A47
:105AA00030461946002A4FD00A9803F10044324686
:105AB00044600660DAE9000100F000FEBBF1000F6F
:105AC00002460B460DDD012410461946FAE9022371
:105AD00000F0F6FD0134A34502460B46F4DA0199C5
