:020000040040BA
:100000004857002011504000D9504000D9504000BE
:10001000D9504000D9504000D950400000000000A5
:1000200000000000000000000000000071554000CA
:10003000D95040000000000069564000A956400019
:10004000D9504000D9504000D9504000D95040000C
:10005000D9504000D9504000D95040000000000065
:10006000D9504000D950400000000000914C4000A1
:10007000A94C400000000000893640009D36400039
:100080000000000000000000D9504000853340000F
:1000900099334000D9504000D9504000D950400019
:1000A000D9504000D950400000000000000000007E
:1000B00000000000D9504000D9504000D950400005
:1000C000D9504000D9504000D950400010B5054CDF
:1000D000237833B9044B13B10448AFF300800123F4
:1000E000237010BD780400200000000084BF400091
:1000F000084B10B51BB108490848AFF30080084809
:10010000036803B910BD074B002BFBD0BDE81040BE
:10011000184700BF000000007C04002084BF40009E
:1001200084BF40000000000080B483B000AF78605E
:100130007B68072B25D801A252F823F05D0140000F
:1001400063014000690140006F01400073014000FD
:10015000770140007B0140007F0140004FF4FA43EB
:1001600010E04FF400430DE04FF400430AE0084B69
:1001700008E0084B06E0084B04E0074B02E0064BA2
:1001800000E0002318460C37BD4680BC704700BF16
:1001900000093D0000127A00001BB70080B500AFD7
:1001A0000620044B9847024613469B0013449B00CD
:1001B000184680BD2901400080B500AF024B98472A
:1001C00003465B08184680BD9D014000F0B58BB02A
:1001D00000AFF8607B600B46FB7213463B81FB7AF5
:1001E00023F00303DBB287F8243097F824305AB2A7
:1001F0003B891B0A9BB25BB203F003035BB2134360
:100200005BB2DBB287F824303B89DBB23B7501235C
:10021000BB617B68FB6197F840303B6207F11403D8
:100220001946F868154B9847154B984703461946E9
:100230004FF000020B461446A60046EA93769D0056
:100240002B4634465B1844EB020443F2AF614FF097
:1002500000025D1844EB020628463146094C43F281
:10026000B0624FF00003A04703460C461846064B09
:10027000984700BF2C37BD46F0BD00BF753A40001F
:10028000B9014000A9B540000100002080B58AB046
:1002900000AFF8607B600B46FB7213463B81FB7A34
:1002A00023F00303DBB287F8243097F824305AB2E6
:1002B0003B891B0A9BB25BB203F003035BB213439F
:1002C0005BB2DBB287F824303B89DBB23B7501239C
:1002D000BB617B68FB613B8E3B6207F114031946EF
:1002E000F868034B984700BF2837BD4680BD00BF64
:1002F0006939400080B588B000AF78603960682304
:100300003B7600233B720123FB6007F11C033B613A
:1003100003237B6107F1080319467868094B984766
:100320003B7F9AB23B681A803B6802337A7F92B275
:100330001A803B680433BA7F92B21A8000BF20371C
:10034000BD4680BD6939400080B582B000AF78609D
:100350000B46FB70FB781A4600217868024B9847E1
:1003600000BF0837BD4680BD1505400080B582B08E
:1003700000AF78600B46FB70FB781A460121786865
:10038000024B984700BF0837BD4680BD15054000A9
:1003900080B582B000AF78600B46FB70FB781A46E0
:1003A00002217868024B984700BF0837BD4680BDE0
:1003B0001505400080B588B000AF786039606823CB
:1003C0003B7603233B720123FB6007F11C033B6177
:1003D00004237B6107F10803194678680C4B9847A2
:1003E0003B7F9AB23B681A803B6802337A7F92B2B5
:1003F0001A803B680433BA7F92B21A803B68063396
:10040000FA7F92B21A8000BF2037BD4680BD00BF80
:100410006939400080B582B000AF78600B46FB7050
:10042000FB781A4603217868024B984700BF0837CB
:10043000BD4680BD1505400080B582B000AF786034
:100440000B46FB70FB781A4604217868024B9847EC
:1004500000BF0837BD4680BD1505400080B582B09D
:1004600000AF78600B46FB70FB781A460521786870
:10047000024B984700BF0837BD4680BD15054000B8
:1004800080B582B000AF78600B46FB70FB781A46EF
:1004900006217868024B984700BF0837BD4680BDEB
:1004A0001505400080B588B000AF78600B46FB7042
:1004B000FB78002B21D068233B760B233B72012372
:1004C000FB6007F11C033B6103237B6180233B77C7
:1004D00080237B778023BB7707F108031946786870
:1004E0000A4B984706220E217868094B98478022CC
:1004F0000F217868064B984704E004220E217868A3
:10050000034B984700BF2037BD4680BD753A400079
:100510001505400080B588B000AF78600B46FB70D1
:100520001346BB7068233B77FB783B7301233B6129
:10053000BB1C7B610123BB6107F10C031946786882
:10054000024B984700BF2037BD4680BD753A40003A
:1005500080B58AB000AFF8600B467A60FB72682302
:1005600087F82430FB7A3B750123BB617B68FB6114
:1005700001233B6207F114031946F868024B9847C0
:1005800000BF2837BD4680BD6939400090B583B0B3
:1005900000AF78600B46FB70F97800237F22786803
:1005A000114CA047F9780123062278680E4CA04729
:1005B000F97820237F2278680B4CA047F978312303
:1005C00014227868084CA047F97800231022786834
:1005D000054CA047F9783F2311227868024CA047C8
:1005E00000BF0C37BD4690BD6906400090B585B090
:1005F00000AFF8600B467A60FB72F97A00237F2225
:10060000F868174CA0477B680133F97A2D22F86807
:10061000144CA047F97A7B682E22F868114CA04749
:100620007B680333F97A2F22F8680E4CA0477B6869
:100630000233F97A3022F8680A4CA0477B68053308
:10064000F97A3122F868074CA0477B680433F97ABD
:100650003222F868034CA04700BF1437BD4690BD56
:1006600069064000B106400080B588B000AF7860F0
:10067000084611461A460346FB700B46BB701346EC
:100680007B70FB783B77BB783B7301233B617B1C22
:100690007B610123BB6107F10C0319467868034BAA
:1006A000984700BF2037BD4680BD00BF753A400067
:1006B00080B58AB000AFF8607B600B46FB721346D2
:1006C000BB72FB7A87F82430BB7A3B750123BB6190
:1006D0007B68FB6101233B6207F114031946F8684C
:1006E000024B984700BF2837BD4680BD693940009E
:1006F00080B58AB000AFB9607B600346FB731346D8
:10070000BB730023FB830023BB8300237B83002375
:100710003B830023FB840023FB75002387F82530EF
:10072000002387F82430002387F82330002387F83C
:100730002230002387F82130BB681B78FA7B9A426D
:1007400004D0BB681B78002B40F0FB81BB7B013BD6
:10075000BA6813441B781B021AB2BB7B023BB96810
:100760000B441B781BB213431BB2BB83BB7B023B06
:10077000DBB21946B868904B98470346FB83FA8B67
:10078000BB8B9A4240F0E081BB685B78FB75FB7DD8
:10079000062B00F0A980102B00F01481032B40F0F1
:1007A000C281BB6804331B781B021AB2BB680533D5
:1007B0001B781BB213431BB23B833B8B002B00F017
:1007C00088803B8B7D2B00F28480BB6802331B78D2
:1007D0001B021AB2BB6803331B781BB213431BB254
:1007E0007B837A8B3B8B13442A2B68DC7B68FA7BF8
:1007F0001A707B68013303221A707B6802333A8BCC
:10080000D2B25200D2B21A70032387F822300023EA
:1008100087F8213028E097F822305A1C87F82220E8
:100820001A467B681344798B97F821200A44634960
:1008300031F81220120A92B2D2B21A7097F822300E
:100840005A1C87F822201A467B681344798B97F844
:1008500021200A44594931F81220D2B21A7097F86F
:100860002130013387F8213097F821309BB23A8B41
:100870009A42D0D897F82230194678684E4B98475C
:100880000346FB8397F822305A1C87F822201A4629
:100890007B681344FA8BD2B21A7097F822305A1C34
:1008A00087F822201A467B681344FA8B120A92B208
:1008B000D2B21A703B6B97F822201A7013E0012312
:1008C00087F82530832387F82430022387F82330E4
:1008D00009E0012387F82530832387F82430032398
:1008E00087F823302CE12BE1BB6804331B781B0213
:1008F0001AB2BB6805331B781BB213431BB2FB84CF
:10090000BB6802331B781B021AB2BB6803331B7827
:100910001BB213431BB27B837B8B2A2B41D87B8B6F
:100920002649FA8C21F813207B68FA7B1A707B68C1
:10093000013306221A707B680233BA6892781A7003
:100940007B680333BA68D2781A707B680433BA685C
:1009500012791A707B680533BA6852791A700621C9
:100960007868154B98470346FB837B680633FA8B00
:10097000D2B21A707B680733FA8B120A92B2D2B2E3
:100980001A703B6B08221A700D4B1B68002B00F08D
:10099000D6800B4B1B687A8BD1B20122074898474F
:1009A000CDE0012387F82530862387F82430022301
:1009B00087F82330C3E000BFA90B40009404002057
:1009C00030270020BB6804331B781B021AB2BB68B7
:1009D00005331B781BB213431BB23B833B8B002BAD
:1009E00000F096803B8B7D2B00F29280BB68023337
:1009F0001B781B021AB2BB6803331B781BB213436C
:100A00001BB27B837A8B3B8B13442A2B76DC7B686F
:100A1000FA7B1A707B68013310221A707B680233EC
:100A2000BA6892781A707B680333BA68D2781A7001
:100A30007B680433BA6812791A707B680533BA6828
:100A400052791A7006217868544B98470346FB8305
:100A50007B680633FA8BD2B21A707B680733FA8B45
:100A6000120A92B2D2B21A703B6B08221A70BB689B
:100A700006331B789BB207333B83002387F8213072
:100A8000072387F822302AE097F8223003F0010389
:100A9000DBB2002B08D097F82230BA6813441B78D9
:100AA0009BB21B02FB8415E097F82230BA6813440E
:100AB0001B789AB2FB8C1343FB847A8B97F8213016
:100AC00013443749FA8C21F8132097F82130013369
:100AD00087F8213097F82230013387F8223097F8D1
:100AE00022309BB23A8B9A42CED82E4B1B687A8B1F
:100AF000D1B297F821202A48984713E0012387F8BC
:100B00002530902387F82430022387F8233009E02A
:100B1000012387F82530902387F82430032387F8B2
:100B200023300DE00CE0FB7D63F07F0387F8243079
:100B3000012387F82330012387F8253000E000BF28
:100B400002E03B6B00221A7097F82530002B21D071
:100B50007B68FA7B1A707B68013397F824201A703F
:100B60007B68023397F823201A70032178680B4BB7
:100B700098470346FB837B680333FA8BD2B21A7023
:100B80007B680433FA8B120A92B2D2B21A703B6BB2
:100B900005221A7000BF2837BD4680BDA90B400052
:100BA000940400203027002080B485B000AF786026
:100BB0000B46FB704FF6FF73FB8100237B73002312
:100BC0003B7300237B7326E07B7B7A6813441B789E
:100BD0009AB2FB895340FB8100233B7315E0FB89EC
:100BE00003F00103002B0AD0FB895B08FB81FB8922
:100BF00083F4BF4383F07E03DB43FB8102E0FB8988
:100C00005B08FB813B7B01333B733B7B072BE6D9C6
:100C10007B7B01337B737A7BFB789A42D4D3FB894D
:100C200018461437BD4680BC704700BF80B483B0FF
:100C300000AF78607B68072B25D801A252F823F01B
:100C4000610C4000670C40006D0C4000730C4000CC
:100C5000770C40007B0C40007F0C4000830C400070
:100C60004FF4FA4310E04FF400430DE04FF400431B
:100C70000AE0084B08E0084B06E0084B04E0074B8D
:100C800002E0064B00E0002318460C37BD4680BC4E
:100C9000704700BF00093D0000127A00001BB7003A
:100CA00080B500AF0620044B9847024613469B00D0
:100CB00013449B00184680BD2D0C400080B500AF4A
:100CC000024B984703465B08184680BDA10C4000C4
:100CD00080B500AF024B984703465B08184680BDBD
:100CE000A10C400080B582B000AF78607868034BFB
:100CF000984700BF0837BD4680BD00BF914F4000F8
:100D000080B483B000AF786039607B680B2B13D15F
:100D10003B68012B10D10B4B1B8E002B0DD10A4BC6
:100D20001B78DBB2022B08D8074B1B78DBB20133F0
:100D3000DAB2054B1A7000E000BF0C37BD4680BC2C
:100D4000704700BF94040020EB04002080B584B0FD
:100D500000AF78600023FB7369211648164B984753
:100D600001211448154B984707F10F031A460F212C
:100D70001048134B9847FB7B03F00203002B04D071
:100D800000220F210B480F4B98470F4B1B8E002B57
:100D90000AD10E4B1B78DBB2022B07D90C4B9847BC
:100DA0000A4B00221A7001E00A4B984728200A4B90
:100DB0009847D9E7008001408D054000A504400018
:100DC000510540001505400094040020EB0400206C
:100DD000ED134000151840003D63400080B500AFA2
:100DE000044B9847044B98472220044B984700BF78
:100DF00080BD00BF9D134000010E40000147400030
:100E000090B58FB002AF3A462523009313460022D7
:100E100050219648964CA04797F82430AB2B40F0D1
:100E200093817B789AB2934B1A82924B1B8A1B0256
:100E30001AB23B781BB213431BB29AB28D4B1A8283
:100E4000FB789AB28B4B5A828A4B5B8A1B021AB28E
:100E5000BB781BB213431BB29AB2864B5A827B7982
:100E60009AB2844B9A82834B9B8A1B021AB23B79BB
:100E70001BB213431BB29AB27E4B9A82FB799AB291
:100E80007C4BDA827B4BDB8A1B021AB2BB791BB22A
:100E900013431BB29AB2774BDA827B7A9AB2754BC4
:100EA0001A83744B1B8B1B021AB23B7A1BB213437F
:100EB0001BB29AB26F4B1A83FB7A9AB26D4B5A836C
:100EC0006C4B5B8B1B021AB2BB7A1BB213431BB277
:100ED0009AB2684B5A837B7B9AB2664B9A87654B72
:100EE0009B8F1B021AB23B7B1BB213431BB29AB2FD
:100EF000604B9A87FB7B9AB25E4BDA875D4BDB8F48
:100F00001B021AB2BB7B1BB213431BB29AB2594BE2
:100F1000DA877B7C9AB2574BA3F84020554BB3F845
:100F200040301B021AB23B7C1BB213431BB29AB275
:100F3000504BA3F84020FB7C9AB24E4BA3F84220C2
:100F40004C4BB3F842301B021AB2BB7C1BB21343AA
:100F50001BB29AB2474BA3F842207B7D9AB2454B15
:100F60009A84444B9B8C1B021AB23B7D1BB21343E9
:100F70001BB29AB23F4B9A84FB7D9AB23D4BDA8406
:100F80003C4BDB8C1B021AB2BB7D1BB213431BB262
:100F90009AB2384BDA847B7E9AB2364BA3F844205F
:100FA000344BB3F844301B021AB23B7E1BB21343DE
:100FB0001BB29AB22F4BA3F84420FB7E9AB22D4B62
:100FC000A3F846202B4BB3F846301B021AB2BB7E67
:100FD0001BB213431BB29AB2264BA3F846207B7F69
:100FE0009AB2244BA3F84820224BB3F848301B0296
:100FF0001AB23B7F1BB213431BB29AB21D4BA3F82C
:101000004820FB7F9AB21B4BA3F84A20194BB3F838
:101010004A301B021AB2BB7F1BB213431BB29AB2F7
:10102000144BA3F84A2097F820309AB2114BA3F83A
:101030004C2097F821309AB20E4BA3F84E2097F827
:1010400022309AB20B4BA3F8502097F823309AB273
:10105000084BA3F85220084BFB62FB6A0233054A97
:10106000528A1A80034B1A8A08E000BF00800140B0
:101070008D024000940400200C000020FB6A1A80BE
:10108000294BFB62FB6A0233284AD28A1A80274B1B
:101090009A8AFB6A1A80264BFB62FB6A0233234A58
:1010A000528B1A80214B1A8BFB6A1A80214BFB62F0
:1010B000FB6A02331D4AB2F842201A801B4BB3F878
:1010C0004020FB6A1A801C4BFB62FB6A0233174A02
:1010D000D28F1A80154B9A8FFB6A1A80174BFB62CE
:1010E000FB6A0233114AD28C1A80104B9A8CFB6A2D
:1010F0001A80134BFB62FB6A02330C4AB2F846209B
:101100001A800A4BB3F84420FB6A1A800D4BFB622D
:10111000FB6A0233054AB2F84A201A80034BB3F83F
:101120004820FB6A1A8009E1100000209404002086
:10113000140000201C0000201800002020000020C7
:1011400024000020280000207E4B7F4A1A607F4B3D
:101150007F4A1A607F4B804A1A60804B804A1A602F
:10116000804B4FF080421A607F4B804A1A60804B60
:10117000804A1A60804B814A1A60724BFB62FB6A9C
:101180005A887F4B5A82FB6A1A887D4B1A826F4BB2
:10119000FB62FB6A5A887A4BDA82FB6A1A88784BC0
:1011A0009A826C4BFB62FB6A5A88754B5A83FB6AC6
:1011B0001A88734B1A836B4BFB62FB6A5A88704B1D
:1011C000A3F84220FB6A1A886D4BA3F84020634BBA
:1011D000FB62FB6A5A886A4BDA87FB6A1A88684B9B
:1011E0009A87614BFB62FB6A5A88654BDA84FB6A1B
:1011F0001A88634B9A845E4BFB62FB6A5A88604B89
:10120000A3F84620FB6A1A885D4BA3F844205A4B8A
:10121000FB62FB6A5A885A4BA3F84A20FB6A1A8879
:10122000574BA3F84820564B0022A3F84C20544BB0
:101230000122A3F84E20524B0222A3F85020504B1B
:101240000022A3F852203F4BBB6204230093BB6AE9
:10125000002250214B484C4CA0473C4BBB6204231E
:101260000093BB6A042250214648474CA047394BA3
:10127000BB6204230093BB6A082250214148424CC0
:10128000A047384BBB6204230093BB6A1022502155
:101290003C483D4CA047314BBB6204230093BB6AE2
:1012A0000C2250213748384CA0472F4BBB620423F7
:1012B0000093BB6A142250213248334CA0472C4B78
:1012C000BB6204230093BB6A182250212D482E4C88
:1012D000A047294BBB6204230093BB6A1C22502108
:1012E0002848294CA04701230093284B2022502155
:1012F0002448254CA04701230093254B212250214F
:101300002048214CA04701230093224B2222502148
:101310001C481D4CA047012300931F4B2322502142
:101320001848194CA047AB233B703A460123009361
:101330001346242250211348134CA04700BF3437D2
:10134000BD4690BD0C00002088BA8B4110000020E3
:1013500053E19C42140000200000B040180000201F
:101360000000A0401C0000202000002000002C42B3
:1013700024000020577AED3C280000209A99C93FAC
:101380009404002000800140CD014000E0040020D2
:10139000E2040020E4040020E604002080B584B0CC
:1013A00000AF0C4B984703467B600B4BBB600023A0
:1013B0003B7300237B731320084B98470848094B65
:1013C00098473B1D19460648074B984700BF103702
:1013D000BD4680BDD10C4000801A0600E50C4000DF
:1013E0000080014091374000B537400080B584B09F
:1013F00000AF514B984751495148524B9847524979
:101400004F48524B9847524B9847F860514B1B78C6
:10141000002B2AD1504B1B6883F000424F4BF968D8
:10142000104698470346002B12D04B4B1A684B4B83
:101430001146F86898470346002B09D0F868484BD6
:101440009847484AFB681360474B01221A7060E0D6
:10145000404B01221A70444B1B78002B59D1434B4F
:101460009847414B01221A7053E0414B4149F868BB
:1014700098470346002B35D0384B3F49F8689847CA
:101480000346002B2ED0F8683C4B9847B860324B8F
:101490001B6883F00042314BB968104698470346F9
:1014A000002B16D02C4B1A682C4B1146B868984765
:1014B0000346002B0DD02B4ABB681360B868284B3D
:1014C00098472F4B1B78002B0CD12D4B01221A7003
:1014D00008E02B4B1B78002B04D02A4B9847284B55
:1014E00000221A701C4B1B6883F000421B4BF968EA
:1014F000104698470346002B0BD0174B1A68174B22
:101500001146F86898470346002B02D0114B002281
:101510001A70144B7B607B685A88084B5A847B682E
:101520001A88064B1A84184B00221A70174B9847DA
:1015300000BF1037BD4680BD055640009404002012
:1015400000800140F50240009A040020B5034000ED
:10155000B11A4000E80400202000002021B540001E
:1015600091154000EC040020EA040020A92D400061
:1015700035B540000000B4C20000B442D527400099
:10158000E9040020352D4000EB04002025564000E2
:101590002DE9F04B8CB000AF786007F11403002206
:1015A0001A609A804FF00003FB62002387F82B300B
:1015B0004FF000033B6207F114031A466921854886
:1015C000854B984707F1080207F1140311461846A6
:1015D000824B9847BA68824B114678689847034611
:1015E000FB62804B4FF00001F86A98470346002BDE
:1015F00006D020207C4B984721207C4B984705E063
:1016000020207A4B98472120774B984701231C468E
:10161000774B4FF03F41F86A98470346002B01D1C2
:1016200000231C46E3B283F00103DBB2002B12D18E
:1016300001231C466F4B4FF07C51F86A98470346D4
:10164000002B01D100231C46E3B283F00103DBB27F
:10165000002B00F086802220644B984781E04FF0F9
:1016600000033B62002387F82B3058E007F1140396
:101670001A4669215748584B984707F1080207F165
:10168000140311461846554B9847BA68544B396AAB
:101690001046984703461C4697F82B305A1C564B69
:1016A000104698470246554B114620469847034638
:1016B0001A46534B396A1046984703467B627B6A49
:1016C0003B62504B984703464FF000044FEAC40971
:1016D00049EA53794FEAC30843464C46A60046EA16
:1016E00093769D005B1944EB060443F2AF614FF023
:1016F000000213EB010B44EB020C58466146424CCE
:1017000043F2B0624FF00003A04703460C46184670
:101710003E4B984797F82B30013387F82B3097F8DA
:101720002B30072BA2D97B6ABB60BA682C4B1146C1
:10173000786898470346FB622A4B4FF00001F86A2D
:1017400098470346002B06D02020274B984721209E
:10175000264B984705E02020244B98472120224B18
:10176000984701231C46224B4FF03F41F86A9847A7
:101770000346002B01D100231C46E3B283F0010392
:10178000DBB2002B7FF46BAF01231C46194B4FF0EB
:101790007C51F86A98470346002B01D100231C4670
:1017A000E3B283F00103DBB2002B7FF458AF2220B9
:1017B0000D4B984707F10803FB61FB695A88144BEE
:1017C000DA83FB691A88124B9A8300BF3037BD4613
:1017D000BDE8F08B00800140ED054000211940007C
:1017E000BDAF400049B5400001474000D146400030
:1017F00035B540000DB5400029B1400039B3400077
:10180000C1AF4000BD0C4000A9B540000100002060
:101810009404002080B588B000AF0023BB82002371
:10182000FB8200233B834FF000037B60304931484B
:10183000314B984731492F48314B984707F11403F2
:101840001A4669212B482F4B984707F1080207F1E8
:101850001403114618462C4B984707F10803FB6107
:10186000FB695A88224BDA83FB691A88204B9A83DA
:10187000264B984703467B603B1DFB61FB695A88FA
:101880001B4B5A84FB691A88194B1A84184B1B8E00
:10189000012B1CD1164B5B8E002B06D020201C4B3D
:1018A000984721201B4B984705E02020194B98476B
:1018B0002120174B98470E4B9B8E002B03D02220E4
:1018C000144B984710E02220114B98470CE0084B2E
:1018D0001B8E022B02D1104B984705E0044B1B8E48
:1018E000032B01D10D4B984700BF2037BD4680BD6B
:1018F0009404002000800140F50240009A0400207A
:10190000B5034000ED05400021194000B11A400028
:1019100001474000D1464000B9294000512B40000A
:10192000F0B587B000AF786039607B68B3F900200C
:10193000554B104698470246544B4FF08E41104687
:1019400098470346FB607B680233B3F900204E4B97
:101950001046984702464D4B4FF08E41104698472F
:1019600003463B617B680433B3F90020464B1046C5
:1019700098470246454B4FF08E4110469847034624
:101980007B613A69424B1046984704460D467A6996
:101990003F4B1046984702460B46204629463D4C91
:1019A000A0470A4601463C4B084611469847024666
:1019B0003B681A603B681A68384B394910469847AB
:1019C00003461A46314B37491046984703461A4694
:1019D0003B681A603B681C1D3A6939692F4B1046F9
:1019E000984703461D467A6979692C4B10469847FB
:1019F00003461A462C4B11462846984703461A467A
:101A0000234B1046984702460B4610461946274B73
:101A100098470A460146204B084611469847034618
:101A200023603B681C1DFB6883F00042184B104686
:101A3000984705460E463B6804331A68144B104617
:101A4000984702460B4628463146124DA8470A469B
:101A50000146114B084611469847034623603B68F0
:101A60001C1D3B6804331A680C4B0D4910469847FF
:101A700003461A46054B0B49104698470346236018
:101A800000BF1C37BD46F0BD29B1400039B340004E
:101A9000BDA840001D80400015AF4000D1B14000FE
:101AA00000003443DB0F4940C1AF400021804000BB
:101AB0002DE9F043AFB000AF4A4B1B891B099BB225
:101AC0001A46920013445B009AB2464B1B8903F0FE
:101AD0000F039BB213449BB2A7F8AE30414B5B8916
:101AE0001B099BB21A46920013445B009AB23D4B0D
:101AF0005B8903F00F039BB213449BB2A7F8AC3091
:101B0000384B9B891B099BB21A46920013445B0019
:101B10009AB2344B9B8903F00F039BB213449BB2E0
:101B2000A7F8AA30B7F8AA3003F5FA639BB2A7F872
:101B3000AA302C4B9B881B099BB21A469200134477
:101B40005B009AB2274B9B8803F00F039BB21344B0
:101B50009BB2A7F8A830234B5B881B099BB21A469F
:101B6000920013445B009AB21E4B5B8803F00F0394
:101B70009BB213449BB2A7F8A6301A4B1B881B09D3
:101B80009BB21A46920013445B009AB2154B1B8815
:101B900003F00F039BB213449BB2A7F8A430B7F92C
:101BA000A8304FF4616202FB03F1B7F9A620134697
:101BB0001B019B1A9B00CA18B7F9A4301A440A4BA0
:101BC000104698470246094B094910469847034674
:101BD000C7F8A030B7F9AC30022B0BDC0123C7F8F3
:101BE000B4300AE09404002029B1400039B3400029
:101BF00000C0A8470023C7F8B430D7F8B420134674
:101C00005B0013449B00C7F89C30D7F89C30033B23
:101C1000C7F89830B7F9AC20D7F898301344C7F814
:101C20009430D7F8B430C3F59653C7F89030B7F96D
:101C3000AA20D7F890301344C7F88C30D7F89420F6
:101C40001346DB0013441A011344C7F88830D7F851
:101C500088300233C7F884308A4BD7F8840098471D
:101C60000246894B8949104698470346C7F8803099
:101C7000B7F9AE20834B104698470246844BD7F8FD
:101C80008010104698470346FB67D7F88C3040F227
:101C90006D1202FB03F3BB677A4BB86F984702469D
:101CA0007B4BF96F1046984703467B67754BD7F817
:101CB0008C0098470246744B4FF08141104698477C
:101CC00003463B67724B396F786F98470346FB6654
:101CD0006C4BD7F88C00984702466B4B6D49104609
:101CE00098470346BB666C4BB96EF86E984703463F
:101CF0007B66644BD7F88C0098470246624B674975
:101D00001046984703463B66614B396E786E98479C
:101D10000346FB65604B6249F86D98470346BB6517
:101D2000B7F9A8300C3B7B65564B786D9847024657
:101D3000554B5C491046984703463B65B7F9A620CA
:101D4000504B1046984702464F4B5749104698470C
:101D50000346FB644E4BF96C386D98470346BB64F1
:101D6000B7F9A420474B104698470246464B4F49C7
:101D70001046984703467B64454B796CB86C98478E
:101D800003463B64424B396CB86D98470346FB638E
:101D9000414B4749F86B984703461A463A4B454929
:101DA000104698470346BB63434B4449B86B98477A
:101DB00003461A46364B42491046984703461A4690
:101DC0003D4BB96B1046984703461A46304B3D4988
:101DD0001046984703461A463B4B10469847034621
:101DE0003A4A83FB02121A441112DA178A1A4FF484
:101DF000B47101FB02F29A1A224B1046984703462F
:101E00007B632D4B3249B86B984703461A46224BE9
:101E100011463048984703461A46274BB96B10467F
:101E2000984703461A461A4B2B49104698470346D3
:101E30003B63214B2949B86B984703461A46144B1C
:101E400027491046984703461A461B4BB96B104664
:101E5000984703461A46104B1146224898470346B6
:101E6000FB62386B204B98470246204B1046984740
:101E700003460C46184621461D4B984705460E461C
:101E80000D4B37E029B1400039B340000000A040BD
:101E9000C1AF40000000C842BDAF40000000C843D1
:101EA000005AFA460000C0410000B44400C0A847F0
:101EB00064A1154A00AD0E47D1B14000D1F69E395C
:101EC000C5A00C47B53B8C435DB54000B7600BB671
:101ED000882A21390D9F0C47BAC3B243080B083436
:101EE000E35030388CE0883C49294000BDA84000D0
:101EF000D97D40009449B86B984703461A46934BE6
:101F000093491046984703461A46924BB96B1046C0
:101F1000984703461A46904B114690489847034607
:101F20001A468F4B1046984702460B468D4C284662
:101F30003146A04703460C46194622468A4B0846BE
:101F4000114698470346BB62854BB86A98470546D9
:101F50000E463A6B7D4B114610469847034618468D
:101F6000824B984702467E4B1046984703460C46E4
:101F7000184621467E4B984780468946754B7D49D9
:101F8000B86B984703461A46734B11467A489847F0
:101F900003461A46724B1046984702460B46714C50
:101FA00040464946A04703460C461A462346734C12
:101FB00028463146A04703460C46194622466A4B3E
:101FC0000846114698470346BB62654BB86A984776
:101FD00005460E465F4B6A49386B984703461846DC
:101FE000624B984702465E4B1046984703460C46A4
:101FF000184621465E4B98475A4C4FA3D3E900231D
:10200000A04703460C461A4623465C4C28463146F8
:10201000A04703460C4619462246534B0846114634
:1020200098470346BB62494BB96A786B98470346A9
:102030007B62494B5349786A984703461A46484B96
:102040001046984705460E46424B4F49B86B984795
:1020500003461A46404B11464C48984703461846DB
:10206000424B984702463E4B1046984703460C4663
:10207000184621463E4B98473A4C31A3D3E90023FA
:10208000A04703460C461A462346414C2846314693
:10209000A04703460C4619462246334B08461146D4
:1020A000984703463B622B4B3A49B86B9847034627
:1020B0001A46294B11463848984703461A46254B7D
:1020C000B96B1046984703461A46204B33491046D1
:1020D000984703461A461F4BB96B1046984703466C
:1020E0001A461D4B11462E48984703461A462D4B5B
:1020F0002D491046984703461A46144B2B49104663
:10210000984703461A46274B2749104698470346E7
:102110001A460E4B2649104698470346FB61104B62
:10212000F869984705460E460A4B1749B86B984719
:1021300003463FE0AFF30080000000809DF0323F97
:10214000000000803194733F8BE16A37C1AF4000DB
:10215000EDD79D3BD1B14000BDAF4000AE11F53F82
:10216000BDA8400065A9400015AF400049294000C6
:10217000D97D4000F6CFD3385CC8A33C01A640000F
:10218000000040402E73BA3B5AC4F1447B14FA421B
:10219000FDA540002FA2ED3A3BAA1A3A8F423B42DE
:1021A0008195AB4139B34000000070420000D0413E
:1021B0000000B8411A46A24B1146A2489847034670
:1021C0001846A14B98470246A04B10469847034635
:1021D0000C46184621469E4B98479E4C96A3D3E941
:1021E0000023A04703460C461A4623469A4C28462D
:1021F0003146A04703460C4619462246974B0846EF
:10220000114698470346BB61B8698F4B9847024611
:102210008E4B1046984703460C4618462146904B75
:10222000984705460E46386A874B98470246874BC3
:102230001046984703460C4618462146884B984757
:1022400002460B46834C28463146A04703460C46BF
:1022500018462146834B98470A4601467F4B08465D
:1022600011469847034618467F4B984778617F4B45
:102270004FF08041B869984703461846724B98471B
:102280000246724B1046984703460C4618462146B4
:10229000774B984705460E46744B4FF08041B8691E
:1022A000984703461846684B98470246674B1046C6
:1022B000984703460C46184621466D4B9847024600
:1022C0000B46644C28463146A04703460C46194647
:1022D0002246624B08461146984703463B615B4BDA
:1022E0003869984705460E46786B574B9847024623
:1022F000604B11461046984703461A46534B10460A
:10230000984703460C4618462146554B98470246C7
:102310000B46504C28463146A04703460C461D4606
:102320002646FA6A534B11461046984703461A460A
:10233000464B1046984780468946386B424B984733
:102340000246424B1046984703460C461846214623
:10235000434B984702460B463E4C40464946A047F1
:1023600003460C461A462346434C28463146A047AE
:1023700003460C461D462646404B4FF08141F86A05
:10238000984703461A463D4B39691046984703461D
:102390001A462E4B1046984780468946386B2A4B82
:1023A00098470246294B1046984703460C46184664
:1023B00021462B4B984702460B46264C4046494641
:1023C000A04703460C469846A146786B1E4B98479B
:1023D0000246284B11461046984703461A461B4BA7
:1023E0001046984703460C4618462146184B984716
:1023F00002460B46174C40464946A04703460C464A
:102400001A462346144C28463146A04703460C463C
:102410001D462646194B4FF07C51386998470346B4
:102420001A46164B39691046984703461A46074B19
:10243000104625E0AFF3008000000080B5F8643F4F
:10244000BDAF40007B14FA4249294000BDA84000BE
:10245000457D400065A9400001A6400015AF400041
:10246000D97D40006D7F40008129400039B3400094
:10247000617E4000C1AF4000FDA54000D1B14000E9
:10248000984780468946786B9E4B984702469E4BFC
:102490004FF081411046984703461A469B4B104621
:1024A000984703460C4618462146994B98470246E2
:1024B0000B46984C40464946A04703460C461A46F0
:1024C0002346954C28463146A04703460C461D46F8
:1024D00026468D4B9149F86A984703461A468A4B1F
:1024E000F96A1046984703461A46884B10469847A3
:1024F00080468946386B834B98470246884B114685
:102500001046984703461A46804B104698470346A4
:102510000C46184621467E4B984702460B467D4C9A
:1025200040464946A04703460C461A4623467A4C85
:1025300028463146A04703460C4619462246794BA9
:1025400008461146984703461846774B9847024677
:102550006D4B4FF08141104698470346FB6073482E
:10256000684B98470246694B1046984703460C460D
:10257000184621466E4B984705460E466D4B1B6824
:102580001846604B98470246604B104698470346F2
:102590000C4618462146664B98478046894678691E
:1025A000584B98470246594B1046984703460C46ED
:1025B000184621465E4B984702460B46554C40460E
:1025C0004946A04703460C461A4623465A4C28461D
:1025D0003146A04703460C461D462646554B1B6810
:1025E0001846484B98470246484B104698470346C2
:1025F0000C4618462146514B9847804689467869D3
:10260000404B98470246414B1046984703460C46BC
:1026100018462146494B984702460B463D4C4046DA
:102620004946A04703460C461A4623463A4C2846DC
:102630003146A04703460C4618462146404B984772
:102640000A460146374B0846114698470346184646
:10265000354B9847B8602C4B3A49D7F8A0009847BB
:1026600003461A462E4BF9681046984703461C4607
:10267000354B1A68244B4FF081411046984703466A
:102680001A46274B11462046984703461C462F4BB7
:102690001A681D4B2E491046984703461A462D4B83
:1026A00011462046984703461A462B4B104698473A
:1026B00003462A4A83FB02121A449112DA178A1A35
:1026C0004FF4B46101FB02F29A1A254B1046984769
:1026D00003467B60234B4FF081417868984703465F
:1026E0001A46214B4FF00001104698470346002B35
:1026F00044D01C4B4FF081417868984703461A46F6
:1027000034E000BF49294000D1B14000BDA84000DD
:10271000D97D400065A94000FDA540000000A03F14
:10272000C1AF400015AF4000812940007FAAB542EB
:10273000457D40000C000020B9AB4000617E4000A8
:10274000BD7E40000000B4441000002014000020B2
:1027500000007042BDAF40005DB54000B7600BB6F1
:1027600029B1400039B340000DB54000134B144966
:10277000104698470346C7F8B0300DE0114B4FF0B4
:1027800081417868984703461A460F4B0C4910461A
:1027900098470346C7F8B0300A4BB9680B489847CA
:1027A00003461A460A4BD7F8B0101046984703461E
:1027B0001846BC37BD46BDE8F08300BFC1AF40003E
:1027C0000000344339B34000BDAF40000000B442C4
:1027D000D1B1400090B585B000AF7860464B474915
:1027E000786898470346FB60454B1A68454B11468D
:1027F000F86898470346FB60434B1A68434B114601
:10280000F86898470346FB60414BF86898470346D1
:102810000C46184621463F4B98470A4601463E4B18
:102820000846114698470346FB603C4B1A68324BFA
:102830001146F86898470346FB60394B1A68394BD4
:102840001146F86898470346FB60374B4FF07E51BE
:10285000F86898470346002B48D02D4BF8689847F6
:1028600003460C4618462146304B98470A46014617
:10287000294B0846114698470346FB601E4B2C49DE
:10288000F86898470346FB602A4B2B4978689847BD
:102890000346002B12D0244B4FF000017868984774
:1028A0000346002B0AD0FB6883F000421D4B4FF01B
:1028B0008041104698470346FB6015E01D4B4FF0E2
:1028C0000001786898470346002B0DD01B4B1C492C
:1028D000786898470346002B06D0124B4FF0804192
:1028E000F86898470346FB60FB6800E0154B184604
:1028F0001437BD4690BD00BFD1B14000E7088F3C02
:1029000028000020C1AF400024000020BDAF4000DF
:10291000BDA84000D97D400015AF40001800002040
:102920001C00002039B340000DB540006D7F400011
:10293000E62E654235B540000000B4C221B5400026
:102940000000B4420000C07F80B582B000AF786064
:10295000074B08497868984703461A46064B0749CB
:1029600010469847034618460837BD4680BD00BF4D
:10297000D1B14000DB0F494039B34000000034437F
:1029800080B582B000AF7860074B084978689847F7
:1029900003461A46064B0749104698470346184611
:1029A0000837BD4680BD00BFD1B1400000003443B0
:1029B00039B34000DB0F49402DE9F04B8AB000AF3E
:1029C00007F1100300221A609A804FF00003BB61E8
:1029D000002387F827304FF000033B624FF00003DD
:1029E000FB61002387F8273057E007F110031A46F0
:1029F00069214748474B98473A1D07F11003114694
:102A00001846454B98477A68444BF96910469847F1
:102A100003461C4697F827305A1C414B10469847EE
:102A20000246404B11462046984703461A463E4B05
:102A3000F9691046984703463B623B6AFB613B4B92
:102A4000984703464FF000044FEAC40949EA537916
:102A50004FEAC30843464C46A60046EA93769D00DB
:102A60005B1944EB060443F2AF614FF0000213EB35
:102A7000010B44EB020C584661462D4C43F2B06208
:102A80004FF00003A04703460C461846294B9847D1
:102A900097F82730013387F8273097F82730072B2E
:102AA000A3D93B6A7B607B6883F00043BB61012351
:102AB0001C46214B2149B86998470346002B01D198
:102AC00000231C46E3B283F00103DBB2002B11D1DB
:102AD00001231C461A4B4FF07E51B86998470346B4
:102AE000002B01D100231C46E3B283F00103DBB2CB
:102AF000002B07D0134B98474FF00000124B98471C
:102B0000124B984700BF2837BD46BDE8F08B00BF89
:102B100000800140ED05400021194000BDAF40009C
:102B200029B1400039B34000C1AF4000BD0C4000A6
:102B3000A9B540000100002035B54000000080BF6D
:102B40000DB5400005564000911540002556400047
:102B50002DE9F04B8AB000AF07F1100300221A6094
:102B60009A804FF000037B62002387F823304FF0F8
:102B70000003FB614FF00003BB615C4B98470023EF
:102B800087F8233057E007F110031A4669215848A7
:102B9000584B98473A1D07F1100311461846564BFB
:102BA00098477A68554BB9691046984703461C46C2
:102BB00097F823305A1C524B104698470246514B07
:102BC00011462046984703461A464F4BB9691046AE
:102BD00098470346FB61FB69BB614C4B9847034632
:102BE0004FF000044FEAC40949EA53794FEAC30899
:102BF00043464C46A60046EA93769D005B1944EB9B
:102C0000060443F2AF614FF0000213EB010B44EBFB
:102C1000020C584661463E4C43F2B0624FF000034E
:102C2000A04703460C4618463A4B984797F823307E
:102C3000013387F8233097F82330072BA3D9FB699A
:102C40007B60354BB3F84C30002B0AD0334B1B68FC
:102C500083F000427968294B1046984703467B620F
:102C600007E02E4B1A687968244B104698470346B4
:102C70007B6201231C462A4B2A49786A98470346FF
:102C8000002B01D100231C46E3B283F00103DBB229
:102C9000002B11D101231C46234B4FF07E51786A43
:102CA00098470346002B01D100231C46E3B283F072
:102CB0000103DBB2002B11D0174BB3F84C30002BC3
:102CC00007D0164B1B6883F000431846174B9847F4
:102CD00004E0124B1B681846144B9847144B984756
:102CE00000BF2837BD46BDE8F08B00BF0556400049
:102CF00000800140ED05400021194000BDAF4000BB
:102D000029B1400039B34000C1AF4000BD0C4000C4
:102D1000A9B54000010000209404002020000020FC
:102D200035B54000000080BF0DB540009115400052
:102D30002556400080B500AF154B9847154B9B8832
:102D4000052B11D9134B9B88082B0DD8124B1B68F0
:102D500083F00043114A13600F4B1B6883F000435C
:102D600018460F4B98470FE00A4B9B88102B0BD946
:102D7000084B9B88132B07D8084B4FF000021A60B2
:102D80004FF00000064B9847064B984700BF80BDA8
:102D9000055640009404002020000020EC04002090
:102DA000911540002556400080B500AF204B984754
:102DB000204B9B88112B03D91E4B9B88172B03D9C3
:102DC0001C4B9B88062B08D81B4B4FF000021A6047
:102DD0004FF00000194B984726E0164B9B88062BB6
:102DE00011D9144B9B88092B0DD8154B1B6883F008
:102DF0000043114A1360124B1B6883F000431846CE
:102E00000E4B984710E00B4B9B880E2B0CD9094BAF
:102E10009B88112B08D80A4B1B68074A1360084B84
:102E20001B681846054B9847064B984700BF80BD66
:102E30000556400094040020EC0400209115400049
:102E4000200000202556400080B483B000AF786099
:102E50007B68072B25D801A252F823F07D2E400075
:102E6000832E4000892E40008F2E4000932E40007C
:102E7000972E40009B2E40009F2E40004FF4FA43B7
:102E800010E04FF400430DE04FF400430AE0084B1C
:102E900008E0084B06E0084B04E0074B02E0064B55
:102EA00000E0002318460C37BD4680BC704700BFC9
:102EB00000093D0000127A00001BB70080B500AF8A
:102EC0000620044B9847024613469B0013449B0080
:102ED000184680BD492E400080B500AF024B984790
:102EE00003465B08184680BDBD2E400080B582B009
:102EF00000AF78607868034B984700BF0837BD463D
:102F000080BD00BF914F400080B586B000AF184B28
:102F10001B683B60C0237B60164B1B68BB600023B3
:102F2000FB6000233B6100237B610F20124B98471D
:102F3000124B984702463B4619461148114B984799
:102F40000F48114B98470E48104B98470C48104BB0
:102F5000984702460F4B1A600E4B1B6840F2011156
:102F600018460D4B984700BF1837BD4680BD00BFBF
:102F70002C00002030000020ED2E4000D92E400013
:102F800000800240293D4000693D4000B13D4000C5
:102F9000D13E4000342700203937400080B582B050
:102FA00000AF78600B467B80084A7B6813607B88A3
:102FB000064A5360064B1B68002204491846054B1D
:102FC000984700BF0837BD4680BD00BF38270020A6
:102FD00034270020B136400080B582B000AF786061
:102FE0000B467B80084A7B6813607B88064A5360E7
:102FF000064B1B68002204491846054B984700BF42
:103000000837BD4680BD00BF382700203427002088
:10301000F536400080B582B000AF96237B60094B47
:103020001B681846084B984702467B689B1A7B60D2
:103030007B68962B01D900237B607B681846083794
:10304000BD4680BD342700207937400080B500AFF1
:103050000348044B9847034603F01003184680BD0D
:1030600000800240493E400090B58BB000AF7860D0
:103070000023BB60002387F827307F4A7B681B0151
:1030800013441B68BB61B8697C4B98477861B86989
:103090007B4B984702467B6913407B617B6903F455
:1030A0000053002B71D0744A7B681B011344043316
:1030B0001B684FF400711846724B98474FF400514B
:1030C000B869714B984700233B62BB691B6AFB746C
:1030D000FB7C03F00403002B0AD13B6A01333B6203
:1030E0003B6AB3F1FF3FF0D1012387F8273000E0BE
:1030F00000BFBB6902221A60644A7B6852F8332021
:1031000062497B68DB000B445B68013B13441B781E
:103110001A46BB695A63BB691B6AFB74FB7C03F0EC
:103120000103002B0AD13B6A01333B623B6AB3F1D6
:10313000FF3FF0D1012387F8273000E000BF544A59
:103140007B68DB0013445B68002B0AD0504A7B6825
:10315000DB001344586807F10802002300214D4C9E
:10316000A0473B6AB3F1FF3F0FD0494A7B6852F852
:103170003330002B09D0464A7B6852F8330007F100
:10318000080200230021434CA0477B6903F48053CD
:10319000002B00F0A8800023FB61374A7B681B01ED
:1031A000134404331B6802211846364B98474FF4EA
:1031B0008051B869344B9847BB691B6AFB60FB6858
:1031C00003F00203002B07D1FB690133FB61FB69AC
:1031D000B3F1FF3F02D0EFE700BF00E000BFBB69E3
:1031E00002221A60294A7B6852F8332027497B68FB
:1031F000DB000B445B68023B1344BA69126BD2B22A
:103200001A70BB691B6AFB60FB6803F00203002BAA
:1032100007D1FB690133FB61FB69B3F1FF3F02D0CA
:10322000EFE700BF00E000BFFB69B3F1FF3F34D020
:10323000164A7B6852F8332014497B68DB000B4444
:103240005B68013B1344BA69126BD2B21A70002357
:10325000FB61BB691B6AFB60FB6803F00103002B89
:103260001AD1FB690133FB61FB69B3F1FF3FF0D178
:10327000012387F8273010E0A4BC4000713B4000D8
:10328000893B400059374000513B40001005002069
:10329000F00400206D5C400000BF334A7B68DB0017
:1032A00013445B68002B0AD02F4A7B68DB00134471
:1032B000586807F10802002300212C4CA047FB6945
:1032C000B3F1FF3F0FD02A4A7B6852F83330002B0E
:1032D00009D0274A7B6852F8330007F1080200231F
:1032E0000021224CA0477B6903F45073002B03D1CB
:1032F00097F82730002B2ED01E4A7B681B01134401
:1033000004331B6840F2022118461B4B98477B6927
:1033100003F48073002B02D1BB6902221A604FF4C0
:103320000051B869154B98474FF48051B869134B59
:1033300098470D4A7B68DB0013445B68002B0AD07A
:10334000094A7B68DB001344586807F10802002330
:103350000021064CA047BB68002B01D0084B9847C2
:1033600000BF2C37BD4690BDF00400206D5C4000CE
:1033700000050020A4BC400059374000513B4000EC
:10338000ED55400080B500AF0020024B984700BFCC
:1033900080BD00BF6930400080B500AF0120024B06
:1033A000984700BF80BD00BF6930400080B584B041
:1033B00000AF78600B46FB707A681346DB009B1AFF
:1033C0009B00384A1344FB60FB689B691A46FB6804
:1033D0009B689A420ED1FB78002B03D1FB68002238
:1033E000DA601EE0FB685A68FB689B68D21AFB68CB
:1033F000DA6016E0FB689B691A46FB689B689A4294
:1034000008D9FB689B691A46FB689B68D21AFB685F
:10341000DA6006E0FB685A68FB689B68D21AFB68B2
:10342000DA60FB689A68FB68DB681A44FB685B68D3
:103430009A4203D91C4B984700BFFDE7FB68DB6845
:10344000002B20D0194A7B681B01134404331868F1
:10345000FB68083300221946154B9847134A7B68CE
:103460001B01134404331B6801211846114B984774
:103470000E4A7B681B0113441B684FF48471184685
:103480000D4B984709E0094A7B681B0113441B68F0
:103490004FF484711846094B984700BF1037BD465A
:1034A00080BD00BF200500204D564000C4BC400038
:1034B000F536400039374000F93D4000153E4000E8
:1034C00090B587B000AF78600023FB60624A7B68EC
:1034D0001B0113441B681846604B984778615E4A8D
:1034E0007B681B0113441B6818465D4B98470246D6
:1034F0007B6913407B617A681346DB009B1A9B0053
:10350000584A13443B617B6903F01003002B2AD017
:10351000514A7B681B0113441B6810211846524B0B
:103520009847524A7B68DB0013445B68002B0AD043
:103530004E4A7B68DB001344586807F10C020023F5
:1035400000214B4CA047494A7B6852F83330002B8E
:1035500009D0464A7B6852F8330007F10C02002379
:103560000021434CA0477B6903F00803002B31D0B6
:103570003B699B69002B03D13E4B984700BFFDE799
:103580003B699B69012B03D13A4B984700BFFDE78C
:103590003B699A683B69DB681A443B699A603B69FE
:1035A0009A683B695B689A4203D33B691A683B6936
:1035B0009A607B68002118462F4B98473B691B692E
:1035C000002B07D03B69186907F10C02002300218A
:1035D000274CA0477B6903F48073002B13D01E4A4D
:1035E0007B681B0113441B681846244B98473B69B2
:1035F0001B69002B07D03B69186907F10C020023F7
:1036000000211B4CA0477B6903F0E003002B19D07D
:10361000114A7B681B0113441B681846184B9847D6
:10362000124A7B68DB0013445B68002B0AD00F4A08
:103630007B68DB001344586807F10C02002300216B
:103640000B4CA047FB68002B01D00E4B984700BFE6
:103650001C37BD4690BD00BFC4BC4000493E400081
:10366000313E400020050020153E40005805002056
:103670006D5C40004D564000AD3340007D3E400043
:10368000613E4000ED55400080B500AF0020024B88
:10369000984700BF80BD00BFC134400080B500AF77
:1036A0000120024B984700BF80BD00BFC1344000DD
:1036B00080B485B000AFF860B9607A60BB68002B59
:1036C00007D0BB681A68FB689A60BB685A68FB68D9
:1036D000DA607B68002B07D07B681A68FB689A6108
:1036E0007B685A68FB68DA6100BF1437BD4680BC4E
:1036F000704700BF80B485B000AFF860B9607A60F1
:10370000BB68002B07D0BB681A68FB681A60BB68EF
:103710005A68FB685A607B68002B07D07B681A6880
:10372000FB681A617B685A68FB685A6100BF1437EE
:10373000BD4680BC704700BF80B483B000AF7860E6
:1037400039603A6840F2011313407A68136200BF8F
:103750000C37BD4680BC704780B483B000AF786042
:1037600039603A6840F2022313407A68136200BF5E
:103770000C37BD4680BC704780B483B000AF786022
:103780007B685B6818460C37BD4680BC704700BF3D
:1037900080B483B000AF78607B6808221A607B68D1
:1037A00020221A607B6804221A6000BF0C37BD46D5
:1037B00080BC704780B584B000AF7860396000236A
:1037C000FB607B684FF0FF329A627B681B6A786807
:1037D0000E4B984778680E4B98473B6859683B6892
:1037E0001B681A4678680B4B98470346012B01D19A
:1037F0000123FB603B685B7A012B02D17B6840228E
:103800001A60FB6818461037BD4680BDA13B4000DA
:10381000913740001938400080B489B000AFF8609B
:10382000B9607A600023FB61BB68344A934201D9D6
:1038300001235DE0BB68324A934237D97B68314A45
:10384000A2FB03239B0B043B7B61BA682E4B134402
:103850009B007A68B2FBF3F3043B3B6105E0FB6934
:103860000133FB617B695B087B617B69FF2B09D9B5
:10387000FB69062BF3D905E0FB690133FB613B696A
:103880005B083B613B69FF2B02D9FB69062BF3D92F
:103890007B69DAB23B691B029BB21A43FB691B04CA
:1038A00003F4E0231A43FB681A6120E0BB685B0065
:1038B0007A68B2FBF3F3043BBB6105E0FB690133BB
:1038C000FB61BB695B08BB61BB69FF2B02D9FB696C
:1038D000062BF3D9BB69DAB2BB691B029BB21A4350
:1038E000FB691B0403F4E0231A43FB681A610023FD
:1038F00018462437BD4680BC704700BF801A0600BA
:1039000000DC0500F11976050012FD3F80B485B09A
:1039100000AF786039603B68002B01D100231DE0C7
:103920007B681B78FB603B68012B09DDFB681B0291
:10393000FB607B6801331B781A46FB681343FB600E
:103940003B68022B09DDFB681B02FB607B680233CE
:103950001B781A46FB681343FB60FB681846143754
:10396000BD4680BC704700BF80B588B000AF7860AE
:1039700039603B68DB68FB613B689B68BB61002387
:10398000FB7547F230533B61FB69002B01D10123EA
:1039900069E07B6800225A603B681B7C1B0403F4CF
:1039A000FE023B685B681B0203F44073134343F45D
:1039B00080527B685A607B680022DA603A683B6814
:1039C0005B68194610462A4B984702467B68DA60C6
:1039D000FB69012B05D17B6803221A600123FB756B
:1039E00034E07B6801221A600023FB752EE07B68BF
:1039F0001B6AFB60FB6803F48073002B01D0052376
:103A000031E03B695A1E3A61002B01D109232AE0BB
:103A1000FB69012B07D1FB7D002B04D17B680222BF
:103A20001A600123FB75FB6803F00203002B00D131
:103A30000CE0BB695A1CBA617A68126BD2B21A7078
:103A4000FB69013BFB6147F230533B61FB69002B93
:103A5000CDD100BF7B681B6A03F00103002BF9D0B6
:103A60007B681B6A002318462037BD4680BD00BF17
:103A70000D39400080B586B000AF786039603B6892
:103A8000DB687B613B689B683B617B69002B01D1F4
:103A9000012356E07B6800225A603B681B7C1B04B4
:103AA00003F4FE023B685B681B0203F440731A4395
:103AB0007B685A607B680022DA603A683B685B6822
:103AC00019461046214B984702467B68DA6019E098
:103AD0007B681B6AFB60FB6803F48073002B01D0DA
:103AE00005232EE0FB6803F00403002B00D109E05E
:103AF0003B695A1C3A611B781A467B685A637B699A
:103B0000013B7B617B69002BE2D17B681B6AFB6018
:103B1000FB6803F48073002B01D0052311E0FB68E0
:103B200003F00403002B00D1EFE700BF7B68022203
:103B30001A6000BF7B681B6A03F00103002BF9D0F9
:103B4000002318461837BD4680BD00BF0D39400020
:103B500080B483B000AF786039607B683A689A625D
:103B60007B681B6A00BF0C37BD4680BC704700BF36
:103B700080B483B000AF78607B681B6A18460C374E
:103B8000BD4680BC704700BF80B483B000AF786092
:103B90007B68DB6A18460C37BD4680BC704700BFA7
:103BA00080B483B000AF78607B6880221A607B6845
:103BB0001B6B00BF0C37BD4680BC704780B489B01A
:103BC00000AFF860B9607A60BB681A017B689A42FE
:103BD00002D81023FB6101E00823FB617B68DA0057
:103BE000FB69B96801FB03F35B081A44FB69B96818
:103BF00001FB03F3B2FBF3F3BB61BB69DB087B6141
:103C0000BB6903F007033B617B69002B03D07B6931
:103C1000B3F5803F01D301230FE0FB69082B05D1E9
:103C2000FB685B6843F40022FB685A603B691A0436
:103C30007B691A43FB681A62002318462437BD4685
:103C400080BC704780B582B000AF786078680F4B59
:103C500098477B6800225A607B6800225A627B6822
:103C600000229A6278680A4B98477868094B98470F
:103C70007868094B98477868084B98477868084BEC
:103C8000984700BF0837BD4680BD00BF193F4000C0
:103C9000993D4000E13D4000613E4000B53E40009E
:103CA000993E400080B584B000AFF860B9607A609A
:103CB000F8681A4B98471A4B00221A60BB68002B11
:103CC00009D0BB681B687A681946F868154B984795
:103CD0000346002B01D001231BE0BB685A68BB6878
:103CE0009B681A43BB681B691A43BB68DB681A43AD
:103CF0000B4B1B6813430A4A1360094B1B68084AA5
:103D00001360FB685A68064B1B681A43FB685A60CD
:103D1000002318461037BD4680BD00BF453C40001B
:103D200068050020BD3B400080B584B000AFF8605E
:103D3000B9607A607A68B968F8680A4B98470346B0
:103D4000002B01D0012308E0FB685B6823F00F0320
:103D500043F00102FB685A60002318461037BD4645
:103D600080BD00BFA53C400080B483B000AF786048
:103D70007B6840221A6000BF0C37BD4680BC70478C
:103D800080B483B000AF78607B6880221A6000BF87
:103D90000C37BD4680BC704780B483B000AF7860FC
:103DA0007B6888221A6000BF0C37BD4680BC704714
:103DB00080B483B000AF78607B6810221A6000BFC7
:103DC0000C37BD4680BC704780B483B000AF7860CC
:103DD0007B6820221A6000BF0C37BD4680BC70474C
:103DE00080B483B000AF78607B6824221A6000BF83
:103DF0000C37BD4680BC704780B483B000AF78609C
:103E000039607B683A689A6000BF0C37BD4680BC59
:103E1000704700BF80B483B000AF786039607B68C2
:103E20003A68DA6000BF0C37BD4680BC704700BFFF
:103E300080B483B000AF78607B681B6918460C378C
:103E4000BD4680BC704700BF80B483B000AF7860CF
:103E50007B685B6918460C37BD4680BC704700BF65
:103E600080B483B000AF78607B684FF480721A60D2
:103E700000BF0C37BD4680BC704700BF80B483B024
:103E800000AF78607B684FF400621A6000BF0C37A7
:103E9000BD4680BC704700BF80B483B000AF78607F
:103EA0007B684FF400321A6000BF0C37BD4680BCFF
:103EB000704700BF80B483B000AF78607B684FF478
:103EC00000221A6000BF0C37BD4680BC704700BF9F
:103ED00080B485B000AF78600023FB607B680A4A3D
:103EE000934203D1094BFB60FB6808E07B68084AFA
:103EF000934203D1074BFB60FB6800E0FB68184668
:103F00001437BD4680BC704700400240004102406B
:103F1000008002400081024080B483B000AF78602E
:103F20007B68044AC3F8E42000BF0C37BD4680BC60
:103F3000704700BF0041535580B483B000AF0346C3
:103F4000FB71084997F907305B09FA7902F01F0203
:103F5000012000FA02F241F8232000BF0C37BD46D1
:103F600080BC704700E100E080B582B000AF7860AF
:103F70007868034B984700BF0837BD4680BD00BF37
:103F8000914F400080B500AF0B20034B98470C20A9
:103F9000014B984700BF80BD693F400090B583B09A
:103FA00002AF2D4B4FF400425A602C4B98474FF014
:103FB000006260212A482B4B98474FF000624FF077
:103FC000B0712748274B98474FF000624FF4C0610B
:103FD0002348244B98474FF0006218212048214B7A
:103FE00098474FF0405120201F4B98474FF04051C9
:103FF00021201D4B98474FF0405122201A4B9847E3
:104000001A492320184B98474FF040511020164B67
:1040100098474FF040510120134B98474FF02051E3
:104020000020114B9847124B0093542301220B217F
:104030000B48104CA0470B200F4B98470F220B2129
:1040400007480E4B9847012105480D4B984700BF84
:104050000437BD4690BD00BF50140E40853F400060
:10406000000E0E40E14840003147400004000028A7
:10407000010D4000F14B4000393F4000C14C400071
:104080006946400080B582B000AF78607B68072B3E
:1040900031D801A252F823F0F5404000B940400069
:1040A000C1404000C9404000D1404000D9404000DC
:1040B000E1404000EB4040000020114B98471AE0DF
:1040C00001200F4B984716E000200E4B984712E056
:1040D00010200C4B98470EE020200A4B98470AE02E
:1040E0003E210020084B984705E03E210120064B69
:1040F000984700E000BF00BF0837BD4680BD00BF45
:10410000C54D4000314E4000A14E400080B582B008
:1041100000AF78607B68072B26D801A252F823F005
:104120004141400045414000454140005741400069
:10413000574140005741400057414000574140001F
:10414000012312E00B4B98470346002B14BF0123B9
:104150000023DBB209E0084B98470346002B14BF4D
:1041600001230023DBB200E0002318460837BD46D8
:1041700080BD00BFFD4D4000194F400080B483B0AA
:1041800000AF78607B68072B25D801A252F823F096
:10419000B1414000B7414000BD414000C341400033
:1041A000C7414000CB414000CF414000D3414000D7
:1041B0004FF4FA4310E04FF400430DE04FF4004396
:1041C0000AE0084B08E0084B06E0084B04E0074B08
:1041D00002E0064B00E0002318460C37BD4680BCC9
:1041E000704700BF00093D0000127A00001BB700B5
:1041F00080B582B000AF0346FB7100BFFB79184663
:10420000054B9847034683F00103DBB2002BF5D141
:1042100000BF0837BD4680BD0D41400080B586B067
:1042200000AFF8607A603B600B46FB72FB7A184681
:104230000D4B984702467B68B2FBF3F37B617B69C9
:104240003A6802FB03F37B613B68013B1A04074BAE
:1042500013407A68D2B2134343F47C52FB681A606D
:1042600000BF1837BD4680BD7D4140000000FF07FC
:1042700080B582B000AF786039603B68002B08D110
:10428000094B9847094A7B681B6843F000539362C7
:1042900005E0074B9847054A7B681B68D36200BF5F
:1042A0000837BD4680BD00BF314F400000040E40BE
:1042B000614F400080B582B000AF78607B68002B12
:1042C00003D1054B9847034602E0044B9847034649
:1042D00018460837BD4680BD494F4000794F400021
:1042E00080B582B000AF0346FB71FB79033B042B22
:1042F00008D8FB791846064B9847FB791846054BBA
:10430000984700E000BF00BF0837BD4680BD00BF32
:1043100085404000F141400080B582B000AF786038
:1043200000BF7868044B98470346002BF9D0002360
:1043300018460837BD4680BDB542400080B500AF85
:104340000620044B9847024613469B0013449B00EB
:10435000184680BD7D41400080B500AF024B9847B4
:1043600003465B08184680BD3D43400090B583B0CE
:1043700000AF1148114B98470620114B9847381D44
:104380001423012206210F4CA0473B1D0021184693
:104390000D4B984700200D4B984710200C4B984729
:1043A0000C4B98470C4B984703461846034B9847CD
:1043B00000BF0C37BD4690BD000E27077D52400060
:1043C000E14240001D42400071424000194340005C
:1043D000454D4000E15040005943400080B485B055
:1043E00000AFF860B9607A607B68002B03D0FB688F
:1043F000BA685A6602E0FB68BA681A6600BF1437EA
:10440000BD4680BC704700BF80B487B000AFF86085
:10441000B9607A60FB687A685A64BB68B3F1C05FC0
:104420004AD0B3F1C05F08D8B3F1006F16D0B3F132
:10443000805F2CD0002B69D064E0B3F1205F65D0A1
:10444000B3F1205F03D8B3F1005F4AD05AE0B3F173
:10445000405F5BD0B3F1605F58D053E0FB681B6FE7
:104460007B61FB681A6F7B68D9437B690B401A40FC
:10447000FB681A67FB685B6F7B61FB685A6F7B6840
:10448000D9437B690B401A40FB685A673AE0FB68E6
:104490001B6F7B617A687B691A43FB681A67FB684C
:1044A0005B6F7B61FB685A6F7B68D9437B690B400C
:1044B0001A40FB685A6725E0FB681B6F7B61FB684D
:1044C0001A6F7B68D9437B690B401A40FB681A67F7
:1044D000FB685B6F7B617A687B691A43FB685A678C
:1044E00010E0FB681B6F7B617A687B691A43FB688D
:1044F0001A67FB685B6F7B617A687B691A43FB68AC
:104500005A6700BFFB687A685A6000E000BF1C373A
:10451000BD4680BC704700BF80B584B000AFF86076
:10452000B9607A60B968F868194B98477B6803F0FE
:1045300001031A46B968F868164B98477B6803F080
:104540000A03002B03D0FB68BA681A6202E0FB681A
:10455000BA685A627B6803F00203002B04D0FB6840
:10456000BA68C3F8802008E07B6803F00803002BDA
:1045700003D0FB68BA68C3F88420FB68BA685A6144
:10458000FB68BA681A6000BF1037BD4680BD00BF27
:1045900085464000DD43400080B584B000AFF86040
:1045A000B9607A603B60B968F868124B9847BA699D
:1045B000B968F868104B98473B68002B03D0FB683C
:1045C000BA681A6502E0FB68BA685A657B68002B16
:1045D00003D0FB68BA681A6302E0FB68BA685A63E2
:1045E000FB68BA681A61FB68BA681A6000BF1037C6
:1045F000BD4680BD85464000DD43400080B485B0A7
:1046000000AFF860B9607A607B6803F01003002B9C
:1046100020D0FB68BA68C3F8B0207B6803F02003A1
:10462000002B04D0FB68BA68C3F8D42003E0FB6811
:10463000BA68C3F8D0207B6803F04003002B04D095
:10464000FB68BA68C3F8C02008E0FB68BA68C3F822
:10465000C42003E0FB68BA68C3F8B42000BF143775
:10466000BD4680BC704700BF80B483B000AF7860A7
:1046700039607B683A681A6400BF0C37BD4680BC5D
:10468000704700BF80B483B000AF786039607B684A
:104690003A685A6400BF0C37BD4680BC704700BF03
:1046A00080B483B000AF78607B68DB6C18460C3751
:1046B000BD4680BC704700BF80B483B000AF786057
:1046C0007B689B6C18460C37BD4680BC704700BFAA
:1046D00080B584B000AF78607868084B9847F86080
:1046E0007B6803F01F03012202FA03F31A46FB68FA
:1046F0001A6300BF1037BD4680BD00BF0D4A4000A1
:1047000080B584B000AF78607868084B9847F8604F
:104710007B6803F01F03012202FA03F31A46FB68C9
:104720005A6300BF1037BD4680BD00BF0D4A400030
:1047300090B587B002AF786039607868634B98476E
:10474000F8603B6803F0F043B3F1005F67D0B3F16A
:10475000005F09D8B3F1805F2BD0B3F1C05F43D0C5
:10476000B3F1006F0AD0A9E0B3F1405F7ED0B3F19E
:10477000605F7BD0B3F1205F6CD09FE07B6803F07B
:104780001F03012202FA03F31A464FF00061F86892
:104790004F4B98477B6803F01F03012202FA03F393
:1047A00019463B6803F001031A46F868494B9847DD
:1047B00086E07B6803F01F03012202FA03F31A4626
:1047C0004FF08051F868424B98477B6803F01F0315
:1047D000012202FA03F319463B6803F001031A466B
:1047E000F8683C4B98476BE07B6803F01F0301229D
:1047F00002FA03F31A464FF0C051F868344B984759
:104800007B6803F01F03012202FA03F319463B6899
:1048100003F001031A46F8682E4B984750E07B6876
:1048200003F01F03012202FA03F31A464FF000516E
:10483000F868274B98477B6803F01F03012202FAB0
:1048400003F319463B6803F001031A46F868214B4D
:10485000984735E07B6803F01F03012202FA03F357
:104860003A681946F8681C4B984729E07B6803F0C2
:104870001F03012202FA03F319463B6803F0605359
:10488000B3F1605F0CBF01230023DBB21A463B6823
:1048900003F00403002B14BF01230023DBB21846EE
:1048A0003B6803F00103002B14BF01230023DBB29C
:1048B00000930346F868094CA04701E0002300E09C
:1048C000012318461437BD4690BD00BF0D4A400075
:1048D00009444000DD43400019454000994540002F
:1048E00090B587B002AFF860B9607A607B6803F07A
:1048F000F043B3F1005F43D0B3F1005F09D8B3F1E7
:10490000805F1FD0B3F1C05F2BD0B3F1006F0AD02E
:104910006DE0B3F1405F48D0B3F1605F45D0B3F1D3
:10492000205F3CD063E0BA684FF00061F868334B19
:1049300098477B6803F001031A46B968F868304B62
:10494000984756E0BA684FF08051F8682B4B98476B
:104950007B6803F001031A46B968F868284B98474A
:1049600047E0BA684FF0C051F868244B98477B681D
:1049700003F001031A46B968F868214B984738E0FC
:10498000BA684FF00051F8681C4B98477B6803F0F9
:1049900001031A46B968F868194B984729E07A6804
:1049A000B968F868174B984723E07B6803F06053B9
:1049B000B3F1605F0CBF01230023DBB21A467B68B2
:1049C00003F00403002B14BF01230023DBB21946BC
:1049D0007B6803F00103002B14BF01230023DBB22B
:1049E00000930B46B968F868074CA04701E0002324
:1049F00000E0012318461437BD4690BD094440002D
:104A0000DD434000194540009945400080B485B021
:104A100000AF78607B685B0903F5001303F207734E
:104A20005B02FB60FB6818461437BD4680BC7047CC
:104A300080B483B000AF0346FB71084997F9073093
:104A40005B09FA7902F01F02012000FA02F241F834
:104A5000232000BF0C37BD4680BC704700E100E05A
:104A600080B483B000AF0346FB71094997F9073062
:104A70005B09FA7902F01F02012000FA02F22033EA
:104A800041F8232000BF0C37BD4680BC704700BFF3
:104A900000E100E080B483B000AF0346FB71094938
:104AA00097F907305B09FA7902F01F02012000FA3A
:104AB00002F2603341F8232000BF0C37BD4680BCB2
:104AC000704700BF00E100E080B483B000AF034650
:104AD0003960FB7197F90730002B0BDA0D49FB7930
:104AE00003F00F03043B3A68D2B21201D2B20B4476
:104AF0001A7609E0084997F907303A68D2B21201EC
:104B0000D2B20B4483F8002300BF0C37BD4680BCF3
:104B1000704700BF00ED00E000E100E080B584B028
:104B200000AF7860396078682C4B9847F8607868F7
:104B30002B4B98470246FB681340FB60FB68002B39
:104B40003CD00023BB6034E0264ABB681B01134401
:104B50001A683B689A4226D1224ABB681B0113445B
:104B600004331A68FB681340002B1CD01D4ABB6835
:104B70001B0113440C331B681A49BA6812010A441A
:104B800010681849BA6812010A44043212681146C2
:104B90009847144ABB681B01134404331B68DB436A
:104BA000FA681340FB60BB680133BB60BB68062B2F
:104BB00003D8FB68002BC7D100E000BF0A4B1B687D
:104BC000002B07D0094B1B68002B03D0074B1B6839
:104BD0007868984700BF1037BD4680BDA1464000A9
:104BE000B94640006C05002040270020E005002069
:104BF00080B586B000AFF860B9607A603B60214B49
:104C00001B68062B01D9012338E00023FB7511E056
:104C1000FB7D1B011C4A13443B613B691A68BB685E
:104C20009A4204D13B695A687B689A4208D0FB7D5E
:104C30000133FB75FA7D134B1B689A42E8D900E0FB
:104C400000BF3B69BA681A603B697A685A603B6981
:104C50003A689A603B693A6ADA60FA7D094B1B68E8
:104C600001339A4204D1074B1B680133054A136094
:104C70003A687968F868054B984700231846183752
:104C8000BD4680BDDC0500206C050020FD454000D0
:104C900080B500AF0B210248024B984700BF80BD92
:104CA000000E0E401D4B400080B500AF0C210248A5
:104CB000024B984700BF80BD00100E401D4B4000C6
:104CC00080B586B000AFF8600B467A60FB720023B7
:104CD0007B61F868134B984778614FF0FF31F868B3
:104CE000114B9847F868114B984797F90B301846C5
:104CF0000F4B984797F90B3018460E4B984797F98A
:104D00000B30796818460C4B984797F90B301846CA
:104D10000A4B98477969F868094B984700BF1837DC
:104D2000BD4680BDB946400085464000A1464000D2
:104D3000614A4000954A4000C94A4000314A40005B
:104D40006946400080B485B000AF78601C491C4BB8
:104D50001B6B23F070027B6813430B634FF40063FB
:104D6000FB6007E0FB68002B01D1012323E0FB6817
:104D7000013BFB60124B9B6E03F00803002BF1D04C
:104D80000F4A0F4B1B6B23F0030343F00203136323
:104D90004FF40063FB6007E0FB68002B01D10123A7
:104DA00009E0FB68013BFB60054B9B6E03F00803C9
:104DB000002BF1D0002318461437BD4680BC704745
:104DC00000040E4080B483B000AF78607B68012B94
:104DD00007D1084A074B9B6843F0254343F48013EF
:104DE0009360044B044A1A6000BF0C37BD4680BC78
:104DF000704700BF10140E40080000A580B400AF3B
:104E0000094B5B6903F08003002B07D0074B9B6EB7
:104E100003F08003002B01D0012300E0002318469B
:104E2000BD4680BC704700BF10140E4000040E4009
:104E300080B483B000AF7860184A184B1B6A43F403
:104E40005C1343F00803136200BF144B9B6E03F422
:104E50000033002BF9D01149104B1B6A23F45C136B
:104E600023F070037A68134343F45C130B6200BFB2
:104E70000A4B9B6E03F40033002BF9D0074A074B13
:104E80001B6A23F09B7323F4803343F45C13136297
:104E900000BF0C37BD4680BC704700BF00040E4009
:104EA00080B483B000AF786039607B68002B08D095
:104EB0001649164B1B6A164A1A40164B13430B62CF
:104EC0001EE01249114B1B6A23F45C1323F0030309
:104ED0003A68120292B2134343F45C1343F00103A5
:104EE0000B6200BF094B9B6E03F00103002BF9D04E
:104EF000064A064B1B6A43F09B7343F480331362EC
:104F000000BF0C37BD4680BC704700BF00040E4098
:104F1000FCFFC8FE0200370180B400AF034B9B6E5C
:104F200003F480331846BD4680BC704700040E4031
:104F300080B400AF034B4FF000529A6200BFBD46F1
:104F400080BC704700040E4080B400AF034B9B6EE2
:104F500003F002031846BD4680BC704700040E40B3
:104F600080B400AF034B0022DA6200BFBD4680BCB4
:104F7000704700BF00040E4080B400AF034B9B6E2F
:104F800003F004031846BD4680BC704700040E4081
:104F900080B483B000AF78607B68222B01D90123F5
:104FA0002FE07B681F2B13D8184B9A6901217B686F
:104FB00001FA03F31A4001217B6801FA03F39A42D4
:104FC0001ED0124A01217B6801FA03F3136117E036
:104FD0007B68203B7B600D4BD3F8082101217B6867
:104FE00001FA03F31A4001217B6801FA03F39A42A4
:104FF00006D0064A01217B6801FA03F3C2F80031AA
:10500000002318460C37BD4680BC704700040E4094
:1050100080B584B000AF274BFB60274BBB60FA68BC
:10502000BB689A420DD907E0BB681A1DBA60FA68DE
:10503000111DF96012681A60BB68204A9342F3D3CD
:1050400020E0FA68BB689A421CD21C4A1A4BD31A59
:105050007B60FA687B681344043BFB60BA687B683A
:105060001344043BBB600AE0BB681A1FBA60FA68CD
:10507000111FF96012681A607B68043B7B607B68D3
:10508000002BF1D100BF0E4BBB6004E0BB681A1DC2
:10509000BA6000221A60BB680A4A9342F6D30A4BF0
:1050A000FB600A4AFB689360094B9847094B984795
:1050B000FEE700BF84BF4000000000207404002011
:1050C00078040020442700200000400000ED00E0AC
:1050D000CDB84000197B400080B400AFFEE700BFB0
:1050E00080B400AF5D4B1B6B03F00303032B00F296
:1050F000968001A252F823F0095140002951400046
:105100007351400073514000554B5B6903F08003BD
:10511000002B04D0534B4FF400421A6080E0514BF7
:105120004FF4FA421A607BE04C4B1B6A03F0807329
:10513000002B03D04B4B4C4A1A6071E0494B4B4A51
:105140001A60464B1B6A03F07003102B08D0202B0B
:105150000AD0002B00D00BE0424B444A1A6007E013
:10516000404B434A1A6003E03E4B3F4A1A6000BF7F
:1051700056E03A4B1B6A03F08073002B03D0394B87
:10518000394A1A6019E0374B384A1A60334B1B6AA8
:1051900003F07003102B08D0202B0AD0002B00D076
:1051A0000BE0304B314A1A6007E02E4B304A1A6050
:1051B00003E02C4B2C4A1A6000BF284B1B6B03F0FA
:1051C0000303022B15D1254B9A6A2A4B13401B0C63
:1051D0000133244A126802FB03F3224A13601F4B77
:1051E0009B6ADBB21F4A1268B2FBF3F31D4A1360DD
:1051F00016E01A4BDA6A1F4B13401B0C0133194A95
:10520000126802FB03F3174A1360144BDB6ADBB22C
:10521000144A1268B2FBF3F3124A136000E000BFB5
:105220000E4B1B6B03F07003702B08D10D4B1B68EA
:10523000114AA2FB03235B080A4A13600AE0074BEA
:105240001B6B03F070031B09064A126822FA03F372
:10525000044A136000BFBD4680BC704700040E4086
:1052600010140E4034000020001BB70000093D0060
:1052700000127A000000FF07ABAAAAAA80B483B08C
:1052800000AF78607B68184A934204D8174B4FF000
:1052900080621A6023E07B68154A934203D8134B5F
:1052A000144A1A601BE07B68134A934203D80F4BE1
:1052B000124A1A6013E07B68114A934203D80B4BE1
:1052C000104A1A600BE07B680F4A934204D8074BE0
:1052D0004FF004221A6002E0044B0C4A1A6000BF2F
:1052E0000C37BD4680BC7047FF2C3101000A0E40D0
:1052F000FF59620200010004FF86930300020004CC
:10530000FFB3C40400030004FFE0F505000500043A
:1053100080B483B000AF78607B6803F108027B68DB
:105320005A607B684FF0FF329A607B6803F1080295
:105330007B68DA607B6803F108027B681A617B682E
:1053400000221A6000BF0C37BD4680BC704700BF0A
:1053500080B483B000AF78607B6800221A6100BF20
:105360000C37BD4680BC704780B485B000AF786014
:1053700039607B685B68FB60FB685A683B685A6011
:105380007B685A683B689A60FB685B683A689A6019
:10539000FB683A685A607B683A685A603B687A688A
:1053A0001A617B681B685A1C7B681A6000BF14373F
:1053B000BD4680BC704700BF80B485B000AF786048
:1053C00039603B681B68BB60BB68B3F1FF3F03D12A
:1053D0007B681B69FB600CE07B680833FB6002E0C4
:1053E000FB685B68FB60FB685B681A68BB689A4295
:1053F000F6D9FB685A683B685A603B685B683A6854
:105400009A603B68FA689A60FB683A685A603B6841
:105410007A681A617B681B685A1C7B681A6000BF37
:105420001437BD4680BC704780B485B000AF78604B
:105430007B685B687A6892689A607B689B687A6828
:1054400052685A607B681B69FB60FB685A687B681E
:105450009A4203D17B689A68FB685A607B68002295
:105460001A61FB681B685A1EFB681A60FB681B68A0
:1054700018461437BD4680BC704700BF80B483B067
:1054800000AF78607B68072B25D801A252F823F083
:10549000B1544000B7544000BD544000C3544000D4
:1054A000C7544000CB544000CF544000D354400078
:1054B0004FF4FA4310E04FF400430DE04FF4004383
:1054C0000AE0084B08E0084B06E0084B04E0074BF5
:1054D00002E0064B00E0002318460C37BD4680BCB6
:1054E000704700BF00093D0000127A00001BB700A2
:1054F00080B500AF0620044B9847024613469B0038
:1055000013449B00184680BD7D54400080B500AF19
:10551000024B984703465B08184680BDF154400093
:1055200080B485B000AFF860B9607A60FB68043B76
:10553000FB60FB684FF080721A60FB68043BFB6005
:10554000BA68FB681A60FB68043BFB60FB680022DA
:105550001A60FB68143BFB607A68FB681A60FB68A2
:10556000203BFB60FB6818461437BD4680BC704783
:10557000064B19680868B0E8F00F80F309884FF00F
:10558000000080F311884EF00D0E7047F4250020C6
:1055900000BF00BF04480068006880F3088862B656
:1055A00000DF00BF00BF000008ED00E080B500AFE5
:1055B0000A4A0A4B1B6843F470031360074A074BFF
:1055C0001B6843F070431360054B9847054B00225E
:1055D0001A60054B98470023184680BD20ED00E077
:1055E000D9564000380000209555400080B400AFE7
:1055F000034B4FF080521A6000BFBD4680BC70471D
:1056000004ED00E080B500AF044B9847044B1B68E5
:105610000133034A136000BF80BD00BF4D564000F8
:105620003800002080B500AF064B1B68013B054ADF
:105630001360044B1B68002B02D10020024B9847DB
:1056400000BF80BD3800002061564000EFF311809C
:105650004FF0A00181F3118870470023184600BF66
:1056600080F31188704700BFEFF309800C4B1A6874
:1056700020E9F00F10602DE908404FF0A00080F302
:10568000118801F029F84FF0000080F31188BDE87F
:10569000084019680868B0E8F00F80F3098870477F
:1056A000F425002000BF00BF80B500AF064B4FF0CF
:1056B00080521A60054B9847054B98470020054BD0
:1056C000984700BF80BD00BF04ED00E04D5640008C
:1056D0008D6540006156400098B500AF074C084BFF
:1056E00098470246074BA3FB02239B09013B23601B
:1056F000054B07221A6000BF98BD00BF14E000E010
:105700000D5540001F85EB5110E000E080B586B0DC
:1057100000AF78600023FB60374B9847374B1B681E
:10572000002B01D1364B98477B68002B0ED01023FD
:105730001A467B6813447B607B6803F00703002BE9
:1057400004D07B6823F0070308337B607B68002B61
:1057500045D04FF400527B68934240D2294B3B61C5
:10576000284B1B687B6104E07B693B617B691B689C
:105770007B617B695A687B689A4203D27B691B68AC
:10578000002BF1D11D4B1B687A699A4227D03B69E7
:105790001B6810221344FB607B691A683B691A601E
:1057A0007B695A687B68D31A1022520093420FD942
:1057B0007A697B681344BB607B695A687B68D21A3C
:1057C000BB685A607B697A685A60B8680E4B984724
:1057D0000E4B1A687B695B68D31A0C4A13600C4B3A
:1057E0009847FB68002B01D10A4B9847FB68184685
:1057F0001837BD4680BD00BF25644000F02500205D
:105800006D584000E8250020FD5840003C00002075
:1058100041644000C97B400080B584B000AF78602F
:105820007B68FB607B68002B14D010235B42FA6816
:105830001344FB60FB68BB60084B9847BB685A6821
:10584000074B1B681344064A1360B868054B98471A
:10585000054B984700BF1037BD4680BD256440000A
:105860003C000020FD5840004164400080B582B0FB
:1058700000AF1D4B1D4A1A601B4B00225A604FF4AB
:1058800000521A4B13447B6010235B427A68134426
:105890007B60174A7B681360154B1B6803F0070396
:1058A000002B03D0134B984700BFFDE7104B1B683C
:1058B00000225A600E4B1B6800221A600B4B3B60A3
:1058C0004FF4005310229A1A3B685A60084B1A682A
:1058D0003B681A60084B1B6810229B1A064A13602B
:1058E00000BF0837BD4680BDE8250020E805002040
:1058F000F02500204D5640003C00002080B485B0CB
:1059000000AF7860274BFB6002E0FB681B68FB6020
:10591000FB681A687B689A42F7D3FB68BB60FB6838
:105920005B68BA681A447B689A4208D1FB685A6877
:105930007B685B681A44FB685A60FB687B607B6825
:10594000BB607B685B68BA681A44FB681B689A4254
:1059500018D1FB681A68144B1B689A420DD07B68FB
:105960005A68FB681B685B681A447B685A60FB686E
:105970001B681A687B681A6008E00B4B1A687B6822
:105980001A6003E0FB681A687B681A60FA687B6833
:105990009A4202D0FB687A681A6000BF1437BD468D
:1059A00080BC7047E8250020F025002080B582B03B
:1059B00000AF786039607B68002B03D1274B984794
:1059C00000BFFDE7264B98477B681A687B68DB6B56
:1059D0007968096C01FB03F31A447B685A607B68A1
:1059E00000229A637B681A687B689A607B681A68F1
:1059F0007B68DB6B013B7968096C01FB03F31A449C
:105A00007B68DA607B684FF0FF325A647B684FF046
:105A1000FF329A643B68002B0ED17B681B69002B18
:105A200014D07B68103318460E4B98470346012B61
:105A30000CD10D4B984709E07B68103318460B4B8F
:105A400098477B6824331846084B9847084B98477B
:105A5000012318460837BD4680BD00BF4D564000A3
:105A600005564000BD684000ED5540001153400010
:105A70002556400080B588B000AFF860B960134685
:105A8000FB710023FB61FB68002B26D04C20194BD7
:105A90009847B861BB69002B1FD0FB68BA6802FB4E
:105AA00003F301337B617869124B98470246BB6967
:105AB0001A60BB691B68002B0CD0BB69FA68DA63FB
:105AC000BB69BA681A640121B8690B4B9847BB6976
:105AD000FB6102E0B869094B9847FB69002B03D1D1
