:020000040040BA
:1000000088560020490A4000450A4000450A400041
:10001000450A4000450A4000450A40000000000033
:10002000000000000000000000000000710D400012
:10003000450A400000000000ED0D4000290E400080
:10004000450A4000450A4000450A4000450A400074
:10005000450A4000450A4000450A4000450A400064
:100060008D0540009D05400000000000250940006E
:10007000390940004D094000450A4000450A40004A
:100080000000000000000000450A40005503400049
:1000900065034000450A4000450A4000450A40000B
:1000A000450A4000450A4000450A4000450A400014
:1000B000450A4000450A4000450A4000450A400004
:1000C000450A4000450A4000450A400010B5054C6D
:1000D000237833B9044B13B10448AFF300800123F4
:1000E000237010BD3804002000000000842640006A
:1000F000084B10B51BB108490848AFF30080084809
:10010000036803B910BD074B002BFBD0BDE81040BE
:10011000184700BF000000003C0400208426400077
:1001200084264000000000002DE9F04383B007461C
:100130000023019303017D4AD55828467C4B9847FC
:10014000064628467B4B9847064016F4005F4AD087
:10015000764B03EB07134FF400715868764B9847C2
:100160004FF400512846754B984700242B6A13F032
:10017000040F06D10134B4F1FF3FF7D14FF001086D
:1001800001E04FF0000802232B606D4B03EBC70129
:1001900053F837204B68134413F8013C6B632B6A08
:1001A00013F0010F04D10134B4F1FF3FF7D19FE008
:1001B000644B03EBC703586810B907E04FF0010820
:1001C000002301AA1946DFF88091C847B4F1FF3F28
:1001D0000BD05C4B53F8370038B1002301AA194605
:1001E000594CA04701E04FF0000816F4805F54D04E
:1001F0004E4B03EB0713022158684F4B98474FF4BF
:10020000805128464D4B984700242B6A13F0020F6B
:1002100003D10134B4F1FF3FF7D102232B60484BE7
:1002200053F8371003EBC7035A68286B8B1803F891
:10023000020C2B6A13F0020F04D10134B4F1FF3F1A
:10024000F7D168E0B4F1FF3F5ED02B6B0A4402F8AF
:10025000013C00242B6A13F0010F04D10134B4F1E6
:10026000FF3FF7D14EE0374B03EBC703586810B997
:1002700007E04FF0FF34002301AA1946DFF8C890C9
:10028000C847B4F1FF3F08D0304B53F8370020B1D6
:10029000002301AA19462C4CA04716F4507F02D126
:1002A000B8F1000F1FD0214B03EB071340F20221DE
:1002B0005868214B984716F4807F04BF02232B60B7
:1002C0004FF4005128461D4CA0474FF4805128465A
:1002D000A0471C4B03EBC707786820B1002301AA95
:1002E0001946194CA047019BE3B1194B984719E0F7
:1002F000144B03EBC703586800287FF45FAF4FF03F
:10030000010872E74FF001080E4B03EBC703586872
:100310000028AED1C1E70B4B03EBC7035868002898
:10032000A9D1BAE703B0BDE8F08300BF00264000C2
:10033000E9054000ED054000D1054000E105400021
:1003400064040020740400201113400054040020B1
:10035000910D400008B50020014B984708BD00BF33
:100360002901400008B50120014B984708BD00BF96
:100370002901400070B5C0EBC0022D4B03EB820396
:100380009A699B689A4214D151B9C0EBC001284BBD
:1003900003EB81030021D9605B689A4241D924E0D4
:1003A000C0EBC004224901EB84014C68A21ACA6068
:1003B00011E09A4207D9C0EBC0041D4901EB84014A
:1003C000D21ACA6007E0C0EBC001194A02EB8102F1
:1003D0005168C91AD160C0EBC001154A02EB810215
:1003E000D1680B445268934203D9124B984700BF1F
:1003F000FDE7B1B1104D04012B195E68C0EBC000E0
:100400000B4B03EB80010022083130460B4B984721
:10041000012130460A4B984709212859094B984732
:1004200070BD00010921044B1858074B984770BD57
:1004300084040020A10D400020264000AD054000AE
:10044000C5054000F1054000F5054000F0B583B05A
:100450000446002301930301414AD6583046414BDC
:10046000984705463046404B9847054015F0100F19
:1004700016D0102130463D4B98473D4B03EBC4034B
:10048000586820B1002301AA19463A4FB847384BA3
:1004900053F8340020B1002301AA1946354FB8475C
:1004A00015F0080F33D0C4EBC402334B03EB8203C7
:1004B0009B691BB9314B984700BFFDE7012B03D166
:1004C0002E4B984700BFFDE7C4EBC4022A4B03EB59
:1004D00082039968DA680A449A605B689A4206D394
:1004E000254AC4EBC4039B00D118D3588B6000216C
:1004F0002046234B9847C4EBC4021F4B03EB8203F7
:10050000186938B3002301AA19461A4FB84765B9CC
:10051000C4EBC404184B03EB84031869A8B100238F
:1005200001AA1946134CA0470FE015F0E00F0CD0BC
:100530003046144B98470E4B03EBC404606820B15F
:10054000002301AA19460B4CA047019B2BB10E4B6F
:10055000984702E0002DF8D0E7E703B0F0BD00BFF8
:1005600020264000FD054000F9054000F50540004B
:10057000BC0400201113400084040020A10D4000A1
:100580007503400001064000910D400008B50020B1
:10059000014B984708BD00BF4D04400008B501203D
:1005A000014B984708BD00BF4D0440000B4619B1F0
:1005B000096801605B6843601AB11368036153689E
:1005C0004361704721F0FE01C905C90D0162704702
:1005D00021F4FE7121F001018905890D0162704746
:1005E0008162036A704700BF006A7047C06A704743
:1005F00081607047C160704700697047406970470B
:100600004FF480730360704710B50E480E4B984747
:1006100000200E4B98470E4CA0470028FCD00D4BF5
:1006200098470D4A0D4B9A620D4CA0470028FCD00C
:1006300000200C4B98470C4B98470248024B9847B8
:1006400010BD00BF000E27070D0C4000C909400077
:10065000150A4000250A4000013F1D2000040E40FD
:10066000350A400061094000F90A40004264B1F1D6
:10067000C05F2FD007D8B1F1006F14D0B1F1805F07
:100680001ED039B97047B1F1205F36D004D8B1F12E
:10069000005F29D042607047B1F1405F2DD0B1F1C9
:1006A000605F2AD0F6E710B4046F016FD343214096
:1006B00019400167446F416F21400B4043671AE0C6
:1006C000036F13430367416F436F0B4023EA020339
:1006D0004367DFE7016F036F0B4023EA0203036701
:1006E000436F13434367D5E7036F13430367436FB8
:1006F00013434367CEE7426010BC7047416412F079
:10070000010F14BF4166016612F00A0F14BF0162A7
:10071000416212F0020F02D0C0F8801004E012F023
:10072000080F18BFC0F8841041610160704700BF16
:1007300010B44164019C0CB1416600E001660BB14C
:10074000016500E041650AB1016300E041630161B8
:10075000016010BC704700BFC06C7047806C704770
:10076000430903F5001303F207735B0200F01F0057
:10077000012202FA00F01863704700BF430903F535
:10078000001303F207735B0200F01F00012202FA5C
:1007900000F05863704700BF70B582B00D46430942
:1007A00003F5001303F207735C0201F0F043B3F1A9
:1007B000005F47D009D8B3F1805F21D0B3F1C05FAB
:1007C0002FD0B3F1006F6FD109E0B3F1405F55D086
:1007D000B3F1605F52D0B3F1205F44D064E000F029
:1007E0001F000126864032464FF000612046304B04
:1007F000984715F0010F14BF66662666012054E085
:1008000000F01F000126864032464FF080512046FE
:10081000274B984715F0010F14BF66662666012026
:1008200043E000F01F000126864032464FF0C051E1
:1008300020461F4B984715F0010F14BF66662666C9
:10084000012032E000F01F000126864032464FF0C2
:1008500000512046164B984715F0010F14BF6666ED
:100860002666012021E000F01F0101262A4606FA33
:1008700001F120460F4B9847304616E005F06052D4
:1008800000F01F01012605EA06030093C5F380036B
:10089000B2F1605F14BF0022012206FA01F1204686
:1008A000054CA047304600E0002002B070BD00BFFC
:1008B0006D064000FD064000310740002DE9F84379
:1008C00081468846124B984705464846114B984743
:1008D000054013D0104C04F160062368434508D14D
:1008E0006168294205D0E36840469847636825EA75
:1008F0000305B44202D01034002DEED1074B1B6823
:1009000023B1074B1B680BB148469847BDE8F883F5
:10091000590740005D074000D004002084260020D5
:10092000CC04002008B50B210148024B984708BDB4
:10093000000E0E40BD08400008B50C210148024BD6
:10094000984708BD00100E40BD08400008B50D21B5
:100950000148024B984708BD00120E40BD084000F8
:10096000184A136B23F0700318431063936E13F04F
:10097000080F03D009E0013B03D11EE04FF40063F0
:1009800010498A6E12F0080FF5D00E4A136B23F04F
:10099000030343F002031363906E10F0080004D0C9
:1009A00000207047013B03D109E04FF40063054983
:1009B0008A6E12F0080FF5D07047012070470120B1
:1009C000704700BF00040E40114B1A6A42F45C12DB
:1009D00042F008021A621A46936E13F4003FFBD0ED
:1009E0000B4A136A23F45C1323F0700343F45C1383
:1009F00003431362936E13F4003FFBD0044A136A5F
:100A000023F09B7323F4803343F45C131362704729
:100A100000040E40024B986E00F48030704700BF17
:100A200000040E404FF00052014B9A62704700BF25
:100A300000040E40024B986E00F00200704700BFA9
:100A400000040E40FEE700BF08B5204B204A9A4242
:100A500012D9204B1D4A9A421ED21146013B9B1AC5
:100A600023F0030304331A4A134452F8040B41F8E9
:100A7000040B9A42F9D10FE0144B154A9A420BD25B
:100A8000144B124A9A1A144811182AB151F8042921
:100A900043F8042D8142F9D100BF104B104A9A420D
:100AA0000BD2131D0F4AD21A22F003021A44043B40
:100AB000002143F8041B9A42FBD10B4B0B4A9A606E
:100AC0000B4B98470B4B9847FEE700BF00000020F8
:100AD000842640003804002080264000882600201C
:100AE000380400208B26002000ED00E000004000CC
:100AF0008D2240004D2240003D4B1B6B03F0030351
:100B0000032B5DD8DFE803F0020E2B2B394B5B691A
:100B100013F0800F14BF4FF400424FF4FA42364BEB
:100B20001A604DE0324B1B6A13F0807F03D0334ACA
:100B3000314B1A6044E0324A2F4B1A602C4B1B6A2F
:100B400003F07003102B02D0202B04D038E02D4A84
:100B5000294B1A6034E0294A274B1A6030E0244BB5
:100B60001B6A13F0807F03D0244A234B1A6012E0E3
:100B7000234A214B1A601E4B1B6A03F07003102B93
:100B800002D0202B04D006E01E4A1B4B1A6002E064
:100B90001A4A194B1A60164B1B6B03F00303022B06
:100BA000134A07BF936A926AD36AD26A1248C3F3A0
:100BB0000A41036801FB0333D2B2B3FBF2F30360D3
:100BC0000B4B1B6B03F07003702B07D10A4A1368A1
:100BD0000D49A1FB03135B0813607047044B1B6BAB
:100BE0000549C3F302120B68D3400B60704700BF86
:100BF00000040E4010140E4000000020001BB7003F
:100C000000093D0000127A00ABAAAAAA1A4B98422A
:100C100007D84FF08063194A136002F50072136021
:100C20007047174B984206D8164B144A136002F5CA
:100C3000007213607047144B984206D8134B0F4A4A
:100C4000136002F5007213607047114B984206D88A
:100C5000104B0A4A136002F50072136070470E4B86
:100C6000984294BF4FF004230C4B044A136002F5E2
:100C700000721360704700BFFF2C3101000A0E4064
:100C8000FF59620200010004FF8693030002000482
:100C9000FFB3C40400030004FFE0F50500050004F1
:100CA00000F1080343604FF0FF328260C3600361CC
:100CB00000230360704700BF00230361704700BF3B
:100CC00043685A684A6042688A605A68916059600D
:100CD00041600861036801330360704710B40C6819
:100CE000B4F1FF3F01D103690AE000F10803C268D3
:100CF0001268944204D35B685A6812689442FAD22C
:100D00005A684A6091608B605960086103680133DA
:100D1000036010BC704700BF436882689A608368B4
:100D200042685A6003695A68904204BF82685A60F8
:100D3000002202611A68013A1A601868704700BF01
:100D400003480068006880F3088862B600DF00BFCF
:100D500008ED00E04FF0807340F8043C40F8081CB8
:100D6000002340F80C3C40F8202C4038704700BF6E
:100D7000064B19680868B0E8F00F80F309884FF057
:100D8000000080F311884EF00D0E70470026002001
:100D90004FF08052014B1A60704700BF04ED00E035
:100DA000EFF311804FF0A00181F31188704700200C
:100DB00008B5034B9847034A13680133136008BD15
:100DC000A10D40000400002080F31188704700BF8F
:100DD00008B5044A1368013B136013B90020024BA5
:100DE000984708BD04000020C90D4000EFF30980BA
:100DF0000C4B1A6820E9F00F10602DE908404FF005
:100E0000A00080F3118800F085FE4FF0000080F311
:100E10001188BDE8084019680868B0E8F00F80F351
:100E2000098870470026002008B54FF08052054B16
:100E30001A60054B9847054B98470020044B98478C
:100E400008BD00BF04ED00E0A10D400039184000CE
:100E5000C90D4000034A044B1A600722043B1A6084
:100E6000704700BFBFD4010014E000E010B5094B8B
:100E70001A6842F470021A601A6842F070421A60EE
:100E8000054B98470024054B1C60054B98472046AE
:100E900010BD00BF20ED00E0550E40000400002012
:100EA000410D4000124A00E01A4613688342FBD30A
:100EB00010B451685418A04203D1406801445160F5
:100EC000104641684418A3420CD10A4B1B689C424F
:100ED00006D063681944416013681B68036002E030
:100EE000046000E00360904218BF106010BC7047BF
:100EF000442500204025002038B504462B4B984758
:100F00002B4B1B689BB92B4A2B4B13600021516064
:100F100041F6F0729818264D286041F6F475595143
:100F200099505A601860254A1368103B1360002CD2
:100F300037D004F1100212F0070F1CBF22F0070295
:100F40000832511E41F6FE73994227D819490C68A0
:100F500001E021461C4663689A4202D92368002BAF
:100F6000F7D1134B1B689C4218D00D6810352368CD
:100F70000B6063689B1A202B04D9A0184360626041
:100F80000F4B98470D4A136861685B1A13600D4B4D
:100F900098474DB90C4B9847002505E0094B9847F9
:100FA000F8E7084B9847F5E7284638BD0918400090
:100FB0004025002044250020400500200800002096
:100FC000A50E4000591940002D22400080B110B5F7
:100FD0000446084B9847084A54F80C1C13680B4405
:100FE0001360A4F11000054B9847054B984710BDBE
:100FF000704700BF0918400008000020A50E4000FF
:101000005919400010B50446036C3BB903681BBB7B
:101010004068134B9847002363601DE06AB91A4685
:101020008068104B9847A268236C1344A3606268E1
:10103000934211D32368A3600EE01A46C068094B9F
:101040009847236C5B42E2681A44E26021688A4256
:1010500002D262681344E360A36B0133A36310BD43
:10106000451E4000DD22400038B50346006858B1F7
:101070001A6CDC681444DC605D68AC4228BFD86040
:101080000846D968014B984738BD00BFDD224000B3
:10109000F8B504461E4B9847A36C002B13DD636A1A
:1010A0001BB910E0636A23B90DE004F12406194D61
:1010B000194F3046A84700B1B847A36C013BA36461
:1010C000A36C002BEEDC4FF0FF33A364134B984767
:1010D0000F4B9847636C002B13DD23691BB910E09D
:1010E000236923B90DE004F110060A4D0A4F30467A
:1010F000A84700B1B847636C013B6364636C002B85
:10110000EEDC4FF0FF336364044B9847F8BD00BF3B
:10111000B10D40005D1C40008D1D4000D10D400010
:1011200038B518B9174B984700BFFDE70D46044680
:10113000154B98472268216CE36B03FB01F3D01831
:1011400060600020A063A2605B1A1344E3604FF06C
:10115000FF336364A36455B923697BB104F11000C4
:101160000A4B9847012809D1094B984706E004F13A
:101170001000084DA84704F12400A847064B9847E3
:10118000012038BDA10D4000B10D40005D1C4000A4
:10119000910D4000A10C4000D10D400070B598B1F8
:1011A0000D4606464C200E4B9847044660B105FBA1
:1011B00006F001300A4B9847206040B92046094BA1
:1011C000984701E000BFFDE7074B9847FAE7E66361
:1011D000256401212046054B9847204670BD00BF7D
:1011E000F90E4000CD0F4000A10D4000211140003C
:1011F0002DE9F04F85B00192009318B9384B98470C
:1012000000BFFDE78A46044629B9036C2BB1344B75
:10121000984700BFFDE7002700E00027314EDFF8C8
:10122000ECB0314DB047A26BE36B9A4212D2009AF8
:10123000514620462D4B9847636A3BB104F1240088
:101240002B4B9847012801D12A4B9847264B9847AA
:10125000012042E0019B1BB9234B984700203CE052
:1012600017B902A8D8470127A847234B9847B0478A
:10127000636CB3F1FF3F04BF00236364A36CB3F15D
:10128000FF3F04BF0023A364A84701A902A81B4B8A
:101290009847E0B9B047D4F83890D4F83C80A847D4
:1012A000C1450ED1019904F11000154B9847204615
:1012B000144B9847144B98470028B3D10D4B9847CF
:1012C000B0E720460F4B98470F4B9847AAE72046B8
:1012D0000C4B98470C4B9847002005B0BDE8F08FA9
:1012E000A10D4000B10D4000D10D4000051040009F
:1012F0005D1C4000910D400009184000091D400090
:10130000B91B40009110400059194000E11C4000F9
:101310002DE9F04118B91E4B984700BFFDE70E4676
:1013200015469846044629B9036C1BB1184B9847DB
:1013300000BFFDE7164B98470746A26BE36B9A4246
:1013400018D2424631462046124B9847A36CB3F15F
:10135000FF3F0AD1636A7BB104F124000E4B98472A
:1013600060B16DB101242C600BE0A36C0133A36468
:10137000012406E0002404E0012402E0012400E04E
:1013800001243846054B98472046BDE8F08100BF50
:10139000A10D4000051040005D1C4000C90D40003B
:1013A0002DE9F04F85B0019218B9464B984700BF20
:1013B000FDE789469A46044629B9036C2BB1414B97
:1013C000984700BFFDE7002700E000273E4EDFF80A
:1013D00028B13E4DB047A36B43B3E568494620466C
:1013E0003B4B9847BAF1000F12D1A36B013BA363AB
:1013F000236813B9374B98476060236993B104F1B0
:101400001000354B984701280CD1344B984709E020
:10141000E560636A33B104F124002F4B984708B1AB
:101420002E4B9847294B9847012048E0019B1BB958
:10143000264B9847002042E017B902A8D847012759
:10144000A847274B9847B047636CB3F1FF3F04BFF1
:1014500000236364A36CB3F1FF3F04BF0023A364C4
:10146000A84701A902A81F4B984710BBB047D4F862
:101470003880A847B8F1000F15D1236823B9B047C9
:101480006068194B9847A847019904F12400174B4D
:1014900098472046164B9847164B9847002899D1F5
:1014A0000E4B984796E72046114B9847114B9847AB
:1014B00090E720460E4B98470E4B9847002005B00A
:1014C000BDE8F08FA10D4000B10D4000D10D4000EE
:1014D00069104000991D40005D1C4000910D4000C6
:1014E00009184000091D4000C51D4000B91B4000FF
:1014F0009110400059194000E11C400038B50446E5
:101500000D460D4B9847636CB3F1FF3F04BF0023BA
:101510006364A36CB3F1FF3F04BF0023A364074BD4
:101520009847A36B23B9294604F12400044B98473C
:101530002046044B984738BDB10D4000D10D400006
:10154000191C40009110400010B50F4B1B685860EB
:101550000E4B1B68984207D20D4B18680A4B19684E
:1015600004310C4B984710BD04460B4B1868064BD2
:1015700019680431074B9847084B1B689C423CBFD5
:10158000064B1C6010BD00BF002600201C2600205A
:1015900020260020DD0C4000642500200C000020E7
:1015A0002DE9F04F83B00C9FDDF834800E9E019042
:1015B00018B9614B984700BFFDE7894615469B4621
:1015C000042F03D95C4B984700BFFDE744205B4BD9
:1015D00098470446002800F0AA80002E40F0A4801E
:1015E000A800564B9847206318B92046544B98479B
:1015F0009DE0AA00A521534B984705F18045013D88
:10160000236B03EB850323F007050C22494604F105
:1016100034004D4B9847002384F83F303E46042F5A
:1016200028BF0426E662266404F104094846DFF870
:1016300068A1D04704F11800D0472461C6F105061F
:10164000A66164625A4601992846404B984720603B
:1016500010F0070F03D0384B984700BFFDE7B8F1F3
:10166000000F01D0C8F80040394B9847394A136839
:1016700001331360384B1B680BBB374B1C6013687E
:10168000012B26D1354D05F16408354E2846B0476B
:1016900014354545FAD1DFF804814046304DA8475E
:1016A000304E3046A8473048A8473048A847304811
:1016B000A847304BC3F800802F4B1E6009E02F4B2A
:1016C0001B6833B9244B1B68DB6A9F4224BF224B43
:1016D0001C60E06A2A4B1B68984284BF284B186044
:1016E000284A136801331360274B1B68984284BF54
:1016F000254B186000EB80004946184B03EB800037
:10170000224B9847224B98471C4B1B6843B1124B06
:101710001B68DB6A9F4205D91E4B9847012008E0F1
:10172000012006E0012004E00663304661E74FF047
:10173000FF3003B0BDE8F08FA10D4000F90E40006E
:10174000CD0F400011244000AD244000550D400055
:10175000B10D4000442600200026002098250020DE
:10176000A10C4000842500200426002070250020C4
:101770005025002064250020202600206825002018
:10178000482600202826002024260020C10C4000E6
:10179000D10D4000910D4000B90C40002C260020D6
:1017A00010B584B000230393029301930093642245
:1017B0000D490E480E4CA04701280ED10D4B9847FD
:1017C00001280AD10C4B984701220C4B1A600022C9
:1017D0000B4B1A600B4B984704E018B9064B98471F
:1017E00000BFFDE704B010BD40264000A51A400030
:1017F000A11540003D1F4000A10D400068250020BC
:101800001C2600206D0E4000024A1368013313604D
:10181000704700BFFC25002010B5044B9847044BCF
:101820001C68044B9847204610BD00BFB10D400016
:101830001C260020D10D40002DE9F0413A4B1B68D9
:10184000002B6BD1394B1A6801321A601B6803BB3D
:10185000374B1B681B681BB1364B984700BFFDE731
:10186000334B1968344A10681860116033490A68AC
:1018700001320A601B681B6823B94FF0FF32304BFE
:101880001A6006E02A4B1B68DB68DB685A682C4B41
:101890001A60264B1A682A4B1B689A4242D3244B83
:1018A0001B681B686BB1224B1B68DB68DC686368D4
:1018B0001E4A1268934213D8224E234FDFF89480B9
:1018C00012E04FF0FF321E4B1A60BDE8F081184B5A
:1018D0001B68DB68DC686368144A1268934203D9AA
:1018E000174A1360BDE8F081251D2846B047A36A5A
:1018F00013B104F11800B047E06A3B68984288BF12
:10190000386000EB8000294608EB80000F4B9847B9
:10191000074B1B681B68002BD9D1D2E70C4A136810
:1019200001331360BDE8F081FC2500201C26002057
:1019300064250020A10D400020260020182600204C
:101940000C000020190D400024260020C10C40008E
:101950004C250020982500202DE9F843304B1B68CA
:101960001BB9304B984700BFFDE72F4B98472C4BD6
:101970001A68013A1A601B68002B49D12B4B1B686F
:1019800003BB002447E0D8F80C30DC6804F11800F1
:10199000B84704F104094846B847E06A33689842FA
:1019A00088BF306000EB80004946214B03EB80008C
:1019B000204B9847204B1B68E26ADB6A9A4228BF9B
:1019C000012504E00025DFF890801C4F1C4ED8F85C
:1019D0000030002BD7D11B4B1B6863B1194B1B6820
:1019E0007BB1194D174CA8472368013B236023683E
:1019F000002BF8D105E0012D03D0144B1B68012BFF
:101A000008D10022114B1A60114B9847012402E0C3
:101A1000002400E000240F4B98472046BDE8F883DF
:101A2000FC250020A10D4000B10D400044260020FF
:101A300098250020C10C400000260020190D400010
:101A4000242600204C250020391840004026002084
:101A5000910D4000D10D40000426002010B580B14A
:101A60000446094B9847094B1B681C44084B1868EF
:101A70000430084B98472046074B9847074B984738
:101A800008B9074B984710BD091840001C260020D4
:101A900000260020190D400049154000591940004A
:101AA000910D400080B5124DDFF86080114F124E4D
:101AB00019E0C0473C68B047ACB1104B9847FB6891
:101AC000DC68201D0E4B98470E4A1368013B1360DB
:101AD0002B68013B2B600C4B9847206BDFF8309054
:101AE000C8472046C8472B68002BE2D1DFE700BF7C
:101AF0006C2500207025002059194000B10D4000D0
:101B0000190D400044260020D10D40000918400066
:101B1000CD0F400010B5224B1B686BB9214B1B68E1
:101B200003EB83039B00204AD358CBB91D4B1B68A2
:101B300043B11C4A1C4909E001221C4B1A6010BD2C
:101B400013681BB91A4B984700BFFDE71368013BA8
:101B50001360136803EB830351F82330002BEFD09D
:101B6000104B1B68104A9900C81802EB80004468AB
:101B70006468446002460832944206D1606803EB10
:101B80008301094A02EB8102506003EB8303064A9A
:101B900002EB83035B68DA68064B1A6010BD00BF76
:101BA000FC25002024260020982500204026002027
:101BB000A10D40000026002038B518B90E4B9847FB
:101BC00000BFFDE70C460D4D296818310C4B9847B6
:101BD000286804300B4B9847B4F1FF3F05D12968C2
:101BE00004310948094B984738BD094B186820440F
:101BF000084B984738BD00BFA10D400000260020CB
:101C0000DD0C4000190D400050250020C10C4000A3
:101C10001C2600204915400038B518B9094B9847D3
:101C200000BFFDE70D46084C21681831074B984767
:101C300020680430064B9847064B18682844064B2A
:101C4000984738BDA10D400000260020C10C40007F
:101C5000190D40001C2600204915400038B5C36806
:101C6000DC681CB9164B984700BFFDE704F1180566
:101C70002846144B9847144B1B689BB9251D2846D2
:101C8000104B9847E06A114B1B68984284BF0F4B7A
:101C9000186000EB800029460D4B03EB80000D4BD4
:101CA000984703E029460C480A4B98470B4B1B68A2
:101CB000E06ADB6A984234BF0020012038BD00BFD3
:101CC000A10D4000190D4000FC2500202426002015
:101CD00098250020C10C400004260020002600208A
:101CE00008B518B9054B984700BFFDE7044A1268CC
:101CF0000260044A1268426008BD00BFA10D4000A6
:101D0000182600201C26002038B518B9194B984712
:101D100000BFFDE70D46044619B9164B984700BFB2
:101D2000FDE7154B98472B68B3F1FF3F18D0134AD6
:101D300012682168914204D0114A12686168914288
:101D400010D90F4A11686068091A8B420CD91268C1
:101D5000121A9B1A2B6020460A4B9847002404E075
:101D6000002402E0012400E00124074B98472046AC
:101D700038BD00BFA10D4000B10D40001826002065
:101D80001C260020E11C4000D10D40000122014B27
:101D90001A60704740260020014B1868704700BF4A
:101DA00000260020054B1B6833B1054B1B68002B38
:101DB0000CBF0120022070470020704768250020DA
:101DC000FC250020002831D038B5C36A18490968BD
:101DD000C96A8B4229D216490968C96AC1F105014D
:101DE000816103EB8303134901EB8303416999424A
:101DF00017D10546041D20460F4B98470C4B1B6816
:101E0000D86AE8620D4B1B68984284BF0B4B186080
:101E100000EB80002146074B03EB8000084B9847FE
:101E200038BD034B1B68DB6AC36238BD704700BF17
:101E30000026002098250020190D400024260020AF
:101E4000C10C4000E8B138B5C16A026C914217D0AC
:101E50000446051D28460B4B9847206CE062C0F1F4
:101E60000503A361084B1B68984284BF064B1860AA
:101E700000EB80002946054B03EB8000044B98479C
:101E800038BD7047190D40002426002098250020F9
:101E9000C10C400008B54160006191420AD8D21AD5
:101EA00083699A4211D2011D0A4B18680A4B984760
:101EB000002008BD9A4201D2994208D2011D074B69
:101EC0001868054B9847002008BD012008BD012077
:101ED00008BD00BF80260020DD0C40004C260020FD
:101EE00070B50D4B98470D4B1B688BB90C4D2846B0
:101EF0000C4EB0470C4C2046B0470C4B1D600C4BB1
:101F00001C6000220C2105200A4B9847034B1860E7
:101F1000094B984770BD00BFB10D40007C260020E2
:101F200050260020A10C4000642600204C260020F2
:101F3000802600209D114000D10D400010B584B0D6
:101F40000B4B98470B4B1B685BB100230393029329
:101F5000019304220092C82207490848084CA04770
:101F600018B9084B984700BFFDE704B010BD00BF8B
:101F7000E11E40007C2600204826400091204000C1
:101F8000A1154000A10D400030B585B00F4C25686B
:101F9000CDB11C460191029203906CB90C4B98474D
:101FA00001284FF000030CBF089A1A4601A9074800
:101FB0000068084CA04707E00023224601A92846F4
:101FC000054CA04700E0002005B030BD7C26002075
:101FD000A51D4000F1114000111340002DE9F0470C
:101FE00082B08146224B98478046224B1B6898421C
:101FF00034D224E0DA68D2F800A0DB68DC68251D62
:102000002846B847636A20469847E369012B18D1F0
:10201000A36953449A4506D2636024612946306817
:10202000154B98470DE0002100910B465246204683
:10203000124CA04728B9124B984700BFFDE7114E3C
:10204000114F33681A68002AD4D1104A10680D491C
:10205000086013600123C9F8003002E00023C9F8CA
:102060000030044BC3F80080404602B0BDE8F08762
:102070001918400078260020DD0C4000891F400020
:10208000A10D40004C260020190D400080260020A4
:102090002DE9F04387B04D4DDFF860814C4B1B6854
:1020A0001A68002A00F08880DB681E68494B984750
:1020B00003A8494B98470746039B002B30D1864223
:1020C00024D8464B9847424B1B68DB68DC68201DD0
:1020D000C047E369012B14D1A16933463A46314424
:1020E00020463F4FB84701280BD1002100910B46F5
:1020F000324620463B4EB04718B93B4B984700BF8D
:10210000FDE7636A204698470CE00026F11B28682B
:10211000364B9847314B984720B9354B984701E0EB
:102120002E4B984702A82C4B98470746314EDFF8B4
:10213000B09039E0059C1CB163690BB1201DC0470C
:10214000039B022B20D0032B2BD0002B2CD10499E6
:10215000A0690B463A4601442046C847012823D1CE
:10216000636A20469847E369012B1DD1A2690021CB
:1021700000910B460498024420461A4CA04798B997
:10218000194B984700BFFDE70499A16119B9164B97
:10219000984700BFFDE73B463A4639442046C847CA
:1021A00002E02046144B984700231A4603A92868EA
:1021B000B0470028BED171E7064B984703A8064BED
:1021C00098470746039B002B9FD0A9E77C26002059
:1021D0004C26002009184000DD1F4000591940001E
:1021E000951E4000891F4000A10D4000FD144000D5
:1021F000910D4000A1134000CD0F4000190D40008B
:1022000080B55726064F4FF4FA753046B847284632
:10221000044CA0473046044B98472846A047F4E7B3
:10222000610740005D1A40007D07400008B5014B82
:102230009847FEE7A10D400008B54FF060515720C8
:10224000014B984708BD00BF9907400000B585B015
:10225000084B9847084B9847002303930293019338
:1022600001220092642205490548064CA047064B0E
:102270009847FEE7090640003922400050264000FA
:1022800001224000A1154000A117400070B50F4E7B
:102290000F4D761BB61018BF002405D0013455F839
:1022A000043B9847A642F9D10A4E0B4D761B00F02D
:1022B000D7F9B61018BF002406D0013455F8043BF6
:1022C0009847A642F9D170BD70BD00BF6C26400092
:1022D0006C264000742640006C264000844641EA8B
:1022E000000313F003036DD1403A41D351F8043B8E
:1022F00040F8043B51F8043B40F8043B51F8043BE0
:1023000040F8043B51F8043B40F8043B51F8043BCF
:1023100040F8043B51F8043B40F8043B51F8043BBF
:1023200040F8043B51F8043B40F8043B51F8043BAF
:1023300040F8043B51F8043B40F8043B51F8043B9F
:1023400040F8043B51F8043B40F8043B51F8043B8F
:1023500040F8043B51F8043B40F8043B51F8043B7F
:1023600040F8043B51F8043B40F8043B403ABDD2EE
:10237000303211D351F8043B40F8043B51F8043B90
:1023800040F8043B51F8043B40F8043B51F8043B4F
:1023900040F8043B103AEDD20C3205D351F8043B1F
:1023A00040F8043B043AF9D2043208D0D2071CBFEB
:1023B00011F8013B00F8013B01D30B880380604614
:1023C000704700BF082A13D38B078DD010F003038A
:1023D0008AD0C3F10403D21ADB071CBF11F8013BFA
:1023E00000F8013B80D331F8023B20F8023B7BE749
:1023F000043AD9D3013A11F8013B00F8013BF9D274
:102400000B7803704B7843708B788370604670470D
:1024100070B4840746D0541E002A41D0CDB2034682
:1024200002E0621EE4B3144603F8015B9A07F8D198
:10243000032C2ED9CDB245EA05250F2C45EA0545DA
:1024400019D903F110022646103E0F2E42F8105CF7
:1024500042F80C5C42F8085C42F8045C02F110029D
:10246000F2D8A4F1100222F00F0204F00F0410328F
:10247000032C13440DD91E462246043A032A46F87B
:10248000045BFAD8221F22F003020432134404F042
:1024900003042CB1C9B21C4403F8011BA342FBD1B5
:1024A00070BC704714460346C2E700BF40EA010310
:1024B0009B0770B42BD1032A29D90C460346214629
:1024C00054F8046BA6F1013525EA060515F0803FA6
:1024D00006D1043A032A43F8046B2146EFD8A2B18F
:1024E0000C781C70013A013301313CB16AB111F82A
:1024F000014B03F8014B013A002CF7D12AB11A44E1
:10250000002103F8011B9A42FBD170BC70470346BF
:10251000E5E700BF024B13B1024800F005B8704771
:102520000000000035254000002301461A461846E9
:1025300000F014B838B5074D074C2C1BA41005D07B
:10254000013C55F8043D9847002CF9D1BDE83840CE
:1025500000F090B884264000802640002DE9F04726
:10256000254C2568D5F84841064688469246994646
:10257000C4B360681F2817DC431C76B104EB8005E8
:102580000122C5F888A0D4F8881182401143022E98
:10259000C4F88811C5F808911ED00230636044F871
:1025A00020800020BDE8F087144B03B34FF4C870BF
:1025B000AFF300800446D0B1D5F84831002780E859
:1025C0008800C5F8484138460123C4F88871C4F82A
:1025D0008C71002EE1D0D1E7D4F88C110A43C4F8F5
:1025E0008C21DAE705F5A674C5F84841C1E74FF03C
:1025F000FF30BDE8F08700BF5C264000000000000F
:102600000080014000810140130000001300000021
:1026100000C0014000C1014014000000140000008F
:1026200000060E4000070E400800000008000000F1
:1026300000080E4000090E400900000009000000DB
:1026400049444C4500000000546D722053766300ED
:10265000426C696E6B79000043000000100000209E
:10266000F8B500BFF8BC08BC9E4670471525400071
:10267000F1004000F8B500BFF8BC08BC9E467047AA
:04268000CD00400049
:1026840000093D00AAAAAAAA00200000FFFFFFFF3C
:1026940000000000FC02002064030020CC030020A2
:1026A4000000000000000000000000000000000026
:1026B4000000000000000000000000000000000016
:1026C4000000000058264000000000000000000048
:1026D40000000000000000000000000000000000F6
:1026E40000000000000000000000000000000000E6
:1026F40000000000000000000000000000000000D6
:1027040000000000000000000000000000000000C5
:1027140000000000000000000000000000000000B5
:1027240000000000000000000000000000000000A5
:102734000000000000000000010000000000000094
:102744000E33CDAB34126DE6ECDE05000B00000059
:102754000000000000000000000000000000000075
:102764000000000000000000000000000000000065
:102774000000000000000000000000000000000055
:102784000000000000000000000000000000000045
:0400000500400A4964
:00000001FF
