:020000040040BA
:10000000B85900208D2C4000892C4000892C4000DC
:10001000892C4000892C4000892C40000000000001
:10002000000000000000000000000000952F4000CC
:10003000892C400000000000113040004D3040008D
:10004000892C4000892C4000892C4000892C4000DC
:10005000892C4000892C4000892C400000000000C1
:10006000892C4000892C400000000000A12A40009B
:10007000B52A4000000000003D2340004D23400011
:100080000000000000000000892C4000FD2040001E
:100090000D214000892C4000892C4000892C400013
:1000A000892C4000892C4000000000000000000066
:1000B00000000000892C4000892C4000892C400061
:1000C000892C4000892C4000892C400010B5054C3B
:1000D000237833B9044B13B10448AFF300800123F4
:1000E000237010BDF804002000000000A487400029
:1000F000084B10B51BB108490848AFF30080084809
:10010000036803B910BD074B002BFBD0BDE81040BE
:10011000184700BF00000000FC040020A487400036
:10012000A48740000000000001288CBF6FF007008A
:100130000020704770B5ADF5006D0E4614461D46A3
:1001400010B1012806D01FE01A462046114B9847EF
:1001500000201BE0294668460F4B9847034610B91C
:1001600000221DB90EE06FF007000FE03344A3F545
:1001700080035DF8233044F8043B013292B2134609
:100180009542F3D8002001E06FF007000DF5006DF7
:1001900070BD00BF918140008D05400038B5144608
:1001A0001A4610B101280CD015E00D460023214657
:1001B00028460A4CA047002814BF6FF00700002013
:1001C00038BD11462046064B9847002814BF6FF0F3
:1001D0000700002038BD6FF0070038BDC50440009F
:1001E000B905400030B40D4681B103689A420AD087
:1001F0000146002303E051F8104F944205D001332B
:100200009D42F8D102E0002500E01D46284630BCA2
:10021000704700BF002A0EDD0B7883420DD010B46A
:100220004B1C114403E013F8014B844207D08B426E
:10023000F9D1002004E00020704701207047012020
:1002400010BC7047F8B506460C46154610F0010F75
:1002500016D0032200210120274B9847606030B15F
:1002600000231A461946254FB847606818B9244B31
:10027000984700BFFDE700231A4619461F4FB847AD
:1002800016F0040F17D00322002101201A4B9847C3
:10029000206030B100231A461946184FB84720682D
:1002A00018B9174B984700BFFDE700231A461946B7
:1002B000144CA04701E00023236016F0080F18D06B
:1002C000BDB10322002101200B4B9847286030B1BB
:1002D00000231A461946094CA047286818B9084B4C
:1002E000984700BFFDE700231A461946054CA04772
:1002F000F8BD00232B60F8BDC13340001534400029
:10030000C52F4000C535400038B50F2903D9154B1E
:10031000984700BFFDE7092903D8124B984700BF53
:10032000FDE7C5B205F01F04012303FA04F44209F6
:10033000920002F1604202F56142C2F88041002859
:1003400006DA05F00F050B01DBB207494B5507E054
:100350000B01DBB200F1604000F5614080F8003332
:10036000146038BDC52F400014ED00E04368B3B100
:1003700030B583B00D46044668460D4B98470023C0
:100380002A68194660680B4CA04750B12946684658
:10039000094B9847012807D10020286005E000207C
:1003A00070476FF0020000E0002003B030BD00BFD6
:1003B000053F4000C53540002D3F4000F0B583B0FB
:1003C0000E4615461C46089B13B10360184601E013
:1003D000006820B100231A461946134FB84700960B
:1003E00001959DF824307BB14FF4007120460F4BEE
:1003F00098470022694620460D4B98474FF480717C
:1004000020460C4B98470CE002212046074B9847AA
:10041000002269462046084B984701212046054B9B
:10042000984703B0F0BD00BFC53540009923400098
:100430005D2340008D2340007523400061B90068B2
:1004400060B110B500231946054CA04701280CBF28
:1004500000206FF0020010BD0020704700207047A0
:10046000C5354000A1F10E03012B21D910B582B092
:10047000EFF31083B3FA83F35B09019372B6BFF312
:100480005F8F00240D4B1C70019C120222F07F42F2
:1004900022F0FF0242F0B442C9B21143084B984720
:1004A0004CB10122054B1A70BFF35F8F62B602E0B8
:1004B0004FF0FF30704702B010BD00BFAC0000200D
:1004C0006D0000202DE9F04F85B000910393A0F559
:1004D0008003C3F34F2BC0F30807002A49D092468C
:1004E000DFF8A49009F5FE75C7F5007302931C466A
:1004F000534528BF5446CDF804B00BF500534FEADE
:1005000043283A46414648461C4EB0472246009989
:1005100009EB0700B0473819029A121B04EB0801D7
:1005200092B239444844B047A9F10403A8F1040247
:1005300053F8041F42F8041FAB42F9D1039B2BB1BF
:10054000019A03210E480F4B984704E0019A0121BC
:100550000B480C4B984768B9009B234400930BF160
:10056000010B1FFA8BFB0027BAEB040ABCD13846FB
:1005700000E0002005B0BDE8F08F00BF9181400091
:10058000000A0E40650440001405002010B582B03A
:10059000802928BF80210091034615221421044898
:1005A000044CA047002818BF102002B010BD00BFA7
:1005B000000A0E400100002080291AD810B50A4612
:1005C00001460D4C920020460C4B9847231F04F522
:1005D000FE700B4A53F8041F42F8041F8342F9D1FE
:1005E000002212210748084B9847002818BF102006
:1005F00010BD1120704700BF1405002091814000FC
:10060000FCFF3F00000A0E406504400030B587B093
:100610000C4668238DF8103000238DF8003001213E
:10062000019105A90291032103916946064DA8474E
:100630009DF8143023809DF8153063809DF81630A6
:10064000A38007B030BD00BF1D1F400030B587B08C
:100650000C4668238DF8103003238DF800300123F9
:10066000019305AB02930423039300236946084DCD
:10067000A8479DF8143023809DF8153063809DF8BD
:100680001630A3809DF81730E38007B030BD00BF5F
:100690001D1F400010B588B01C468DF80720682348
:1006A0008DF81C308DF80C10012304930DF1070216
:1006B000059206930023224603A9024CA04708B0E6
:1006C00010BD00BF991D400010B513460A46002119
:1006D000014CA04710BD00BF9506400010B5134661
:1006E0000A460121014CA04710BD00BF95064000FD
:1006F00010B513460A460221014CA04710BD00BFA9
:100700009506400010B513460A460321014CA04748
:1007100010BD00BF9506400010B513460A460421DF
:10072000014CA04710BD00BF9506400010B5134610
:100730000A460521014CA04710BD00BF95064000A8
:1007400010B513460A460621014CA04710BD00BF54
:1007500095064000F0B587B00446154611B36823EE
:100760008DF810300B238DF800300123019305AB79
:1007700002930323039380268DF814608DF815608F
:100780008DF81660002369460A4FB8472B460622AB
:100790000E212046084FB8472B4632460F212046EF
:1007A000B84704E0134604220E21034CA04707B0CB
:1007B000F0BD00BF991D40009506400010B586B001
:1007C0001C4668238DF814308DF804100123029321
:1007D000039204930023224601A9024CA04706B0CD
:1007E00010BD00BF1D1F400010B588B08DF8073048
:1007F0008DF81C108DF80C20012304930DF10702D5
:100800000592069300230A9A03A9024CA04708B058
:1008100010BD00BF991D4000F0B583B006460F46DD
:100820001546009200237F22104CA047009501231B
:10083000062239463046A047009520237F223946BC
:100840003046A04700953123142239463046A04750
:1008500000950023102239463046A04700953F23DB
:10086000112239463046A04703B0F0BDE9074000E9
:1008700010B586B08DF814108DF804200122029274
:10088000039304920023089A01A9024CA04706B0E2
:1008900010BD00BF1D1F40002DE9F04182B006468B
:1008A0000F4690461C46009300237F22174DA84711
:1008B000009408F101032D2239463046144DA84713
:1008C000009443462E2239463046A847009408F14A
:1008D00003032F2239463046A847009408F102034B
:1008E000302239463046A847009408F105033122EA
:1008F00039463046A847009408F1040332223946AD
:100900003046A84702B0BDE8F08100BFE9074000CB
:1009100071084000D9B130B40B46411E013B50FA7A
:1009200083F44FF6FF7008254AF2010211F8013FE7
:1009300058402B4610F0010F14BF82EA50004008C7
:10094000013B13F0FF03F5D1A142EFD102E04FF6D6
:10095000FF70704730BC70472DE9F843089E0F7850
:10096000874202D0002F40F0DA801C4615460F4621
:100970008046911EC9B23846794B98473D4415F8D8
:10098000012C15F8023C43EA0223834240F0E68042
:100990007B78062B47D0102B72D0032B40F0BB8006
:1009A0003A797B7943EA02231BB21FFA83FE0EF1E8
:1009B000FF3292B27C2A00F2B680B978FA7842EA25
:1009C00001270EEB0702242A00F3B08084F8008090
:1009D000032262705B00A370BEF1000F15D00023EC
:1009E0001546DFF880C16A1CD2B2D8193CF8101045
:1009F000090A61550235EDB23CF81010A1540133DB
:100A0000DBB29AB29645EED800E00325294620468F
:100A1000534B984760556B1CDBB2000AE05402351B
:100A20003570BDE8F883BA78FB7843EA02231DB23B
:100A3000ABB2242B7DD839797A7942EA012249492F
:100A400021F8132084F8008006216170BB78A37020
:100A5000FB78E3703B7923717B7963712046404BCF
:100A60009847A071000AE071082333703E4B1B6861
:100A7000002B73D00122E9B23A489847BDE8F883C9
:100A80003A797B7943EA02235A1E92B27C2A53D8E0
:100A9000BD78FA7842EA05252DB21FFA85F94B4454
:100AA000242B4CDC84F8008010236370BB78A37087
:100AB000FB78E3703B7923717B79637106212046D3
:100AC000274B9847A071000AE07108233370BC7966
:100AD0000734072C17D9002207231146214E13F0A3
:100AE000010F02D0F95C090207E0F85C014302EB58
:100AF000090026F810100132D2B20133DBB298B2ED
:100B00008442ECD800E00022174B1B68E9B215487C
:100B10009847BDE8F88343F08003012211E00023E9
:100B20003370BDE8F883032283230AE00222832383
:100B300007E00222862304E00322902301E0022240
:100B4000902384F800806370A27003212046044B38
:100B50009847E070000A207105233370BDE8F883E0
:100B600015094000140700209C2900200B280CD1F7
:100B7000B1F5801F09D1054B1B8E33B9044B1B788F
:100B8000022B02D80133024A137070471407002069
:100B90005D07002038B5224C04232246214900205D
:100BA000214DA8470423E21820490020A847042328
:100BB00004F108021E490020A847042304F1300272
:100BC0001C490020A847042304F134021A490020DC
:100BD000A847042304F1140218490020A847184B21
:100BE000A4F1100261885980118A1980154BE1889F
:100BF0005980A1881980144B6189598021891980F5
:100C0000124BE18E5980A18E1980114B618E598053
:100C1000218E19800F4BE18A5980A28A1A8038BD33
:100C20002407002000FC43003501400004FC430081
:100C300008FC43000EFC430012FC430016FC43007A
:100C4000A0000020A400002094000020A8000020A4
:100C5000980000209C00002010B584B0074B0FCBFB
:100C60008DE80F001320064B984769460548064B50
:100C70009847064B186004B010BD00BFB484400014
:100C8000352C400000800140811C4000A02900203C
:100C900008B5054B98470020044B9847044B9847EC
:100CA0002020044B984708BD590C40002901400002
:100CB000950B4000B12740002DE9F04F85B08046EC
:100CC0000F46294DB0F90000A847284C4FF060515D
:100CD000A0470646B8F90200A8474FF06051A04768
:100CE0000090B8F90400A8474FF06051A047029067
:100CF0001F4DA847804689460098A84742464B4664
:100D0000DFF87CA0D047DFF87C80C0471949A047B6
:100D1000DFF874901849C847386000990846A04722
:100D20000390DFF868B000990846A0470090029948
:100D30000846A04701460098D847A8470F4B984758
:100D4000C0477860A847CDE9000106F10040A847F8
:100D5000DDE90023D047C0470649A0470649C847F8
:100D6000786005B0BDE8F08F517C4000F97C400010
:100D7000E573400000003443DB0F4940454B400021
:100D8000414B40003D7A4000617E4000E97A4000DE
:100D90002DE9F04F89B00546019000230693ADF888
:100DA0001C30322306AA692145480068454CA047FB
:100DB00003A906A8444B984703992846434B9847F4
:100DC00004460021424B984730B12120414B9847BF
:100DD0002220414B984705E021203F4B9847222095
:100DE0003C4B98473D4920463D4B984730B14FF02A
:100DF0007E5120463B4B9847002853D12020364B4C
:100E00009847DFF8DCB04FF0000ADFF8B4903DE01F
:100E10000124554601E0012455462A4F2A4E32232B
:100E200006AA6921D9F80000B84703A906A8B04767
:100E300029460398254B9847804620462A4B9847D9
:100E400001464046294B984701462846284B98477B
:100E500005462848284B98470134092CDFD10395D3
:100E600029460198194B984704465146184B984714
:100E700030B12120174B98472220174B984705E0A7
:100E80002120154B98472220124B984713492046A2
:100E9000D8470028BCD04FF07E512046114B9847D0
:100EA0000028B8D020200B4B9847144BBDF80E20DB
:100EB000DA83BDF80C209A8309B0BDE8F08F00BF3B
:100EC000A029002099084000B90C4000E57A4000B4
:100ED00071804000B127400095274000000080BF8E
:100EE0005D80400035804000517C4000617E4000C4
:100EF000E97A40004A3B05008900002014070020E1
:100F00002DE9F04F99B098490F894B891D0905EBE0
:100F1000850503F00F0303EB45052DB28B898A8805
:100F20004888040904EB840400F00F0000EB44003F
:100F300000B205900988080900EB800001F00F015C
:100F400001EB400109B20691100900EB800002F0AC
:100F50000F0202EB400002B20792022DCCBF4FF00D
:100F600000084FF0010803F00F0404F5FA641B09B0
:100F700003EB830304EB4303C8F5965404FA83F4AC
:100F8000DFF870922046C84706464FEA48004044C2
:100F900005EB8000033800EBC00000EB00100230CE
:100FA000C847724D7249A8478046380900EB800057
:100FB00007F00F0707EB400000B2C8470146404664
:100FC0006C4B9847804640F26D1000FB04F0C84718
:100FD00001464046674B98478046674C4FF07A5130
:100FE0003046A04701464046624B984780466349D9
:100FF0003046A847DFF800B201464046D847804651
:101000005F493046A847014640465A4B98475D49DC
:10101000D8470646079BA3F10C00C8475A49A84782
:1010200080460598C8475949A84701464046514B54
:10103000984780460698C8475549A8470146404604
:101040004C4B9847014630464A4B98475149D84740
:101050005149A84707465149A0475149454B984730
:101060003946A0474F49434B98474F4B98474F4A03
:1010700080FB0223C218C317C3EB22234FF4B472C0
:1010800002FB1300C847089049493846A04701466B
:101090004848D8473946A0474749364B9847804685
:1010A00046493846A0474649324B98473946A047FB
:1010B00001464448D847049043494046A047434925
:1010C000A8471090424EB047424B9847CDE90001E7
:1010D0004146CDF830804046264B98473A49A047D4
:1010E0003A49A847B0473B4B9847CDE90A013A49EE
:1010F0003846A04739491F4B98473946A047014613
:101100003748D847B047DFF8F4A0DDE90023D047DF
:10111000DFF8EC80C047B047CDE90E0131490297B6
:101120003846A04701463048D847B047DDE90A2392
:10113000D04702460B46DDE90E012C4FB847CDE9FA
:101140000A012B490C98A0471F49A0471F49A847EF
:10115000B047204FB84702A3D3E9002352E000BFB5
:10116000000000809DF0323F14070020617E4000A7
:101170000000A040E97A4000F97C40000000C8422D
:101180000000C843005AFA460000C0410000B444C1
:1011900000C0A84764A1154A00AD0E47D1F69E399C
:1011A000C5A00C47B53B8C4385804000B7600BB6AB
:1011B000882A21390D9F0C47BAC3B243080B083463
:1011C000E35030388CE0883CDB0F4940000034436A
:1011D000E5734000FD4840008BE16A37EDD79D3B49
:1011E000AE11F53FF6CFD3385CC8A33C297140005F
:1011F00000004040517C4000E57A40008D74400082
:101200003D7A4000D047CDE90C01DDE90A01C04735
:10121000B04702460B46DDE90C01894FB847CDE9DE
:101220000E0188490298A04701468748D847874958
:10123000A0478749A847B047CDE90A01854FB8477D
:10124000CDE90C01DDE90A01834FB847CDE90A0178
:101250008249029F3846A04701468148D84739460F
:10126000A0478049804B98473946A04701467F48B0
:10127000D8477F49A8477F497B4B98477C49A84777
:101280007D49794B9847B047CDE9020166A3D3E980
:101290000023DDE90A01D04702460B46DDE90201E1
:1012A000674FB847C04712906849A0476849A847A8
:1012B000B047684FB847CDE90201DDE90E01C047EC
:1012C0000899694B98476D49D847B047CDE90A015D
:1012D00057A3D3E90023DDE90C01D047DFF8B4B10F
:1012E00002460B46DDE90A01D847C0475749A047E7
:1012F0005749A847B047B84702460B46DDE9020107
:10130000D0475F4B9847CDE90A014FF07C511298C6
:10131000A0474E49A0474E49A847B047594FB84744
:1013200002460B46D047C047029048490898A0475C
:101330004749A8470E9001464B4B9847B047CDE927
:101340000801444FB847CDE90C01DDE90801424FDF
:10135000B847CDE908014FF081410E98A047B0474A
:101360003C4FB847CDE90E01DDF840E071467046CC
:101370003D4B9847B047B847CDE910013349424B40
:101380001868A0473249A847B047CDE91201324F4B
:10139000B847CDE91401DDE90A01C0472C49A0474F
:1013A0002A49A8472949A0472949A847B047CDE974
:1013B0000A01B847CDE91601DDE91201314FB847FE
:1013C000CDE91201DDE90A01B847CDE90A01DDE9FD
:1013D0001623DDE91401D04702460B4616A1D1E9D8
:1013E00000012A4FB847CDE91401DDE90A23DDE900
:1013F0001201D04702460B46DDE91401D847244BC1
:101400009847C0471249A0471049A8470A90029838
:10141000B047DDE90C23D047CDE90C01049F3946E4
:10142000384639E0AFF3008000000080B5F8643F33
:10143000000000803194733FE519152021C68DBF4F
:10144000297140005AC4F1447B14FA42DB0F494031
:1014500000003443FD484000694840002FA2ED3AA7
:101460003BAA1A3A8F423B42E97A40008195AB4150
:10147000000070420000D0410000B8412E73BA3B1A
:10148000914A400085494000A0000020E1764000DC
:10149000E1494000257140004F4B9847B047DDE9D6
:1014A0000023D04702460B46DDE90C01D847CDE9C1
:1014B0000C014FF0814104973846A0470299A0479C
:1014C000B047DDE90023D047DDE90823D0470246D5
:1014D0000B46DDE90C01414FB847CDE900014FF063
:1014E0007C51029F3846A0473946A047B047DDE906
:1014F0000E23D04702460B46DDE90001D847CDE96F
:1015000000013749049F3846A0473946A047B047F5
:10151000DDE91023D04702460B46DDE90001D8473C
:10152000C0473049A0473049A8474FF08141A04704
:1015300006460598C0EB00139B004FF46160079AC4
:1015400000FB023006990844C8472849A8472849A3
:10155000A04701463046204B984705464FF0814151
:10156000244B1868A047014628461B4B9847054660
:101570002149224B1868A04701462846204B98472E
:10158000204B9847204A80FB0223C218C317C3EBA5
:10159000A2234FF4B46202FB1300C8474FF07A5104
:1015A000A04704460021194B984728B10D49204611
:1015B000094B9847044604E00A492046104B9847D7
:1015C00004460A991248134B98472146124B9847F4
:1015D00019B0BDE8F08F00BFE97A400029714000E2
:1015E0000000A03F00003443DB0F494000C0A84783
:1015F0000000B444A40000200000704294000020C9
:10160000E57A400085804000B7600BB63580400029
:101610000000B442617E4000F97C400030B587B0E4
:101620000023ADF81030ADF81230ADF81430204C76
:10163000204D3222214628681F4B98473222A11D97
:1016400028681E4B9847322304AA692128681C4D3C
:10165000A84701A904A81B4B9847BDF80630E383AF
:10166000BDF80430A383184B98470090BDF80230B2
:101670006384BDF800302384638E33B12120134B83
:1016800098472220124B984705E02120104B98479D
:1016900022200E4B9847064B9B8E1BB120200C4BF3
:1016A000984702E02020094B984707B030BD00BFA3
:1016B00014070020A02900200D0640004D06400020
:1016C00099084000B90C4000010F4000B1274000CC
:1016D0009527400038B50546274C2849A04728499A
:1016E000284B98472849294B9847294B9847294B1D
:1016F0009847294B9847294B1968A047284B1968E8
:10170000284B984704464FF07E51274B98470028B6
:101710002BD020461E4B9847244B98471E4B98478A
:101720002349154B9847044622492846224B98479F
:1017300058B1002128461C4B984730B104F10040B5
:101740004FF07C510C4B984738BD002128461A4B6E
:10175000984760B119492846194B984748B14FF04E
:101760007C512046044B984738BD164838BD20466A
:1017700038BD204638BD00BFF97C4000E7088F3CEB
:101780009A99C93FE97A4000577AED3CE57A4000E2
:10179000E5734000FD4840003D7A4000980000207D
:1017A000A8000020617E400035804000914A400042
:1017B000E62E65420000B4C25D8040000000B442E5
:1017C000498040000000C07F70B582B0304B984720
:1017D000304C314D322221462868304B9847322216
:1017E000A11D28682E4B98472E4B9847054601901F
:1017F000BDF806306384BDF8043023842A4B1B787F
:101800009BB92A4B1C6804F10041294B984740B111
:1018100021462846274B984718B12846264B98471B
:101820002FE00122204B1A702BE02449204B9847CF
:10183000B8B1234928461F4B984790B12846214B01
:1018400098470646194B1C6804F10041184B98470D
:1018500038B121463046174B984710B13046164BE9
:101860009847124B1C6804F100412846104B9847DA
:1018700038B1214628460F4B984710B100220A4B39
:101880001A700022104B1A70104B984702B070BDAE
:10189000D52F400014070020A02900200D0640008D
:1018A0004D064000010F40005C0700209C00002016
:1018B0005D80400049804000910D40000000B4C2AE
:1018C0000000B442D51640005D070020F52F40000F
:1018D00070B582B000238DF80730184C3222692190
:1018E0002068174B9847322201212068154B9847F2
:1018F000154D164E32230DF107020F212068A8471F
:101900009DF8073013F0020F04D0322300220F217C
:101910002068B0470E4B1B8E4BB90E4B1B78022B29
:1019200007D90D4B984700220A4B1A7001E00B4B68
:1019300098474FF47A700A4B9847DBE7A0290020BC
:101940001908400055074000BD07400095064000BB
:10195000140700205D070020C91740001D16400035
:10196000813C400030B587B06C46104D0FCD0FC4A0
:1019700095E8030084E803000E200D4B98470D4CBA
:101980000D4A694620460D4B984720460C4B984718
:1019900020460C4B984720460B4B98470B4B186042
:1019A00040F201110A4B984707B030BDC484400093
:1019B000352C400000400240000E2707C52440009F
:1019C000E9244000F924400029254000A4290020F2
:1019D0008D23400008B5054B186059600022194658
:1019E000034B1868034B984708BD00BFA829002087
:1019F000A42900205D23400008B5054B18605960FC
:101A000000221946034B1868034B984708BD00BFD6
:101A1000A8290020A42900207523400008B5054B03
:101A20001868054B9847C0F19600972828BF0020FA
:101A300008BD00BFA4290020A923400008B5034821
:101A4000034B984700F0100008BD00BF0040024063
:101A5000152540002DE9F04383B00746002301938C
:101A600003017D4AD55828467C4B984706462846B0
:101A70007B4B9847064016F4005F4AD0764B03EB49
:101A800007134FF400715868764B98474FF4005194
:101A90002846754B984700242B6A13F0040F06D193
:101AA0000134B4F1FF3FF7D14FF0010801E04FF0EE
:101AB000000802232B606D4B03EBC70153F837205E
:101AC0004B68134413F8013C6B632B6A13F0010F4E
:101AD00004D10134B4F1FF3FF7D19FE0644B03EB35
:101AE000C703586810B907E04FF00108002301AAA6
:101AF0001946DFF88091C847B4F1FF3F0BD05C4B2B
:101B000053F8370038B1002301AA1946594CA047B1
:101B100001E04FF0000816F4805F54D04E4B03EB09
:101B20000713022158684F4B98474FF480512846BD
:101B30004D4B984700242B6A13F0020F03D1013458
:101B4000B4F1FF3FF7D102232B60484B53F8371015
:101B500003EBC7035A68286B8B1803F8020C2B6A37
:101B600013F0020F04D10134B4F1FF3FF7D168E064
:101B7000B4F1FF3F5ED02B6B0A4402F8013C002415
:101B80002B6A13F0010F04D10134B4F1FF3FF7D1F8
:101B90004EE0374B03EBC703586810B907E04FF02E
:101BA000FF34002301AA1946DFF8C890C847B4F1F2
:101BB000FF3F08D0304B53F8370020B1002301AA73
:101BC00019462C4CA04716F4507F02D1B8F1000FF3
:101BD0001FD0214B03EB071340F202215868214B21
:101BE000984716F4807F04BF02232B604FF4005106
:101BF00028461D4CA0474FF480512846A0471C4B57
:101C000003EBC707786820B1002301AA1946194CD5
:101C1000A047019BE3B1194B984719E0144B03EB24
:101C2000C703586800287FF45FAF4FF0010872E7E0
:101C30004FF001080E4B03EBC70358680028AED1E4
:101C4000C1E70B4B03EBC70358680028A9D1BAE7DB
:101C500003B0BDE8F08300BFDC844000C92340002E
:101C6000CD23400099234000C1234000700700208D
:101C7000800700203535400060070020B52F400068
:101C80002DE9F04F83B005460E4602AF032307F857
:101C9000043D024602213048304B98470446012259
:101CA0003946307B2E4B9847012C4DDC00284DD017
:101CB0002C4B03EBC40808222B4940462B4B98477A
:101CC00018B12B4B984700BFFDE72A4B03EBC40923
:101CD000082225494846254B984718B1244B984778
:101CE00000BFFDE7DFF870A027010AEB070BDBF868
:101CF0000800214B984740F20221DBF804001F4BFB
:101D000098475AF807704FF0FF3138461C4B9847F8
:101D100038461C4B9847337B032B02D138461A4B6D
:101D200098474A464146707B184B98474FF450718C
:101D30003846174B9847084B03EB0414B16894F9E5
:101D40000C00144B984702E0002500E000252846CF
:101D500003B0BDE8F08F00BFDC844000E501400027
:101D60001502400080070020FC8440002D814000C7
:101D7000C52F400060070020352C4000992340000B
:101D8000C1234000D9234000AD234000450240005C
:101D9000BD234000090340002DE9F04385B004460F
:101DA0000D4603929946024602215248524B9847EB
:101DB000012800F395800646EB68002B00F0938025
:101DC0004E4F07EBC00703A938464D4B9847804656
:101DD000002840F08B80002363602B7C1B0403F4FD
:101DE000FE026B681B0203F44073134363606A686E
:101DF0005AB12B78012A84BF697841EA0323022A69
:101E000004D9AA7842EA032300E00023E360EA68E9
:101E1000012A47D13301374AD7584FF45071384619
:101E2000384B9847AB681B7863630023226A12F42F
:101E3000807F10D04FF450713846334B98472F4B6A
:101E400003EBC60600231A46194670682F4CA047BC
:101E50006FF009004AE012F0040F05D10133B3F12D
:101E6000FF3FE3D16FF002080222226003E001335A
:101E7000B3F1FF3F04D0226A12F0010FF7D001E066
:101E80006FF002084FF4507138461F4B98471B4BB8
:101E900003EBC60600231A46194670681B4CA04780
:101EA000404623E0A9681A4B43F8361003EBC603FB
:101EB0005A60104B03EB0616736801200190CDF8B1
:101EC0000090013A3846134DA8474FF40051204680
:101ED0000D4B9847039A494638460F4B984705E003
:101EE0006FF0070002E06FF00700FFE705B0BDE804
:101EF000F08300BFDC844000E50140008007002043
:101F00006D034000C1234000BD2340001534400054
:101F100070070020BD0340003D0440002DE9F04162
:101F200084B004460D460392984602460221674853
:101F3000674B9847012800F3BF800646EB68002BEB
:101F400000F0BD8003A9634800EBC600624B9847D0
:101F50000746002840F0B6802046604B9847002393
:101F600063606B681B0203F4407343F480522B7C64
:101F70001B0403F4FE03134363606A685AB12B78B1
:101F8000012A84BF697841EA0323022A04D9AA7886
:101F900042EA032300E00023E360EA68022A69D8EA
:101FA00033014A4A52F803804FF4507140464C4B7B
:101FB0009847EB68A868012B0DD103222260012508
:101FC000FFE7226A12F4807F0FD100214FF0020C4C
:101FD0004FF0010E1AE0012222600025002BF0D103
:101FE0002CE0226A12F4807F10D04FF450714046EA
:101FF0003C4B9847374B03EBC60600231A4619465D
:102000007068394CA0476FF009005BE0012B03D1E9
:1020100015B9C4F800C0754612F0020F04D10131A1
:10202000B1F1FF3F05D107E0226B0270013B0130A7
:102030000021002BD5D101E06FF002074FF0FF33F4
:1020400001E0013B04D0226A12F0010FF9D001E057
:102050006FF002074FF450714046224B98471D4BDA
:1020600003EBC60600231A46194670681E4CA047AB
:10207000384627E0A9681D4B43F83610F0000344AA
:102080005A601B4D0544114B03EB06167368002084
:102090000190CDF80080023A2846164EB047012341
:1020A00023604FF4805120460E4B9847039A4146D7
:1020B0002846114B984705E06FF0070002E06FF0EB
:1020C0000700FFE704B0BDE8F08100BFDC844000FA
:1020D000E5014000800700206D034000D12340004F
:1020E000C1234000BD23400015344000700700208C
:1020F00060070020BD0340003D04400008B50020FB
:10210000014B984708BD00BF551A400008B5012093
:10211000014B984708BD00BF551A400070B5C0EB91
:10212000C0022E4B03EB82039A699B689A4214D13A
:1021300051B9C0EBC001294B03EB81030021D960E9
:102140005B689A4242D924E0C0EBC004234901EB0A
:1021500084014C68A21ACA6011E09A4207D9C0EB08
:10216000C0041E4901EB8401D21ACA6007E0C0EB2B
:10217000C0011A4A02EB81025168C91AD160C0EB52
:10218000C001164A02EB8102D1680B4452689342A7
:1021900003D9134B984700BFFDE7B9B1114D0401B6
:1021A0002B195E68C0EBC0000C4B03EB80010022D2
:1021B000083130460C4B9847012130460B4B98476D
:1021C0004FF4847128590A4B984770BD00014FF4B1
:1021D0008471044B1858074B984770BD9007002036
:1021E000C52F400004854000752340008D2340002A
:1021F000092540000D254000F0B583B004460023BA
:1022000001930301414AD6583046414B9847054651
:102210003046404B9847054015F0100F16D010215E
:1022200030463D4B98473D4B03EBC403586820B103
:10223000002301AA19463A4FB847384B53F83400E7
:1022400020B1002301AA1946354FB84715F0080FF1
:1022500033D0C4EBC402334B03EB82039B691BB93D
:10226000314B984700BFFDE7012B03D12E4B984718
:1022700000BFFDE7C4EBC4022A4B03EB820399685D
:10228000DA680A449A605B689A4206D3254AC4EB2E
:10229000C4039B00D118D3588B6000212046234BE8
:1022A0009847C4EBC4021F4B03EB8203186920B1AB
:1022B000002301AA19461A4FB84715F4807F0ED0A3
:1022C00030461B4B9847C4EBC402164B03EB82030A
:1022D000186920B1002301AA1946114FB84715F01B
:1022E000E00F0CD03046134B98470C4B03EBC40463
:1022F000606820B1002301AA1946094CA047019B40
:102300000BB10D4B984703B0F0BD00BF04854000F2
:1023100015254000112540000D254000C80700206C
:102320003535400090070020C52F40001D2140009A
:102330002125400019254000B52F400008B5002098
:10234000014B984708BD00BFF921400008B50120A6
:10235000014B984708BD00BFF92140000B4619B159
:10236000096881605B68C3601AB113688361536850
:10237000C36170470B4619B1096801605B6843602F
:102380001AB11368036153684361704721F0FE017D
:10239000C905C90D0162704721F4FE7121F00101E8
:1023A0008905890D01627047406870470823036002
:1023B0002023036004230360704700BF416270471D
:1023C0008162036A704700BF006A7047C06A704745
:1023D000006BC0B2704700BF80230360036B70477F
:1023E00010B40C0194420FD91AE0416841F4002165
:1023F0004160120402F4E0221A43026200201CE051
:1024000001201AE0012018E0630803EBC202B2FBCE
:10241000F4F2D3085C1E4FF6FE718C42E9D9EFE767
:10242000C9004B0803EBC202B2FBF1F2D3085C1EF9
:102430004FF6FE718C42E5D8D7E710BC704700BF5D
:102440000A4BC0F8E4300023436043628362882370
:102450000360242303604FF4807303604FF4002370
:1024600003604FF400330360704700BF00415355D1
:1024700070B505460C4616460F4B984700220F4B89
:102480001A609CB13246216828460D4B9847024697
:1024900070B96168A368194323691943E3680B4362
:1024A00006490B6069680B436B6002E0012200E0A3
:1024B0000122104670BD00BF41244000D807002013
:1024C000E123400010B50446064B984738B9024650
:1024D000636823F00F0343F00103636000E001220F
:1024E000104610BD7124400040230360704700BFB8
:1024F00080230360704700BF10230360704700BF54
:1025000020230360704700BF81607047C16070473F
:1025100000697047406970474FF4807303607047EB
:102520004FF4006303607047064B984207D003F5F1
:102530008243054A90420CBF18460020704703486A
:10254000704700BF0040024000800240004102404E
:1025500030B583B04FF40042204B5A600B20204C22
:10256000A0470C20A0471F4C4FF00062E0212046FE
:102570001D4DA8474FF0006218212046A8474FF094
:1025800040512020194DA8474FF040512120A84725
:102590004FF040512220A8474FF040511020A8474B
:1025A0004FF020511420A847114B009354234FF4AF
:1025B00080120B2120460F4DA8474FF400620E4BAE
:1025C0001A600F220B2120460C4B98474FF48011C4
:1025D00020460B4B984703B030BD00BF50140E404F
:1025E000352C4000000E0E40F1284000CD27400061
:1025F0006D0B4000352A400000E100E0C92A400090
:102600008527400010B50E480E4B98473E2100200C
:102610000D4B98470D4CA0470028FCD00C4B984719
:102620000C4A0D4B9A620D4CA0470028FCD010209C
:102630000B4B98470B4B98470148024B984710BDEE
:10264000000E2707512E4000B12B4000052C400002
:10265000152C4000013F132000040E40252C4000A3
:10266000492B40003D2D40004264B1F1C05F2FD0A6
:1026700007D8B1F1006F14D0B1F1805F1ED039B925
:102680007047B1F1205F36D004D8B1F1005F29D096
:1026900042607047B1F1405F2DD0B1F1605F2AD048
:1026A000F6E710B4046F016FD3432140194001676E
:1026B000446F416F21400B4043671AE0036F13439F
:1026C0000367416F436F0B4023EA02034367DFE771
:1026D000016F036F0B4023EA02030367436F134349
:1026E0004367D5E7036F13430367436F13434367A0
:1026F000CEE7426010BC7047416412F0010F14BF76
:102700004166016612F00A0F14BF0162416212F0C5
:10271000020F02D0C0F8801004E012F0080F18BFBA
:10272000C0F8841041610160704700BF10B441647B
:10273000019C0CB1416600E001660BB1016500E04F
:1027400041650AB1016300E041630161016010BCB1
:10275000704700BF12F0100F10D0C0F8B01012F088
:10276000200F14BFC0F8D410C0F8D01012F0400FE2
:1027700014BFC0F8C010C0F8C4107047C0F8B4103F
:10278000704700BF0164704741647047C06C704778
:10279000806C7047430903F5001303F207735B0273
:1027A00000F01F00012202FA00F01863704700BF1A
:1027B000430903F5001303F207735B0200F01F00E7
:1027C000012202FA00F05863704700BF70B582B072
:1027D0000D46430903F5001303F207735C0201F091
:1027E000F043B3F1005F47D009D8B3F1805F21D047
:1027F000B3F1C05F2FD0B3F1006F6FD109E0B3F137
:10280000405F55D0B3F1605F52D0B3F1205F44D048
:1028100064E000F01F000126864032464FF0006160
:102820002046304B984715F0010F14BF66662666A8
:10283000012054E000F01F000126864032464FF090
:1028400080512046274B984715F0010F14BF66664C
:102850002666012043E000F01F0001268640324634
:102860004FF0C05120461F4B984715F0010F14BF81
:1028700066662666012032E000F01F0001268640D1
:1028800032464FF000512046164B984715F0010F85
:1028900014BF66662666012021E000F01F010126B4
:1028A0002A4606FA01F120460F4B9847304616E0BB
:1028B00005F0605200F01F01012605EA06030093AF
:1028C000C5F38003B2F1605F14BF0022012206FA53
:1028D00001F12046054CA047304600E0002002B040
:1028E00070BD00BF69264000F92640002D2740003A
:1028F00070B582B005460E46144602F0F043B3F1BF
:10290000005F38D009D8B3F1805F1CD0B3F1C05F4D
:1029100025D0B3F1006F50D109E0B3F1405F3AD058
:10292000B3F1605F37D0B3F1205F30D045E00A46A5
:102930004FF00061224B984714F0010F14BF6E66F0
:102940002E6601203AE00A464FF080511C4B984712
:1029500014F0010F14BF6E662E6601202EE00A46A9
:102960004FF0C051164B984714F0010F14BF6E661C
:102970002E66012022E00A464FF00051104B984786
:1029800014F0010F14BF6E662E66012016E00D4B89
:102990009847012012E004F0605204F00103009314
:1029A000C4F38003B2F1605F14BF002201223146FC
:1029B0002846054CA047012000E0002002B070BD71
:1029C00069264000F92640002D2740002DE9F843F4
:1029D00081468846124B984705464846114B984712
:1029E000054013D0104C04F160062368434508D11C
:1029F0006168294205D0E36840469847636825EA44
:102A00000305B44202D01034002DEED1074B1B68F1
:102A100023B1074B1B680BB148469847BDE8F883C4
:102A20008D27400091274000E4070020B0290020B6
:102A3000E0070020F8B5174C2668062E28D84FF07E
:102A4000000C6446144FA64625017D598D4204D1E1
:102A500007EB04156D68954204D00134E4B2A44636
:102A6000A642F0D20C4D4FEA0E1E05EB0E0445F8BF
:102A70000E106260A3600699E1600136664504BFEE
:102A800004490E6011461A46044B98470020F8BDD1
:102A90000120F8BDDC070020E40700205527400096
:102AA00008B50B210148024B984708BD000E0E40A7
:102AB000CD29400008B50C210148024B984708BDBC
:102AC00000100E40CD294000F8B505460C461746CB
:102AD000184B984706464FF0FF312846164B98474B
:102AE0002846164B9847E2B202F01F030121994095
:102AF00063099B0003F1604303F56143C3F8801051
:102B0000C3F88011002C06DA02F00F023F01FFB279
:102B10000B48875407E03F01FFB204F1604404F51D
:102B2000614484F80073196031462846054B984784
:102B3000F8BD00BF91274000892740008D27400045
:102B400014ED00E085274000184A136B23F0700352
:102B500018431063936E13F0080F03D009E0013B94
:102B600003D11EE04FF4006310498A6E12F0080F83
:102B7000F5D00E4A136B23F0030343F002031363F3
:102B8000906E10F0080004D000207047013B03D184
:102B900009E04FF4006305498A6E12F0080FF5D082
:102BA0007047012070470120704700BF00040E40AD
:102BB00038B111490B6A114A1A40114B13430B6289
:102BC00070470D48026A090289B222F45C1323F0AF
:102BD000030343F45C1343F001030B430362024617
:102BE000936E13F0010FFBD0034A136A43F09B73FB
:102BF00043F480331362704700040E40FCFFC8FEAC
:102C000002003701024B986E00F48030704700BF1D
:102C100000040E404FF00052014B9A62704700BF13
:102C200000040E40024B986E00F00200704700BF97
:102C300000040E4022281ED81F280CD8114B9A6978
:102C400001238340934318D0012303FA00F00D4B76
:102C500018610020704720380A4BD3F8082101235F
:102C6000834093430BD0012303FA00F0054BC3F8D4
:102C700000010020704701207047002070470020AD
:102C8000704700BF00040E40FEE700BF08B5204BB0
:102C9000204A9A4212D9204B1D4A9A421ED211460E
:102CA000013B9B1A23F0030304331A4A134452F8DE
:102CB000040B41F8040B9A42F9D10FE0144B154A6A
:102CC0009A420BD2144B124A9A1A144811182AB17C
:102CD00051F8042943F8042D8142F9D100BF104B6B
:102CE000104A9A420BD2131D0F4AD21A22F0030245
:102CF0001A44043B002143F8041B9A42FBD10B4BBE
:102D00000B4A9A600B4B98470B4B9847FEE700BF66
:102D100000000020A4874000F4040020A0874000A9
:102D2000B4290020F8040020B729002000ED00E0BD
:102D300000004000DD804000E54740003D4B1B6B3C
:102D400003F00303032B5DD8DFE803F0020E2B2B07
:102D5000394B5B6913F0800F14BF4FF400424FF4FE
:102D6000FA42364B1A604DE0324B1B6A13F0807FFB
:102D700003D0334A314B1A6044E0324A2F4B1A6079
:102D80002C4B1B6A03F07003102B02D0202B04D0B5
:102D900038E02D4A294B1A6034E0294A274B1A6043
:102DA00030E0244B1B6A13F0807F03D0244A234B6E
:102DB0001A6012E0234A214B1A601E4B1B6A03F073
:102DC0007003102B02D0202B04D006E01E4A1B4BB0
:102DD0001A6002E01A4A194B1A60164B1B6B03F07B
:102DE0000303022B134A07BF936A926AD36AD26A1B
:102DF0001248C3F30A41036801FB0333D2B2B3FBA9
:102E0000F2F303600B4B1B6B03F07003702B07D1C5
:102E10000A4A13680D49A1FB03135B08136070474E
:102E2000044B1B6B0549C3F302120B68D3400B60C4
:102E3000704700BF00040E4010140E40B000002088
:102E4000001BB70000093D0000127A00ABAAAAAA35
:102E5000124B984204D84FF08062114B1A607047B1
:102E6000104B984203D8104A0D4B1A6070470F4B15
:102E7000984203D80E4A0A4B1A6070470D4B98428D
:102E800003D80D4A064B1A6070470C4B984294BF0A
:102E90004FF004220A4A024B1A607047FF2C31019E
:102EA000000A0E40FF59620200010004FF869303EE
:102EB00000020004FFB3C40400030004FFE0F505B2
:102EC0000005000400F1080343604FF0FF32826008
:102ED000C360036100230360704700BF00230361E8
:102EE000704700BF43685A684A6042688A605A68FF
:102EF0009160596041600861036801330360704765
:102F000010B40C68B4F1FF3F01D103690AE000F18D
:102F10000803C2681268944204D35B685A68126856
:102F20009442FAD25A684A6091608B605960086195
:102F300003680133036010BC704700BF43688268B8
:102F40009A60836842685A6003695A68904204BF75
:102F500082685A60002202611A68013A1A60186891
:102F6000704700BF03480068006880F3088862B6B5
:102F700000DF00BF08ED00E04FF0807340F8043C34
:102F800040F8081C002340F80C3C40F8202C403846
:102F9000704700BF064B19680868B0E8F00F80F36F
:102FA00009884FF0000080F311884EF00D0E704735
:102FB000182900204FF08052014B1A60704700BF63
:102FC00004ED00E0EFF311804FF0A00181F31188D0
:102FD0007047002008B5034B9847034A1368013334
:102FE000136008BDC52F4000B400002080F3118895
:102FF000704700BF08B5044A1368013B136013B95A
:103000000020024B984708BDB4000020ED2F40007F
:10301000EFF309800C4B1A6820E9F00F10602DE9DE
:1030200008404FF0A00080F3118800F085FE4FF0BB
:10303000000080F31188BDE8084019680868B0E80E
:10304000F00F80F3098870471829002008B54FF069
:103050008052054B1A60054B9847054B9847002056
:10306000044B984708BD00BF04ED00E0C52F4000A9
:103070005D3A4000ED2F4000034A044B1A600722DE
:10308000043B1A60704700BFBF27090014E000E04E
:1030900010B5094B1A6842F470021A601A6842F0BF
:1030A00070421A60054B98470024054B1C60054B85
:1030B0009847204610BD00BF20ED00E07930400069
:1030C000B4000020652F4000124A00E01A46136841
:1030D0008342FBD310B451685418A04203D1406816
:1030E00001445160104641684418A3420CD10A4B78
:1030F0001B689C4206D063681944416013681B68D2
:10310000036002E0046000E00360904218BF1060BA
:1031100010BC70475C2800205828002038B50446B1
:103120002B4B98472B4B1B689BB92B4A2B4B13609F
:103130000021516041F6F0729818264D286041F642
:10314000F475595199505A601860254A1368103B1C
:103150001360002C37D004F1100212F0070F1CBFCF
:1031600022F007020832511E41F6FE73994227D819
:1031700019490C6801E021461C4663689A4202D94D
:103180002368002BF7D1134B1B689C4218D00D68A5
:10319000103523680B6063689B1A202B04D9A01894
:1031A000436062600F4B98470D4A136861685B1A71
:1031B00013600D4B98474DB90C4B9847002505E01F
:1031C000094B9847F8E7084B9847F5E7284638BD7C
:1031D0002D3A4000582800205C2800205808002084
:1031E000B8000020C93040007D3B4000B54740009A
:1031F00080B110B50446084B9847084A54F80C1C97
:1032000013680B441360A4F11000054B9847054B5D
:10321000984710BD704700BF2D3A4000B80000200D
:10322000C93040007D3B400010B50446036C3BB9FB
:1032300003681BBB4068134B9847002363601DE085
:103240006AB91A468068104B9847A268236C1344E9
:10325000A3606268934211D32368A3600EE01A460C
:10326000C068094B9847236C5B42E2681A44E260ED
:1032700021688A4202D262681344E360A36B01337F
:10328000A36310BD694040009181400038B50346FA
:10329000006858B11A6CDC681444DC605D68AC42AC
:1032A00028BFD8600846D968014B984738BD00BF91
:1032B00091814000F8B504461E4B9847A36C002B43
:1032C00013DD636A1BB910E0636A23B90DE004F1F2
:1032D0002406194D194F3046A84700B1B847A36CD2
:1032E000013BA364A36C002BEEDC4FF0FF33A3641F
:1032F000134B98470F4B9847636C002B13DD2369E2
:103300001BB910E0236923B90DE004F110060A4D42
:103310000A4F3046A84700B1B847636C013B63646D
:10332000636C002BEEDC4FF0FF336364044B984773
:10333000F8BD00BFD52F4000813E4000B13F4000A6
:10334000F52F400038B518B9174B984700BFFDE777
:103350000D460446154B98472268216CE36B03FB2E
:1033600001F3D01860600020A063A2605B1A1344D0
:10337000E3604FF0FF336364A36455B923697BB105
:1033800004F110000A4B9847012809D1094B9847CE
:1033900006E004F11000084DA84704F12400A847F6
:1033A000064B9847012038BDC52F4000D52F40005F
:1033B000813E4000B52F4000C52E4000F52F400053
:1033C00070B598B10D4606464C200E4B9847044602
:1033D00060B105FB06F001300A4B9847206040B908
:1033E0002046094B984701E000BFFDE7074B98478F
:1033F000FAE7E663256401212046054B98472046FD
:1034000070BD00BF1D314000F1314000C52F4000AC
:10341000453340002DE9F04F85B00192009318B973
:10342000384B984700BFFDE78A46044629B9036C2C
:103430002BB1344B984700BFFDE7002700E0002781
:10344000314EDFF8ECB0314DB047A26BE36B9A42DE
:1034500012D2009A514620462D4B9847636A3BB1E1
:1034600004F124002B4B9847012801D12A4B98479F
:10347000264B9847012042E0019B1BB9234B9847FC
:1034800000203CE017B902A8D8470127A847234BE2
:103490009847B047636CB3F1FF3F04BF00236364F8
:1034A000A36CB3F1FF3F04BF0023A364A84701A9A5
:1034B00002A81B4B9847E0B9B047D4F83890D4F82D
:1034C0003C80A847C1450ED1019904F11000154B6D
:1034D00098472046144B9847144B98470028B3D17F
:1034E0000D4B9847B0E720460F4B98470F4B984736
:1034F000AAE720460C4B98470C4B9847002005B094
:10350000BDE8F08FC52F4000D52F4000F52F4000BB
:1035100029324000813E4000B52F40002D3A400046
:103520002D3F4000DD3D4000B53240007D3B400076
:10353000053F40002DE9F04118B91E4B984700BFE8
:10354000FDE70E4615469846044629B9036C1BB1A3
:10355000184B984700BFFDE7164B98470746A26BEC
:10356000E36B9A4218D2424631462046124B9847A6
:10357000A36CB3F1FF3F0AD1636A7BB104F124006D
:103580000E4B984760B16DB101242C600BE0A36C29
:103590000133A364012406E0002404E0012402E0D6
:1035A000012400E001243846054B98472046BDE839
:1035B000F08100BFC52F400029324000813E40000D
:1035C000ED2F40002DE9F04F85B0019218B9464B20
:1035D000984700BFFDE789469A46044629B9036C1F
:1035E0002BB1414B984700BFFDE7002700E00027C3
:1035F0003E4EDFF828B13E4DB047A36B43B3E568BC
:10360000494620463B4B9847BAF1000F12D1A36BB5
:10361000013BA363236813B9374B98476060236964
:1036200093B104F11000354B984701280CD1344B6D
:10363000984709E0E560636A33B104F124002F4B39
:10364000984708B12E4B9847294B9847012048E0EE
:10365000019B1BB9264B9847002042E017B902A8EE
:10366000D8470127A847274B9847B047636CB3F169
:10367000FF3F04BF00236364A36CB3F1FF3F04BFAB
:103680000023A364A84701A902A81F4B984710BBB9
:10369000B047D4F83880A847B8F1000F15D1236897
:1036A00023B9B0476068194B9847A847019904F1BE
:1036B0002400174B98472046164B9847164B9847BF
:1036C000002899D10E4B984796E72046114B984712
:1036D000114B984790E720460E4B98470E4B984762
:1036E000002005B0BDE8F08FC52F4000D52F400069
:1036F000F52F40008D324000BD3F4000813E40002C
:10370000B52F40002D3A40002D3F4000E93F4000DA
:10371000DD3D4000B53240007D3B4000053F4000AC
:1037200038B504460D460D4B9847636CB3F1FF3F27
:1037300004BF00236364A36CB3F1FF3F04BF002305
:10374000A364074B9847A36B23B9294604F12400CF
:10375000044B98472046044B984738BDD52F40006E
:10376000F52F40003D3E4000B532400010B50F4BF4
:103770001B6858600E4B1B68984207D20D4B1868A7
:103780000A4B196804310C4B984710BD04460B4B8B
:103790001868064B19680431074B9847084B1B689B
:1037A0009C423CBF064B1C6010BD00BF1829002086
:1037B0003429002038290020012F40007C280020D7
:1037C000BC0000202DE9F04F83B00C9FDDF8348061
:1037D0000E9E019018B9614B984700BFFDE78946DE
:1037E00015469B46042F03D95C4B984700BFFDE765
:1037F00044205B4B98470446002800F0AA80002E26
:1038000040F0A480A800564B9847206318B9204682
:10381000544B98479DE0AA00A521534B984705F1CA
:103820008045013D236B03EB850323F007050C2244
:10383000494604F134004D4B9847002384F83F304B
:103840003E46042F28BF0426E662266404F10409DC
:103850004846DFF868A1D04704F11800D04724613A
:10386000C6F10506A66164625A4601992846404B96
:103870009847206010F0070F03D0384B984700BFDF
:10388000FDE7B8F1000F01D0C8F80040394B984768
:10389000394A136801331360384B1B680BBB374B35
:1038A0001C601368012B26D1354D05F16408354E97
:1038B0002846B04714354545FAD1DFF80481404623
:1038C000304DA847304E3046A8473048A8473048CA
:1038D000A8473048A847304BC3F800802F4B1E60E4
:1038E00009E02F4B1B6833B9244B1B68DB6A9F42EE
:1038F00024BF224B1C60E06A2A4B1B68984284BF9D
:10390000284B1860284A136801331360274B1B6843
:10391000984284BF254B186000EB80004946184B45
:1039200003EB8000224B9847224B98471C4B1B68A7
:1039300043B1124B1B68DB6A9F4205D91E4B984767
:10394000012008E0012006E0012004E00663304683
:1039500061E74FF0FF3003B0BDE8F08FC52F4000A6
:103960001D314000F1314000C582400061834000BC
:10397000792F4000D52F40005C2900201829002015
:10398000B0280020C52E40009C2800201C290020C3
:1039900088280020682800207C2800203829002062
:1039A0008028002060290020402900203C29002098
:1039B000E52E4000F52F4000B52F4000DD2E4000E1
:1039C0004429002010B584B000230393029301938F
:1039D000009364220D490E480E4CA04701280ED1D9
:1039E0000D4B984701280AD10C4B984701220C4BEC
:1039F0001A6000220B4B1A600B4B984704E018B971
:103A0000064B984700BFFDE704B010BD2485400079
:103A1000C93C4000C537400061414000C52F40000F
:103A2000802800203429002091304000024A136889
:103A300001331360704700BF1429002010B5044BF8
:103A40009847044B1C68044B9847204610BD00BFA4
:103A5000D52F400034290020F52F40002DE9F041FA
:103A60003A4B1B68002B6BD1394B1A6801321A6034
:103A70001B6803BB374B1B681B681BB1364B984751
:103A800000BFFDE7334B1968344A106818601160B5
:103A900033490A6801320A601B681B6823B94FF07A
:103AA000FF32304B1A6006E02A4B1B68DB68DB688C
:103AB0005A682C4B1A60264B1A682A4B1B689A428C
:103AC00042D3244B1B681B686BB1224B1B68DB681D
:103AD000DC6863681E4A1268934213D8224E234F53
:103AE000DFF8948012E04FF0FF321E4B1A60BDE801
:103AF000F081184B1B68DB68DC686368144A126845
:103B0000934203D9174A1360BDE8F081251D28466A
:103B1000B047A36A13B104F11800B047E06A3B68EC
:103B2000984288BF386000EB8000294608EB80008F
:103B30000F4B9847074B1B681B68002BD9D1D2E766
:103B40000C4A136801331360BDE8F081142900208A
:103B5000342900207C280020C52F4000382900206F
:103B600030290020BC0000203D2F40003C290020CF
:103B7000E52E400064280020B02800202DE9F843FD
:103B8000304B1B681BB9304B984700BFFDE72F4BEC
:103B900098472C4B1A68013A1A601B68002B49D1D0
:103BA0002B4B1B6803BB002447E0D8F80C30DC68C3
:103BB00004F11800B84704F104094846B847E06A20
:103BC0003368984288BF306000EB80004946214B43
:103BD00003EB8000204B9847204B1B68E26ADB6AAE
:103BE0009A4228BF012504E00025DFF890801C4F91
:103BF0001C4ED8F80030002BD7D11B4B1B6863B18B
:103C0000194B1B687BB1194D174CA8472368013B22
:103C100023602368002BF8D105E0012D03D0144B5D
:103C20001B68012B08D10022114B1A60114B9847D9
:103C3000012402E0002400E000240F4B98472046B6
:103C4000BDE8F88314290020C52F4000D52F40007F
:103C50005C290020B0280020E52E40001829002013
:103C60003D2F40003C290020642800205D3A4000A0
:103C700058290020B52F4000F52F40001C290020B6
:103C800010B580B10446094B9847094B1B681C448A
:103C9000084B18680430084B98472046074B984754
:103CA000074B984708B9074B984710BD2D3A40007D
:103CB00034290020182900203D2F40006D37400096
:103CC0007D3B4000B52F400080B5124DDFF860808D
:103CD000114F124E19E0C0473C68B047ACB1104BD1
:103CE0009847FB68DC68201D0E4B98470E4A136806
:103CF000013B13602B68013B2B600C4B9847206BFA
:103D0000DFF83090C8472046C8472B68002BE2D127
:103D1000DFE700BF84280020882800207D3B40008A
:103D2000D52F40003D2F40005C290020F52F40009A
:103D30002D3A4000F131400010B5224B1B686BB9A1
:103D4000214B1B6803EB83039B00204AD358CBB95C
:103D50001D4B1B6843B11C4A1C4909E001221C4B46
:103D60001A6010BD13681BB91A4B984700BFFDE7D6
:103D70001368013B1360136803EB830351F823308E
:103D8000002BEFD0104B1B68104A9900C81802EBAB
:103D9000800044686468446002460832944206D158
:103DA000606803EB8301094A02EB8102506003EB78
:103DB0008303064A02EB83035B68DA68064B1A60EA
:103DC00010BD00BF142900203C290020B02800208D
:103DD00058290020C52F40001829002038B518B9EF
:103DE0000E4B984700BFFDE70C460D4D2968183172
:103DF0000C4B9847286804300B4B9847B4F1FF3FB1
:103E000005D1296804310948094B984738BD094B49
:103E100018682044084B984738BD00BFC52F4000A4
:103E200018290020012F40003D2F40006828002065
:103E3000E52E4000342900206D37400038B518B910
:103E4000094B984700BFFDE70D46084C2168183123
:103E5000074B984720680430064B9847064B186874
:103E60002844064B984738BDC52F4000182900202C
:103E7000E52E40003D2F4000342900206D374000E2
:103E800038B5C368DC681CB9164B984700BFFDE71E
:103E900004F118052846144B9847144B1B689BB92E
:103EA000251D2846104B9847E06A114B1B68984225
:103EB00084BF0F4B186000EB800029460D4B03EBCD
:103EC00080000D4B984703E029460C480A4B984761
:103ED0000B4B1B68E06ADB6A984234BF002001206C
:103EE00038BD00BFC52F40003D2F400014290020E1
:103EF0003C290020B0280020E52E40001C2900208D
:103F00001829002008B518B9054B984700BFFDE7F0
:103F1000044A12680260044A1268426008BD00BF89
:103F2000C52F4000302900203429002038B518B9A9
:103F3000194B984700BFFDE70D46044619B9164BCB
:103F4000984700BFFDE7154B98472B68B3F1FF3F3B
:103F500018D0134A12682168914204D0114A12689D
:103F60006168914210D90F4A11686068091A8B4242
:103F70000CD91268121A9B1A2B6020460A4B9847DC
:103F8000002404E0002402E0012400E00124074BA7
:103F90009847204638BD00BFC52F4000D52F4000B0
:103FA0003029002034290020053F4000F52F400033
:103FB0000122014B1A60704758290020014B1868F4
:103FC000704700BF18290020054B1B6833B1054B13
:103FD0001B68002B0CBF0120022070470020704797
:103FE0008028002014290020002831D038B5C36A69
:103FF00018490968C96A8B4229D216490968C96AF1
:10400000C1F10501816103EB8303134901EB8303D4
:104010004169994217D10546041D20460F4B984728
:104020000C4B1B68D86AE8620D4B1B68984284BF32
:104030000B4B186000EB80002146074B03EB800020
:10404000084B984738BD034B1B68DB6AC36238BD19
:10405000704700BF18290020B02800203D2F4000E5
:104060003C290020E52E4000E8B138B5C16A026C59
:10407000914217D00446051D28460B4B9847206CEB
:10408000E062C0F10503A361084B1B68984284BF3E
:10409000064B186000EB80002946054B03EB8000BF
:1040A000044B984738BD70473D2F40003C29002005
:1040B000B0280020E52E400008B541600061914223
:1040C0000AD8D21A83699A4211D2011D0A4B186884
:1040D0000A4B9847002008BD9A4201D2994208D263
:1040E000011D074B1868054B9847002008BD0120AB
:1040F00008BD012008BD00BF98290020012F400005
:104100006429002070B50D4B98470D4B1B688BB987
:104110000C4D28460C4EB0470C4C2046B0470C4B7B
:104120001D600C4B1C6000220C2105200A4B984797
:10413000034B1860094B984770BD00BFD52F400056
:104140009429002068290020C52E40007C290020E9
:104150006429002098290020C1334000F52F400039
:1041600010B584B00B4B98470B4B1B685BB1002319
:1041700003930293019304220092C822074908483E
:10418000084CA04718B9084B984700BFFDE704B09A
:1041900010BD00BF05414000942900202C8540003F
:1041A000B5424000C5374000C52F400030B585B04E
:1041B0000F4C2568CDB11C460191029203906CB959
:1041C0000C4B984701284FF000030CBF089A1A4681
:1041D00001A907480068084CA04707E000232246D1
:1041E00001A92846054CA04700E0002005B030BDDD
:1041F00094290020C93F4000153440003535400067
:104200002DE9F04782B08146224B98478046224BE9
:104210001B68984234D224E0DA68D2F800A0DB6848
:10422000DC68251D2846B847636A20469847E3693D
:10423000012B18D1A36953449A4506D263602461C7
:1042400029463068154B98470DE0002100910B4638
:1042500052462046124CA04728B9124B984700BF3F
:10426000FDE7114E114F33681A68002AD4D1104A65
:1042700010680D49086013600123C9F8003002E09E
:104280000023C9F80030044BC3F80080404602B058
:10429000BDE8F0873D3A400090290020012F400002
:1042A000AD414000C52F4000642900203D2F400053
:1042B000982900202DE9F04387B04D4DDFF860814B
:1042C0004C4B1B681A68002A00F08880DB681E6867
:1042D000494B984703A8494B98470746039B002B37
:1042E00030D1864224D8464B9847424B1B68DB6846
:1042F000DC68201DC047E369012B14D1A169334656
:104300003A46314420463F4FB84701280BD100219F
:1043100000910B46324620463B4EB04718B93B4B06
:10432000984700BFFDE7636A204698470CE00026E7
:10433000F11B2868364B9847314B984720B9354BCD
:10434000984701E02E4B984702A82C4B9847074608
:10435000314EDFF8B09039E0059C1CB163690BB1B8
:10436000201DC047039B022B20D0032B2BD0002BFA
:104370002CD10499A0690B463A4601442046C8470F
:10438000012823D1636A20469847E369012B1DD198
:10439000A269002100910B460498024420461A4C61
:1043A000A04798B9194B984700BFFDE70499A16150
:1043B00019B9164B984700BFFDE73B463A463944CA
:1043C0002046C84702E02046144B984700231A466F
:1043D00003A92868B0470028BED171E7064B98476B
:1043E00003A8064B98470746039B002B9FD0A9E7DD
:1043F00094290020642900202D3A40000142400009
:104400007D3B4000B9404000AD414000C52F400019
:1044100021374000B52F4000C5354000F131400044
:104420003D2F4000002A00F0D5802DE9F84F0746C7
:104430000D461446DFF8F081674E06F1100BDFF8E9
:10444000ECA1232D00F2BD80DFE805F0121D28331A
:104450003E4852BBBB5ABB67BB75BBBBBBBBBB8338
:10446000BBBBBBBBAFBBBBBBBBBBBBBBBB91BBA0ED
:1044700032223978D8F80000584B9847013C14F0A4
:10448000FF0400F0A5803222B978D8F80000544B20
:104490009847013C14F0FF0400F09A8032223979E9
:1044A000D8F800004F4B9847013C14F0FF0400F08F
:1044B0008F803222B979D8F800004B4B9847013CE5
:1044C00014F0FF0400F084803222397AD8F800001A
:1044D000464B9847013C14F0FF0479D03222B97A58
:1044E000D8F80000424B9847013C14F0FF046FD00D
:1044F0003222397BD8F800003E4B9847062560E011
:104500003D4B728A5A80328A1A8004235A463B49AC
:104510000020DFF81C91C84753E0394BF28A5A80DB
:10452000324632F8141F1980042336490020DFF880
:104530000091C84745E0344B728B5A80324632F8BE
:10454000181F1980042331490020DFF8E490C84780
:1045500037E02F4BF28C5A80324632F8241F1980F4
:10456000042351460020DFF8C890C84729E0294BB2
:10457000B6F842205A80324632F8401F1980042390
:1045800025490020DFF8A890C8471AE0234BB6F869
:1045900046205A80324632F8441F198004232049AD
:1045A0000020DFF88C90C8470BE00023B3861D4A3B
:1045B00013702020DFF87C90C8472120C8472220B4
:1045C000C8470135EDB2013C14F0FF047FF439AF68
:1045D000BDE8F88F704700BF14070020C9064000EF
:1045E000DD064000F10640000507400019074000C5
:1045F0002D07400041074000A000002000FC4300C0
:10460000A400002004FC43009400002008FC4300A8
:104610009C000020980000200EFC4300A800002011
:1046200012FC43005D070020A029002016FC430077
:104630009D014000B127400008B5014B984708BDD7
:104640006519400070B504460D460A480A4B984764
:1046500029462046094B9847094C0A26094D01E096
:104660003046A847A0470028FAD00248064B984792
:1046700070BD00BF00400240E9244000D519400051
:104680003D1A4000813C4000F12440002DE9F043F8
:10469000D1B000248DF80F402B4A2C4B1A602C4EC1
:1046A00030462C4B984730462B4B984796212AA8EA
:1046B0002A4B98472A4F2B4EDFF8949000E005468E
:1046C0002820B847B047C0B214B1012C07D0F7E793
:1046D000002818BF0546002818BF0124F0E78542CE
:1046E000EDD14846204B98470121204B1868204BBC
:1046F0009847204B18780DF10F04009404AB2A461C
:104700002AA9DFF88080C047217811B104A81A4B8C
:1047100098474FF09608424600212AA8174CA04718
:104720004246002104A8A04700248DF80F404846C7
:10473000094B984701210D4B1868114B984741468A
:104740002AA8064B9847BBE7254440009C29002037
:1047500000400240F1244000F9244000F9194000D3
:10476000813C40001D1A400001254000A429002082
:1047700099234000C000002045464000C58240000B
:104780008D2340005909400080B51026064F4FF494
:10479000FA753046B8472846044CA0473046044BCB
:1047A00098472846A047F4E795274000813C400001
:1047B000B127400008B5014B9847FEE7C52F4000E0
:1047C00008B50448044B9847044B9847044B984756
:1047D00008BD00BF25CA820089000020910C40005E
:1047E0003946400000B585B0144B9847144B9847A4
:1047F000144B9847002403940294019401260096D8
:1048000023464FF4967210491048114DA84703945F
:1048100002940194009623464FF400720D490E480D
:10482000A8470394029401940096234664220B49FE
:104830000B48A8470B4B9847FEE700BF05264000F2
:1048400051254000C147400034854000D118400048
:10485000C5374000388540008D4640004085400007
:1048600089474000C539400030B5224A21F0004355
:10487000934287B01BDD204A934205DD02460B467A
:1048800002F050FC07B030BD02AA00F009FF00F0B2
:104890000303012B1AD0022B0FD01BB30124DDE937
:1048A0000423DDE90201009401F0FEFEEAE70022A4
:1048B000002301F0D9F907B030BDDDE90423DDE9BB
:1048C000020101F0D1F901F10041DBE7DDE9044526
:1048D0000093DDE9020122462B4601F0E5FE01F1DD
:1048E0000041CFE7DDE90423DDE9020101F0BCF975
:1048F000C8E700BFFB21E93FFFFFEF7F30B51F4A4C
:1049000021F00043934287B01BDD1D4A934205DD31
:1049100002460B4602F006FC07B030BD02AA00F0CA
:10492000BFFE00F003000128DDE904231AD00228AD
:104930000FD0E0B1DDE9020101F096F901F100418B
:10494000EAE7002300930022002301F0ADFE07B048
:1049500030BD0124DDE90201009401F0A5FE01F162
:104960000041D9E7DDE9020101F07EF9D4E7012435
:10497000DDE90201009401F097FECDE7FB21E93F5C
:10498000FFFFEF7F30B5144A21F00043934287B018
:1049900019DD124A934205DD02460B4602F0C2FBC6
:1049A00007B030BD02AA00F07BFE440004F0020410
:1049B000C4F10104DDE90423DDE90201009401F002
:1049C0002BFF07B030BD012300930022002301F02C
:1049D00023FF07B030BD00BFFB21E93FFFFFEF7FA2
:1049E0002DE9F043DFF8A4808BB004460D4600F0BB
:1049F00007F998F90030013306460F462ED02246BB
:104A00002B462046294602F0DBFF814630BB20467C
:104A1000294602F067FA0022194B02F0C7FFE8B1FD
:104A2000184B1948CDF8209001228DE80C00CDE9F3
:104A30000445CDE9024502F0E5FA98F90030022B71
:104A4000CDE906010FD0684602F0DAFA58B1089BAA
:104A500083B9DDE906010BB0BDE8F0833046394685
:104A60000BB0BDE8F08303F033FB21230360089B08
:104A7000002BEED003F02CFB089B0360E9E700BF9E
:104A80000000F03F4885400028854000C10000201C
:104A90002DE9F043DFF8A4808BB004460D4600F00A
:104AA00003FB98F90030013306460F462ED022460C
:104AB0002B462046294602F083FF814630BB204624
:104AC000294602F00FFA0022194B02F06FFFE8B1FD
:104AD000184B1948CDF8209001228DE80C00CDE943
:104AE0000445CDE9024502F08DFA98F90030022B19
:104AF000CDE906010FD0684602F082FA58B1089B52
:104B000083B9DDE906010BB0BDE8F08330463946D4
:104B10000BB0BDE8F08303F0DBFA21230360089BB0
:104B2000002BEED003F0D4FA089B0360E9E700BF46
:104B30000000F03F5085400028854000C100002063
:104B400000F0E2BC2DE9F04F8BB004460D4600F0BA
:104B5000C9FF284B93F900A0BAF1FF3F06460F4664
:104B600012D022462B462046294602F029FF8346D2
:104B700050B94FF000084FF0000942464B4620461E
:104B8000294602F0F5FE20B9304639460BB0BDE8A3
:104B9000F08F194BCDF820B00122CDE90445CDE9C5
:104BA00002458DE80C00BAF1000F15D042464B4685
:104BB0004046494602F094FDBAF1020FCDE90601E4
:104BC0000CD103F085FA21230360089B63B9DDE96A
:104BD00006010BB0BDE8F08FCDE90689684602F00A
:104BE0000FFA0028F1D1ECE703F072FA089B03609A
:104BF000EDE700BFC1000020588540000000000024
:104C00002DE9F84FC44E21F00043B3420C4605464F
:104C10000DDD03F1404303F58013034340F0B980F9
:104C2000002940F3408100200021BDE8F88FBB4EF1
:104C3000B34240F3A6800029C0F2788102460B46B9
:104C40000020B74902F06EFA0022B64B02F01EFCBB
:104C500004460D4600F046FF95A3D3E9002389469C
:104C600080462946204602F011FC93A3D3E9002395
:104C700002F05AFA22462B4602F008FC90A3D3E930
:104C8000002302F04FFA22462B4602F0FFFB8EA3D0
:104C9000D3E9002302F048FA22462B4602F0F6FB45
:104CA0008BA3D3E9002302F03DFA22462B4602F003
:104CB000EDFB89A3D3E9002302F036FA22462B4606
:104CC00002F0E4FB86A3D3E9002382468B4620460C
:104CD000294602F0DBFB84A3D3E9002302F022FA89
:104CE00022462B4602F0D2FB81A3D3E9002302F037
:104CF0001BFA22462B4602F0C9FB7FA3D3E900230F
:104D000002F010FA22462B4602F0C0FB0022844B30
:104D100002F00AFA02460B465046594602F0E0FC01
:104D200042464B4602F0B2FB002682468B46324694
:104D30004B463046494602F0A9FB02460B46204648
:104D4000294602F0EFF9324604460D464B464046EE
:104D5000494602F0E9F902460B462046294602F090
:104D6000BFFC02460B465046594602F0DDF932467A
:104D70004B4602F0D9F902460B4602F0D5F9BDE8E0
:104D8000F88F694A93420EDC5DA1D1E90001BDE8CC
:104D9000F88F02460B4602F0C5F902460B4602F0B8
:104DA0009FFCBDE8F88F02460B4602F06FFB40A364
:104DB000D3E9002306460F4602F068FB3EA3D3E981
:104DC000002302F0B1F932463B4602F05FFB3CA300
:104DD000D3E9002302F0A6F932463B4602F056FB27
:104DE00039A3D3E9002302F09FF932463B4602F093
:104DF0004DFB37A3D3E9002302F094F932463B463A
:104E000002F044FB34A3D3E9002302F08DF93246CB
:104E10003B4602F03BFB32A3D3E9002380468946A0
:104E20003046394602F032FB2FA3D3E9002302F0CB
:104E300079F932463B4602F029FB2DA3D3E9002342
:104E400002F072F932463B4602F020FB2AA3D3E976
:104E5000002302F067F932463B4602F017FB0022BE
:104E60002F4B02F061F902460B464046494602F0DC
:104E700037FC2A46234602F009FB02460B4622A1D4
:104E8000D1E9000102F04EF902460B4628462146C0
:104E900002F048F902460B4619A1D1E9000102F0DF
:104EA00041F9BDE8F88F1AA1D1E90001BDE8F88FFA
:104EB00009F7FD0DE13D023F88B20175E0EF493F82
:104EC0003B8F68B52882A43F5544880E55C1C93F21
:104ED0007D6FEB0312D6D43F555555555555C53FFB
:104EE00082922EB1C5B8B33F59018D1B6C06E63FC7
:104EF000C88A599CE52A00404B2D8A1C273A03405A
:104F0000182D4454FB21F93F075C143326A6913C2D
:104F1000182D4454FB210940FFFFEF3FFFFFDF3F07
:104F20000000F03F0000E03F0000603C00225C4BCE
:104F300002F0FAF800225B4B02F0A8FA40A3D3E992
:104F4000002304460D4602F0A1FA3FA3D3E9002353
:104F500002F0EAF822462B4602F098FA3CA3D3E985
:104F6000002302F0DFF822462B4602F08FFA3AA324
:104F7000D3E9002302F0D8F822462B4602F086FA45
:104F800037A3D3E9002302F0CDF822462B4602F0E6
:104F90007DFA35A3D3E9002302F0C6F822462B465A
:104FA00002F074FA804689462046294600F09AFDB0
:104FB0002FA3D3E9002306460F462046294602F0D8
:104FC00065FA2DA3D3E9002302F0ACF822462B4664
:104FD00002F05CFA2AA3D3E9002302F0A5F82246E6
:104FE0002B4602F053FA28A3D3E9002302F09AF8E3
:104FF00022462B4602F04AFA0022294B02F094F88E
:1050000002460B464046494602F06AFB32463B46A2
:1050100002F03CFA1EA3D3E9002302F083F83246E3
:105020003B4602F081F802460B4602F07DF802464C
:105030000B4619A1D1E9000102F074F8BDE8F88F20
:1050400009F7FD0DE13D023F88B20175E0EF493FF0
:105050003B8F68B52882A43F5544880E55C1C93F8F
:105060007D6FEB0312D6D43F555555555555C53F69
:1050700082922EB1C5B8B33F59018D1B6C06E63F35
:10508000C88A599CE52A00404B2D8A1C273A0340C8
:10509000075C143326A6913C182D4454FB2109408B
:1050A0000000F03F0000E03F2DE9F047C04B21F049
:1050B0000048984584B00D46044614DD08F1404888
:1050C00008F58018034658EA030323D002460B462E
:1050D00002F028F802460B4602F002FB0446204686
:1050E00004B0BDE8F087B34B98458A462BDCB8F195
:1050F000795F80F2678192A3D3E9002302F014F86C
:105100000022AD4B02F052FCE8B12946204604B023
:10511000BDE8F0878CA3D3E9002302F0B7F98CA394
:10512000D3E9002306460F462046294602F0AEF991
:1051300002460B463046394601F0F6FF044620464B
:1051400004B0BDE8F0872046294601F0CBFE0246B8
:105150000B460020984901F0E5FF0022974B02F032
:1051600095F97DA3D3E9002304460D4602F08EF99C
:105170007BA3D3E9002301F0D7FF22462B4602F0A0
:1051800085F979A3D3E9002301F0CCFF22462B4611
:1051900002F07CF976A3D3E9002301F0C5FF224693
:1051A0002B4602F073F974A3D3E9002301F0BAFF90
:1051B00022462B4602F06AF971A3D3E9002301F0DD
:1051C000B3FF22462B4602F061F96FA3D3E9002317
:1051D000CDE900012046294602F058F96CA3D3E935
:1051E000002301F09FFF22462B4602F04FF96AA3ED
:1051F000D3E9002301F098FF22462B4602F046F93E
:1052000067A3D3E9002301F08DFF22462B4602F06D
:105210003DF9694B002201F087FFCDE902012046EC
:10522000294600F05FFC664B984506460F4666DC53
:10523000DDE90223DDE9000102F052FA3246CDE950
:1052400000013B463046394601F06EFF02460B46F0
:10525000DDE9000102F01AF94FF00008CDE9000184
:1052600042463B464046394602F010F902460B469C
:105270002046294601F056FF424604460D463B466D
:105280003046394601F050FF02460B46204629467B
:1052900002F026FA02460B4601F046FF02460B4694
:1052A0002BA1D1E9000101F03DFF02460B46DDE9EB
:1052B000000101F037FF424604460D463B4640469A
:1052C000394601F031FF02460B4637A1D1E9000112
:1052D00001F028FF02460B462046294601F022FF36
:1052E00002460B4630A1D1E9000101F01BFF044644
:1052F000BAF1000F3FF7F3AE01F10041EFE6DDE94F
:105300000223DDE9000102F0EBF932463B4602F0F0
:10531000BDF832463B4601F007FF02460B4601F05E
:1053200003FF0BA3D3E9002301F0FCFE02460B466A
:1053300005A1D1E9000101F0F5FE0446D8E700BF60
:105340009C7500883CE4377E182D4454FB21F93FBE
:10535000075C143326A6913C09F7FD0DE13D023FA1
:1053600088B20175E0EF493F3B8F68B52882A43FC2
:105370005544880E55C1C93F7D6FEB0312D6D43F0B
:10538000555555555555C53F82922EB1C5B8B33FB9
:1053900059018D1B6C06E63FC88A599CE52A0040DE
:1053A0004B2D8A1C273A0340182D4454FB21E93F1A
:1053B000FFFFEF3FFFFFDF3F0000F03F0000E03F57
:1053C0003233EF3F02460B4602F060F838A3D3E9D0
:1053D000002306460F4602F059F837A3D3E900230D
:1053E00001F0A2FE32463B4602F050F834A3D3E966
:1053F000002301F097FE32463B4602F047F832A305
:10540000D3E9002301F090FE32463B4602F03EF81D
:105410002FA3D3E9002301F085FE32463B4602F07C
:1054200035F82DA3D3E9002301F07EFE32463B463A
:1054300002F02CF82AA3D3E900238046894630469F
:10544000394602F023F828A3D3E9002301F06AFECD
:1054500032463B4602F01AF825A3D3E9002301F0B7
:1054600063FE32463B4602F011F823A3D3E9002342
:1054700001F058FE32463B4602F008F80022204B6D
:1054800001F052FE02460B464046494602F028F91A
:1054900022462B4601F0FAFF22462B4601F044FE3D
:1054A0000446204604B0BDE8F08700BFAFF300809B
:1054B00009F7FD0DE13D023F88B20175E0EF493F7C
:1054C0003B8F68B52882A43F5544880E55C1C93F1B
:1054D0007D6FEB0312D6D43F555555555555C53FF5
:1054E00082922EB1C5B8B33F59018D1B6C06E63FC1
:1054F000C88A599CE52A00404B2D8A1C273A034054
:105500000000F03F000000002DE9F84F5442144322
:1055100023F00049DFF880E149EAD4747445064677
:105520000D463ED84442044321F0004B4BEAD4746C
:1055300074458A4635D803F1404404F58014144379
:1055400044D09C1704F0020444EAD17450EA0B01E1
:105550002FD052EA090133D0F14546D0F3452FD080
:10556000C9EB0B094FEA2959B9F13C0F34DC002B88
:1055700057DB3046294602F0B3F801F0B3FC01F0E6
:1055800013FB012C4AD0022C3BD084B132A3D3E9C7
:10559000002301F0C7FD32A3D3E9002301F0C2FDCF
:1055A00005E01046194632462B4601F0BDFDBDE828
:1055B000F88F022C14D0032C0CD12D482D49F6E77E
:1055C000BAF1000F2A480EDB2B49F0E7BDE8F84F8F
:1055D00001F0EABA2946EAE723A1D1E90001D0E7C0
:1055E00023482649E3E72649E1E7CB451FD0022CB3
:1055F000F6D0032CE1D0012C4FF0000020D0014662
:10560000D5E715A3D3E9002301F08CFD02460B4634
:1056100013A1D1E9000101F085FDC8E701F10041C6
:10562000C5E719F13C0FA4DA00200021A9E7022CFC
:105630000ED0032C09D0012C0D4804D01149B6E737
:105640004FF00041B3E71049B1E710481049AEE709
:105650000E481049ABE700BF075C143326A6A13CF7
:10566000182D4454FB210940182D4454FB21F93FC7
:10567000182D4454FB2109C0FB21F93FFB210940AF
:10568000FB21F9BFFB21E93FFB21E9BFD221337F99
:105690007CD902C07CD902400000F07F00000000ED
:1056A0002DE9F04F944E21F00047B74291B040F3FE
:1056B00082809246914A97420C4626DC002984A3B8
:1056C000D3E9002340F3A88101F02CFD8C4B9F42CD
:1056D00004460D4600F084807FA3D3E9002301F047
:1056E00021FD02460B46CAE900232046294601F067
:1056F00019FD79A3D3E9002301F014FD0125CAE9BE
:105700000201284611B0BDE8F08F7E4A974240F36F
:1057100084807D4A974259DC3D15A5F21645A7EBDA
:10572000055319461F46064602F060F901F048FE8F
:105730008046894602460B4630463946CDE90A89FD
:1057400001F0F0FC0022714B01F0A0FE894680467A
:1057500002F04CF901F034FE02460B4606460F46B5
:1057600040464946CDE90C6701F0DCFC0022674B5E
:1057700001F08CFE00220023CDE90E0102F0EEF8CC
:10578000002800F07581002330463946002202F0DF
:10579000E5F8002814BF012302235D4A019202218B
:1057A00000912A4651460AA800F082FB002CC0F264
:1057B0005181054606E0C2E9000100250024C2E946
:1057C00002450025284611B0BDE8F08F02460B4681
:1057D00001F0A8FC0025CAE90201CAE90001F1E7CD
:1057E0003FA3D3E9002301F09DFC3FA3D3E90023AD
:1057F0000D46044601F096FC02460B46CAE900231A
:105800002946204601F08EFC37A3D3E9002301F09E
:1058100089FC0125CAE90201D4E701F063FB34A346
:10582000D3E900238046894601F030FE0022394B3F
:1058300001F07AFC02F0DAF8054601F0C1FD24A37C
:10584000D3E90023CDE9040101F020FE02460B4616
:105850004046494601F066FC1FA3D3E90023804679
:105860008946DDE9040101F011FE1F2DCDE9020199
:1058700054DC294B6A1E53F822309F424ED0024618
:105880000B464046494601F04DFC02460B46CAE92C
:10589000002383460E465A4633464046494601F0A9
:1058A00041FCDDE9022301F03DFC002C02460B46E1
:1058B000CAE9022386DA5B4606F1004601F100419F
:1058C0008AE84800CAF80C10CAF808006D4279E767
:1058D00000004054FB21F93F3163621A61B4D03DAE
:1058E0000000601A61B4D03D7370032E8A19A33B87
:1058F00083C8C96D305FE43FFB21E93F7BD902409B
:10590000FB21F93FFB213941FFFFEF7F0000704190
:10591000E08540000000E03F60854000DDE90223B3
:105920004046494601F0FEFB3A15C1F30A53D31A2B
:10593000102B83460E460992CAE90001ABDD5EA337
:10594000D3E90023DDE9040101F0A0FD06460F467E
:1059500002460B464046494601F0E4FBCDE906010C
:1059600002460B464046494601F0DCFB32463B46C8
:1059700001F0D8FB52A3D3E9002306460F46DDE928
:10598000040101F083FD32463B4601F0CBFBDDE92B
:105990000689CDE9020102460B464046494601F020
:1059A000C1FB0B46C1F30A570E460999CF1B0246AD
:1059B000312F8346CAE900237ADD43A3D3E90023CC
:1059C000DDE9040101F062FD06460F4602460B4682
:1059D00040464946CDE9068901F0A4FB02460B4644
:1059E00080468946DDE9060101F09CFB32463B46D4
:1059F00001F098FB36A3D3E9002306460F46DDE904
:105A0000040101F043FD32463B4601F08BFB0246A8
:105A10000B46CDE9022334E701F086FB304B9F4271
:105A200004460D4626D02CA3D3E9002301F07CFBCD
:105A300002460B46CAE900232946204601F072FBC4
:105A400025A3D3E9002301F06FFB4FF0FF35CAE92E
:105A50000201B7E6DAF80420DAF80C3002F100426D
:105A600003F100434542CAF80420CAF80C30A9E605
:105A7000032392E610A3D3E9002301F055FB10A302
:105A8000D3E900230D46044601F04EFB02460B46C7
:105A9000CAE900232946204601F044FB08A3D3E9C4
:105AA000002301F041FB4FF0FF35CAE9020189E60E
:105AB000DDE90689EFE600BF0000601A61B4D03D61
:105AC0007370032E8A19A33B0000002E8A19A33B92
:105AD000C14920259A837B393163621A61B4D03D74
